{
	"CrowdFunding/CrowdFunding.sol": {
		"CrowdFunding": {
			"abi": [
				{
					"inputs": [
						{
							"internalType": "address",
							"name": "creator",
							"type": "address"
						},
						{
							"internalType": "uint256",
							"name": "goal",
							"type": "uint256"
						},
						{
							"internalType": "uint256",
							"name": "durationSeconds",
							"type": "uint256"
						}
					],
					"stateMutability": "nonpayable",
					"type": "constructor"
				},
				{
					"anonymous": false,
					"inputs": [
						{
							"indexed": true,
							"internalType": "address",
							"name": "creator",
							"type": "address"
						},
						{
							"indexed": false,
							"internalType": "uint256",
							"name": "goal",
							"type": "uint256"
						},
						{
							"indexed": false,
							"internalType": "uint256",
							"name": "deadline",
							"type": "uint256"
						}
					],
					"name": "CampaignCreated",
					"type": "event"
				},
				{
					"anonymous": false,
					"inputs": [
						{
							"indexed": true,
							"internalType": "address",
							"name": "contributor",
							"type": "address"
						},
						{
							"indexed": false,
							"internalType": "uint256",
							"name": "amount",
							"type": "uint256"
						},
						{
							"indexed": false,
							"internalType": "uint256",
							"name": "newTotal",
							"type": "uint256"
						},
						{
							"indexed": false,
							"internalType": "bool",
							"name": "IsSucess",
							"type": "bool"
						}
					],
					"name": "Contributed",
					"type": "event"
				},
				{
					"anonymous": false,
					"inputs": [
						{
							"indexed": true,
							"internalType": "address",
							"name": "banker",
							"type": "address"
						},
						{
							"indexed": false,
							"internalType": "uint256",
							"name": "amount",
							"type": "uint256"
						}
					],
					"name": "Refund",
					"type": "event"
				},
				{
					"anonymous": false,
					"inputs": [
						{
							"indexed": true,
							"internalType": "address",
							"name": "creator",
							"type": "address"
						},
						{
							"indexed": false,
							"internalType": "uint256",
							"name": "amount",
							"type": "uint256"
						}
					],
					"name": "Withdrawn",
					"type": "event"
				},
				{
					"inputs": [],
					"name": "contribute",
					"outputs": [],
					"stateMutability": "payable",
					"type": "function"
				},
				{
					"inputs": [],
					"name": "finalize",
					"outputs": [],
					"stateMutability": "nonpayable",
					"type": "function"
				},
				{
					"inputs": [],
					"name": "refund",
					"outputs": [],
					"stateMutability": "payable",
					"type": "function"
				},
				{
					"inputs": [],
					"name": "withdraw",
					"outputs": [],
					"stateMutability": "payable",
					"type": "function"
				}
			],
			"devdoc": {
				"kind": "dev",
				"methods": {},
				"version": 1
			},
			"evm": {
				"assembly": "    /* \"CrowdFunding/CrowdFunding.sol\":59:3487  contract CrowdFunding {... */\n  mstore(0x40, 0x80)\n    /* \"CrowdFunding/CrowdFunding.sol\":504:509  false */\n  0x00\n    /* \"CrowdFunding/CrowdFunding.sol\":485:509  bool isWithdrawn = false */\n  0x06\n  exp(0x0100, 0x00)\n  dup2\n  sload\n  dup2\n  0xff\n  mul\n  not\n  and\n  swap1\n  dup4\n  iszero\n  iszero\n  mul\n  or\n  swap1\n  sstore\n  pop\n    /* \"CrowdFunding/CrowdFunding.sol\":535:887  constructor(address creator, uint256 goal, uint256 durationSeconds) {... */\n  callvalue\n  dup1\n  iszero\n  tag_1\n  jumpi\n  revert(0x00, 0x00)\ntag_1:\n  pop\n  mload(0x40)\n  sub(codesize, bytecodeSize)\n  dup1\n  bytecodeSize\n  dup4\n  codecopy\n  dup2\n  dup2\n  add\n  0x40\n  mstore\n  dup2\n  add\n  swap1\n  tag_2\n  swap2\n  swap1\n  tag_3\n  jump\t// in\ntag_2:\n    /* \"CrowdFunding/CrowdFunding.sol\":632:639  creator */\n  dup3\n    /* \"CrowdFunding/CrowdFunding.sol\":613:621  compaign */\n  0x00\n    /* \"CrowdFunding/CrowdFunding.sol\":613:629  compaign.creator */\n  0x00\n  add\n  0x00\n    /* \"CrowdFunding/CrowdFunding.sol\":613:639  compaign.creator = creator */\n  0x0100\n  exp\n  dup2\n  sload\n  dup2\n  0xffffffffffffffffffffffffffffffffffffffff\n  mul\n  not\n  and\n  swap1\n  dup4\n  0xffffffffffffffffffffffffffffffffffffffff\n  and\n  mul\n  or\n  swap1\n  sstore\n  pop\n    /* \"CrowdFunding/CrowdFunding.sol\":665:669  goal */\n  dup2\n    /* \"CrowdFunding/CrowdFunding.sol\":649:657  compaign */\n  0x00\n    /* \"CrowdFunding/CrowdFunding.sol\":649:662  compaign.goal */\n  0x01\n  add\n    /* \"CrowdFunding/CrowdFunding.sol\":649:669  compaign.goal = goal */\n  dup2\n  swap1\n  sstore\n  pop\n    /* \"CrowdFunding/CrowdFunding.sol\":717:732  durationSeconds */\n  dup1\n    /* \"CrowdFunding/CrowdFunding.sol\":699:714  block.timestamp */\n  timestamp\n    /* \"CrowdFunding/CrowdFunding.sol\":699:732  block.timestamp + durationSeconds */\n  tag_6\n  swap2\n  swap1\n  tag_7\n  jump\t// in\ntag_6:\n    /* \"CrowdFunding/CrowdFunding.sol\":679:687  compaign */\n  0x00\n    /* \"CrowdFunding/CrowdFunding.sol\":679:696  compaign.deadline */\n  0x02\n  add\n    /* \"CrowdFunding/CrowdFunding.sol\":679:732  compaign.deadline = block.timestamp + durationSeconds */\n  dup2\n  swap1\n  sstore\n  pop\n    /* \"CrowdFunding/CrowdFunding.sol\":765:766  0 */\n  0x00\n    /* \"CrowdFunding/CrowdFunding.sol\":742:750  compaign */\n  0x00\n    /* \"CrowdFunding/CrowdFunding.sol\":742:762  compaign.totalRaised */\n  0x03\n  add\n    /* \"CrowdFunding/CrowdFunding.sol\":742:766  compaign.totalRaised = 0 */\n  dup2\n  swap1\n  sstore\n  pop\n    /* \"CrowdFunding/CrowdFunding.sol\":793:806  State.Funding */\n  0x00\n    /* \"CrowdFunding/CrowdFunding.sol\":776:784  compaign */\n  0x00\n    /* \"CrowdFunding/CrowdFunding.sol\":776:790  compaign.state */\n  0x04\n  add\n  0x00\n    /* \"CrowdFunding/CrowdFunding.sol\":776:806  compaign.state = State.Funding */\n  0x0100\n  exp\n  dup2\n  sload\n  dup2\n  0xff\n  mul\n  not\n  and\n  swap1\n  dup4\n  0x03\n  dup2\n  gt\n  iszero\n  tag_8\n  jumpi\n  tag_9\n  tag_10\n  jump\t// in\ntag_9:\ntag_8:\n  mul\n  or\n  swap1\n  sstore\n  pop\n    /* \"CrowdFunding/CrowdFunding.sol\":838:846  compaign */\n  0x00\n    /* \"CrowdFunding/CrowdFunding.sol\":838:854  compaign.creator */\n  0x00\n  add\n  0x00\n  swap1\n  sload\n  swap1\n  0x0100\n  exp\n  swap1\n  div\n  0xffffffffffffffffffffffffffffffffffffffff\n  and\n    /* \"CrowdFunding/CrowdFunding.sol\":822:880  CampaignCreated(compaign.creator, goal, compaign.deadline) */\n  0xffffffffffffffffffffffffffffffffffffffff\n  and\n  0x681f945f90ca3793b37315ed6a012353c82c1b37ca023ef835c746461359f552\n    /* \"CrowdFunding/CrowdFunding.sol\":856:860  goal */\n  dup4\n    /* \"CrowdFunding/CrowdFunding.sol\":862:870  compaign */\n  0x00\n    /* \"CrowdFunding/CrowdFunding.sol\":862:879  compaign.deadline */\n  0x02\n  add\n  sload\n    /* \"CrowdFunding/CrowdFunding.sol\":822:880  CampaignCreated(compaign.creator, goal, compaign.deadline) */\n  mload(0x40)\n  tag_11\n  swap3\n  swap2\n  swap1\n  tag_12\n  jump\t// in\ntag_11:\n  mload(0x40)\n  dup1\n  swap2\n  sub\n  swap1\n  log2\n    /* \"CrowdFunding/CrowdFunding.sol\":535:887  constructor(address creator, uint256 goal, uint256 durationSeconds) {... */\n  pop\n  pop\n  pop\n    /* \"CrowdFunding/CrowdFunding.sol\":59:3487  contract CrowdFunding {... */\n  jump(tag_13)\n    /* \"#utility.yul\":88:205   */\ntag_15:\n    /* \"#utility.yul\":197:198   */\n  0x00\n    /* \"#utility.yul\":194:195   */\n  0x00\n    /* \"#utility.yul\":187:199   */\n  revert\n    /* \"#utility.yul\":334:460   */\ntag_17:\n    /* \"#utility.yul\":371:378   */\n  0x00\n    /* \"#utility.yul\":411:453   */\n  0xffffffffffffffffffffffffffffffffffffffff\n    /* \"#utility.yul\":404:409   */\n  dup3\n    /* \"#utility.yul\":400:454   */\n  and\n    /* \"#utility.yul\":389:454   */\n  swap1\n  pop\n    /* \"#utility.yul\":334:460   */\n  swap2\n  swap1\n  pop\n  jump\t// out\n    /* \"#utility.yul\":466:562   */\ntag_18:\n    /* \"#utility.yul\":503:510   */\n  0x00\n    /* \"#utility.yul\":532:556   */\n  tag_32\n    /* \"#utility.yul\":550:555   */\n  dup3\n    /* \"#utility.yul\":532:556   */\n  tag_17\n  jump\t// in\ntag_32:\n    /* \"#utility.yul\":521:556   */\n  swap1\n  pop\n    /* \"#utility.yul\":466:562   */\n  swap2\n  swap1\n  pop\n  jump\t// out\n    /* \"#utility.yul\":568:690   */\ntag_19:\n    /* \"#utility.yul\":641:665   */\n  tag_34\n    /* \"#utility.yul\":659:664   */\n  dup2\n    /* \"#utility.yul\":641:665   */\n  tag_18\n  jump\t// in\ntag_34:\n    /* \"#utility.yul\":634:639   */\n  dup2\n    /* \"#utility.yul\":631:666   */\n  eq\n    /* \"#utility.yul\":621:684   */\n  tag_35\n  jumpi\n    /* \"#utility.yul\":680:681   */\n  0x00\n    /* \"#utility.yul\":677:678   */\n  0x00\n    /* \"#utility.yul\":670:682   */\n  revert\n    /* \"#utility.yul\":621:684   */\ntag_35:\n    /* \"#utility.yul\":568:690   */\n  pop\n  jump\t// out\n    /* \"#utility.yul\":696:839   */\ntag_20:\n    /* \"#utility.yul\":753:758   */\n  0x00\n    /* \"#utility.yul\":784:790   */\n  dup2\n    /* \"#utility.yul\":778:791   */\n  mload\n    /* \"#utility.yul\":769:791   */\n  swap1\n  pop\n    /* \"#utility.yul\":800:833   */\n  tag_37\n    /* \"#utility.yul\":827:832   */\n  dup2\n    /* \"#utility.yul\":800:833   */\n  tag_19\n  jump\t// in\ntag_37:\n    /* \"#utility.yul\":696:839   */\n  swap3\n  swap2\n  pop\n  pop\n  jump\t// out\n    /* \"#utility.yul\":845:922   */\ntag_21:\n    /* \"#utility.yul\":882:889   */\n  0x00\n    /* \"#utility.yul\":911:916   */\n  dup2\n    /* \"#utility.yul\":900:916   */\n  swap1\n  pop\n    /* \"#utility.yul\":845:922   */\n  swap2\n  swap1\n  pop\n  jump\t// out\n    /* \"#utility.yul\":928:1050   */\ntag_22:\n    /* \"#utility.yul\":1001:1025   */\n  tag_40\n    /* \"#utility.yul\":1019:1024   */\n  dup2\n    /* \"#utility.yul\":1001:1025   */\n  tag_21\n  jump\t// in\ntag_40:\n    /* \"#utility.yul\":994:999   */\n  dup2\n    /* \"#utility.yul\":991:1026   */\n  eq\n    /* \"#utility.yul\":981:1044   */\n  tag_41\n  jumpi\n    /* \"#utility.yul\":1040:1041   */\n  0x00\n    /* \"#utility.yul\":1037:1038   */\n  0x00\n    /* \"#utility.yul\":1030:1042   */\n  revert\n    /* \"#utility.yul\":981:1044   */\ntag_41:\n    /* \"#utility.yul\":928:1050   */\n  pop\n  jump\t// out\n    /* \"#utility.yul\":1056:1199   */\ntag_23:\n    /* \"#utility.yul\":1113:1118   */\n  0x00\n    /* \"#utility.yul\":1144:1150   */\n  dup2\n    /* \"#utility.yul\":1138:1151   */\n  mload\n    /* \"#utility.yul\":1129:1151   */\n  swap1\n  pop\n    /* \"#utility.yul\":1160:1193   */\n  tag_43\n    /* \"#utility.yul\":1187:1192   */\n  dup2\n    /* \"#utility.yul\":1160:1193   */\n  tag_22\n  jump\t// in\ntag_43:\n    /* \"#utility.yul\":1056:1199   */\n  swap3\n  swap2\n  pop\n  pop\n  jump\t// out\n    /* \"#utility.yul\":1205:1868   */\ntag_3:\n    /* \"#utility.yul\":1293:1299   */\n  0x00\n    /* \"#utility.yul\":1301:1307   */\n  0x00\n    /* \"#utility.yul\":1309:1315   */\n  0x00\n    /* \"#utility.yul\":1358:1360   */\n  0x60\n    /* \"#utility.yul\":1346:1355   */\n  dup5\n    /* \"#utility.yul\":1337:1344   */\n  dup7\n    /* \"#utility.yul\":1333:1356   */\n  sub\n    /* \"#utility.yul\":1329:1361   */\n  slt\n    /* \"#utility.yul\":1326:1445   */\n  iszero\n  tag_45\n  jumpi\n    /* \"#utility.yul\":1364:1443   */\n  tag_46\n  tag_15\n  jump\t// in\ntag_46:\n    /* \"#utility.yul\":1326:1445   */\ntag_45:\n    /* \"#utility.yul\":1484:1485   */\n  0x00\n    /* \"#utility.yul\":1509:1573   */\n  tag_47\n    /* \"#utility.yul\":1565:1572   */\n  dup7\n    /* \"#utility.yul\":1556:1562   */\n  dup3\n    /* \"#utility.yul\":1545:1554   */\n  dup8\n    /* \"#utility.yul\":1541:1563   */\n  add\n    /* \"#utility.yul\":1509:1573   */\n  tag_20\n  jump\t// in\ntag_47:\n    /* \"#utility.yul\":1499:1573   */\n  swap4\n  pop\n    /* \"#utility.yul\":1455:1583   */\n  pop\n    /* \"#utility.yul\":1622:1624   */\n  0x20\n    /* \"#utility.yul\":1648:1712   */\n  tag_48\n    /* \"#utility.yul\":1704:1711   */\n  dup7\n    /* \"#utility.yul\":1695:1701   */\n  dup3\n    /* \"#utility.yul\":1684:1693   */\n  dup8\n    /* \"#utility.yul\":1680:1702   */\n  add\n    /* \"#utility.yul\":1648:1712   */\n  tag_23\n  jump\t// in\ntag_48:\n    /* \"#utility.yul\":1638:1712   */\n  swap3\n  pop\n    /* \"#utility.yul\":1593:1722   */\n  pop\n    /* \"#utility.yul\":1761:1763   */\n  0x40\n    /* \"#utility.yul\":1787:1851   */\n  tag_49\n    /* \"#utility.yul\":1843:1850   */\n  dup7\n    /* \"#utility.yul\":1834:1840   */\n  dup3\n    /* \"#utility.yul\":1823:1832   */\n  dup8\n    /* \"#utility.yul\":1819:1841   */\n  add\n    /* \"#utility.yul\":1787:1851   */\n  tag_23\n  jump\t// in\ntag_49:\n    /* \"#utility.yul\":1777:1851   */\n  swap2\n  pop\n    /* \"#utility.yul\":1732:1861   */\n  pop\n    /* \"#utility.yul\":1205:1868   */\n  swap3\n  pop\n  swap3\n  pop\n  swap3\n  jump\t// out\n    /* \"#utility.yul\":1874:2054   */\ntag_24:\n    /* \"#utility.yul\":1922:1999   */\n  0x4e487b7100000000000000000000000000000000000000000000000000000000\n    /* \"#utility.yul\":1919:1920   */\n  0x00\n    /* \"#utility.yul\":1912:2000   */\n  mstore\n    /* \"#utility.yul\":2019:2023   */\n  0x11\n    /* \"#utility.yul\":2016:2017   */\n  0x04\n    /* \"#utility.yul\":2009:2024   */\n  mstore\n    /* \"#utility.yul\":2043:2047   */\n  0x24\n    /* \"#utility.yul\":2040:2041   */\n  0x00\n    /* \"#utility.yul\":2033:2048   */\n  revert\n    /* \"#utility.yul\":2060:2251   */\ntag_7:\n    /* \"#utility.yul\":2100:2103   */\n  0x00\n    /* \"#utility.yul\":2119:2139   */\n  tag_52\n    /* \"#utility.yul\":2137:2138   */\n  dup3\n    /* \"#utility.yul\":2119:2139   */\n  tag_21\n  jump\t// in\ntag_52:\n    /* \"#utility.yul\":2114:2139   */\n  swap2\n  pop\n    /* \"#utility.yul\":2153:2173   */\n  tag_53\n    /* \"#utility.yul\":2171:2172   */\n  dup4\n    /* \"#utility.yul\":2153:2173   */\n  tag_21\n  jump\t// in\ntag_53:\n    /* \"#utility.yul\":2148:2173   */\n  swap3\n  pop\n    /* \"#utility.yul\":2196:2197   */\n  dup3\n    /* \"#utility.yul\":2193:2194   */\n  dup3\n    /* \"#utility.yul\":2189:2198   */\n  add\n    /* \"#utility.yul\":2182:2198   */\n  swap1\n  pop\n    /* \"#utility.yul\":2217:2220   */\n  dup1\n    /* \"#utility.yul\":2214:2215   */\n  dup3\n    /* \"#utility.yul\":2211:2221   */\n  gt\n    /* \"#utility.yul\":2208:2244   */\n  iszero\n  tag_54\n  jumpi\n    /* \"#utility.yul\":2224:2242   */\n  tag_55\n  tag_24\n  jump\t// in\ntag_55:\n    /* \"#utility.yul\":2208:2244   */\ntag_54:\n    /* \"#utility.yul\":2060:2251   */\n  swap3\n  swap2\n  pop\n  pop\n  jump\t// out\n    /* \"#utility.yul\":2257:2437   */\ntag_10:\n    /* \"#utility.yul\":2305:2382   */\n  0x4e487b7100000000000000000000000000000000000000000000000000000000\n    /* \"#utility.yul\":2302:2303   */\n  0x00\n    /* \"#utility.yul\":2295:2383   */\n  mstore\n    /* \"#utility.yul\":2402:2406   */\n  0x21\n    /* \"#utility.yul\":2399:2400   */\n  0x04\n    /* \"#utility.yul\":2392:2407   */\n  mstore\n    /* \"#utility.yul\":2426:2430   */\n  0x24\n    /* \"#utility.yul\":2423:2424   */\n  0x00\n    /* \"#utility.yul\":2416:2431   */\n  revert\n    /* \"#utility.yul\":2443:2561   */\ntag_25:\n    /* \"#utility.yul\":2530:2554   */\n  tag_58\n    /* \"#utility.yul\":2548:2553   */\n  dup2\n    /* \"#utility.yul\":2530:2554   */\n  tag_21\n  jump\t// in\ntag_58:\n    /* \"#utility.yul\":2525:2528   */\n  dup3\n    /* \"#utility.yul\":2518:2555   */\n  mstore\n    /* \"#utility.yul\":2443:2561   */\n  pop\n  pop\n  jump\t// out\n    /* \"#utility.yul\":2567:2899   */\ntag_12:\n    /* \"#utility.yul\":2688:2692   */\n  0x00\n    /* \"#utility.yul\":2726:2728   */\n  0x40\n    /* \"#utility.yul\":2715:2724   */\n  dup3\n    /* \"#utility.yul\":2711:2729   */\n  add\n    /* \"#utility.yul\":2703:2729   */\n  swap1\n  pop\n    /* \"#utility.yul\":2739:2810   */\n  tag_60\n    /* \"#utility.yul\":2807:2808   */\n  0x00\n    /* \"#utility.yul\":2796:2805   */\n  dup4\n    /* \"#utility.yul\":2792:2809   */\n  add\n    /* \"#utility.yul\":2783:2789   */\n  dup6\n    /* \"#utility.yul\":2739:2810   */\n  tag_25\n  jump\t// in\ntag_60:\n    /* \"#utility.yul\":2820:2892   */\n  tag_61\n    /* \"#utility.yul\":2888:2890   */\n  0x20\n    /* \"#utility.yul\":2877:2886   */\n  dup4\n    /* \"#utility.yul\":2873:2891   */\n  add\n    /* \"#utility.yul\":2864:2870   */\n  dup5\n    /* \"#utility.yul\":2820:2892   */\n  tag_25\n  jump\t// in\ntag_61:\n    /* \"#utility.yul\":2567:2899   */\n  swap4\n  swap3\n  pop\n  pop\n  pop\n  jump\t// out\n    /* \"CrowdFunding/CrowdFunding.sol\":59:3487  contract CrowdFunding {... */\ntag_13:\n  dataSize(sub_0)\n  dup1\n  dataOffset(sub_0)\n  0x00\n  codecopy\n  0x00\n  return\nstop\n\nsub_0: assembly {\n        /* \"CrowdFunding/CrowdFunding.sol\":59:3487  contract CrowdFunding {... */\n      mstore(0x40, 0x80)\n      jumpi(tag_1, lt(calldatasize, 0x04))\n      shr(0xe0, calldataload(0x00))\n      dup1\n      0x3ccfd60b\n      eq\n      tag_2\n      jumpi\n      dup1\n      0x4bb278f3\n      eq\n      tag_3\n      jumpi\n      dup1\n      0x590e1ae3\n      eq\n      tag_4\n      jumpi\n      dup1\n      0xd7bb99ba\n      eq\n      tag_5\n      jumpi\n    tag_1:\n      revert(0x00, 0x00)\n        /* \"CrowdFunding/CrowdFunding.sol\":2419:2988  function withdraw()public payable    {... */\n    tag_2:\n      tag_6\n      tag_7\n      jump\t// in\n    tag_6:\n      stop\n        /* \"CrowdFunding/CrowdFunding.sol\":2133:2386  function finalize() public  {... */\n    tag_3:\n      callvalue\n      dup1\n      iszero\n      tag_8\n      jumpi\n      revert(0x00, 0x00)\n    tag_8:\n      pop\n      tag_9\n      tag_10\n      jump\t// in\n    tag_9:\n      stop\n        /* \"CrowdFunding/CrowdFunding.sol\":3008:3485  function refund() public payable {... */\n    tag_4:\n      tag_11\n      tag_12\n      jump\t// in\n    tag_11:\n      stop\n        /* \"CrowdFunding/CrowdFunding.sol\":1321:2089  function contribute() public  payable {... */\n    tag_5:\n      tag_13\n      tag_14\n      jump\t// in\n    tag_13:\n      stop\n        /* \"CrowdFunding/CrowdFunding.sol\":2419:2988  function withdraw()public payable    {... */\n    tag_7:\n        /* \"CrowdFunding/CrowdFunding.sol\":2501:2509  compaign */\n      0x00\n        /* \"CrowdFunding/CrowdFunding.sol\":2501:2517  compaign.creator */\n      0x00\n      add\n      0x00\n      swap1\n      sload\n      swap1\n      0x0100\n      exp\n      swap1\n      div\n      0xffffffffffffffffffffffffffffffffffffffff\n      and\n        /* \"CrowdFunding/CrowdFunding.sol\":2487:2517  msg.sender == compaign.creator */\n      0xffffffffffffffffffffffffffffffffffffffff\n      and\n        /* \"CrowdFunding/CrowdFunding.sol\":2487:2497  msg.sender */\n      caller\n        /* \"CrowdFunding/CrowdFunding.sol\":2487:2517  msg.sender == compaign.creator */\n      0xffffffffffffffffffffffffffffffffffffffff\n      and\n      eq\n        /* \"CrowdFunding/CrowdFunding.sol\":2466:2579  require(... */\n      tag_16\n      jumpi\n      mload(0x40)\n      0x08c379a000000000000000000000000000000000000000000000000000000000\n      dup2\n      mstore\n      0x04\n      add\n      tag_17\n      swap1\n      tag_18\n      jump\t// in\n    tag_17:\n      mload(0x40)\n      dup1\n      swap2\n      sub\n      swap1\n      revert\n    tag_16:\n        /* \"CrowdFunding/CrowdFunding.sol\":2628:2644  State.Successful */\n      0x01\n        /* \"CrowdFunding/CrowdFunding.sol\":2610:2644  compaign.state == State.Successful */\n      0x03\n      dup2\n      gt\n      iszero\n      tag_19\n      jumpi\n      tag_20\n      tag_21\n      jump\t// in\n    tag_20:\n    tag_19:\n        /* \"CrowdFunding/CrowdFunding.sol\":2610:2618  compaign */\n      0x00\n        /* \"CrowdFunding/CrowdFunding.sol\":2610:2624  compaign.state */\n      0x04\n      add\n      0x00\n      swap1\n      sload\n      swap1\n      0x0100\n      exp\n      swap1\n      div\n      0xff\n      and\n        /* \"CrowdFunding/CrowdFunding.sol\":2610:2644  compaign.state == State.Successful */\n      0x03\n      dup2\n      gt\n      iszero\n      tag_22\n      jumpi\n      tag_23\n      tag_21\n      jump\t// in\n    tag_23:\n    tag_22:\n      eq\n        /* \"CrowdFunding/CrowdFunding.sol\":2589:2700  require(... */\n      tag_24\n      jumpi\n      mload(0x40)\n      0x08c379a000000000000000000000000000000000000000000000000000000000\n      dup2\n      mstore\n      0x04\n      add\n      tag_25\n      swap1\n      tag_26\n      jump\t// in\n    tag_25:\n      mload(0x40)\n      dup1\n      swap2\n      sub\n      swap1\n      revert\n    tag_24:\n        /* \"CrowdFunding/CrowdFunding.sol\":2741:2742  0 */\n      0x00\n        /* \"CrowdFunding/CrowdFunding.sol\":2718:2726  compaign */\n      0x00\n        /* \"CrowdFunding/CrowdFunding.sol\":2718:2738  compaign.totalRaised */\n      0x03\n      add\n      sload\n        /* \"CrowdFunding/CrowdFunding.sol\":2718:2742  compaign.totalRaised > 0 */\n      gt\n        /* \"CrowdFunding/CrowdFunding.sol\":2718:2758  compaign.totalRaised > 0 && !isWithdrawn */\n      dup1\n      iszero\n      tag_27\n      jumpi\n      pop\n        /* \"CrowdFunding/CrowdFunding.sol\":2747:2758  isWithdrawn */\n      0x06\n      0x00\n      swap1\n      sload\n      swap1\n      0x0100\n      exp\n      swap1\n      div\n      0xff\n      and\n        /* \"CrowdFunding/CrowdFunding.sol\":2746:2758  !isWithdrawn */\n      iszero\n        /* \"CrowdFunding/CrowdFunding.sol\":2718:2758  compaign.totalRaised > 0 && !isWithdrawn */\n    tag_27:\n        /* \"CrowdFunding/CrowdFunding.sol\":2710:2790  require(compaign.totalRaised > 0 && !isWithdrawn , \"Withdrawn is not possible!\") */\n      tag_28\n      jumpi\n      mload(0x40)\n      0x08c379a000000000000000000000000000000000000000000000000000000000\n      dup2\n      mstore\n      0x04\n      add\n      tag_29\n      swap1\n      tag_30\n      jump\t// in\n    tag_29:\n      mload(0x40)\n      dup1\n      swap2\n      sub\n      swap1\n      revert\n    tag_28:\n        /* \"CrowdFunding/CrowdFunding.sol\":2801:2813  bool success */\n      0x00\n        /* \"CrowdFunding/CrowdFunding.sol\":2821:2831  msg.sender */\n      caller\n        /* \"CrowdFunding/CrowdFunding.sol\":2821:2836  msg.sender.call */\n      0xffffffffffffffffffffffffffffffffffffffff\n      and\n        /* \"CrowdFunding/CrowdFunding.sol\":2845:2853  compaign */\n      0x00\n        /* \"CrowdFunding/CrowdFunding.sol\":2845:2865  compaign.totalRaised */\n      0x03\n      add\n      sload\n        /* \"CrowdFunding/CrowdFunding.sol\":2821:2870  msg.sender.call{value : compaign.totalRaised}(\"\") */\n      mload(0x40)\n      tag_31\n      swap1\n      tag_32\n      jump\t// in\n    tag_31:\n      0x00\n      mload(0x40)\n      dup1\n      dup4\n      sub\n      dup2\n      dup6\n      dup8\n      gas\n      call\n      swap3\n      pop\n      pop\n      pop\n      returndatasize\n      dup1\n      0x00\n      dup2\n      eq\n      tag_35\n      jumpi\n      mload(0x40)\n      swap2\n      pop\n      and(add(returndatasize, 0x3f), not(0x1f))\n      dup3\n      add\n      0x40\n      mstore\n      returndatasize\n      dup3\n      mstore\n      returndatasize\n      0x00\n      0x20\n      dup5\n      add\n      returndatacopy\n      jump(tag_34)\n    tag_35:\n      0x60\n      swap2\n      pop\n    tag_34:\n      pop\n        /* \"CrowdFunding/CrowdFunding.sol\":2800:2870  (bool success , ) =  msg.sender.call{value : compaign.totalRaised}(\"\") */\n      pop\n      swap1\n      pop\n        /* \"CrowdFunding/CrowdFunding.sol\":2888:2895  success */\n      dup1\n        /* \"CrowdFunding/CrowdFunding.sol\":2880:2923  require(success , \"ETH withdrawal failed!\") */\n      tag_36\n      jumpi\n      mload(0x40)\n      0x08c379a000000000000000000000000000000000000000000000000000000000\n      dup2\n      mstore\n      0x04\n      add\n      tag_37\n      swap1\n      tag_38\n      jump\t// in\n    tag_37:\n      mload(0x40)\n      dup1\n      swap2\n      sub\n      swap1\n      revert\n    tag_36:\n        /* \"CrowdFunding/CrowdFunding.sol\":2948:2958  msg.sender */\n      caller\n        /* \"CrowdFunding/CrowdFunding.sol\":2938:2981  Withdrawn(msg.sender, compaign.totalRaised) */\n      0xffffffffffffffffffffffffffffffffffffffff\n      and\n      0x7084f5476618d8e60b11ef0d7d3f06914655adb8793e28ff7f018d4c76d505d5\n        /* \"CrowdFunding/CrowdFunding.sol\":2960:2968  compaign */\n      0x00\n        /* \"CrowdFunding/CrowdFunding.sol\":2960:2980  compaign.totalRaised */\n      0x03\n      add\n      sload\n        /* \"CrowdFunding/CrowdFunding.sol\":2938:2981  Withdrawn(msg.sender, compaign.totalRaised) */\n      mload(0x40)\n      tag_39\n      swap2\n      swap1\n      tag_40\n      jump\t// in\n    tag_39:\n      mload(0x40)\n      dup1\n      swap2\n      sub\n      swap1\n      log2\n        /* \"CrowdFunding/CrowdFunding.sol\":2456:2988  {... */\n      pop\n        /* \"CrowdFunding/CrowdFunding.sol\":2419:2988  function withdraw()public payable    {... */\n      jump\t// out\n        /* \"CrowdFunding/CrowdFunding.sol\":2133:2386  function finalize() public  {... */\n    tag_10:\n        /* \"CrowdFunding/CrowdFunding.sol\":2197:2205  compaign */\n      0x00\n        /* \"CrowdFunding/CrowdFunding.sol\":2197:2214  compaign.deadline */\n      0x02\n      add\n      sload\n        /* \"CrowdFunding/CrowdFunding.sol\":2179:2194  block.timestamp */\n      timestamp\n        /* \"CrowdFunding/CrowdFunding.sol\":2179:2214  block.timestamp > compaign.deadline */\n      gt\n        /* \"CrowdFunding/CrowdFunding.sol\":2171:2250  require(block.timestamp > compaign.deadline , \"compaign is still in progress!\") */\n      tag_42\n      jumpi\n      mload(0x40)\n      0x08c379a000000000000000000000000000000000000000000000000000000000\n      dup2\n      mstore\n      0x04\n      add\n      tag_43\n      swap1\n      tag_44\n      jump\t// in\n    tag_43:\n      mload(0x40)\n      dup1\n      swap2\n      sub\n      swap1\n      revert\n    tag_42:\n        /* \"CrowdFunding/CrowdFunding.sol\":2287:2295  compaign */\n      0x00\n        /* \"CrowdFunding/CrowdFunding.sol\":2287:2300  compaign.goal */\n      0x01\n      add\n      sload\n        /* \"CrowdFunding/CrowdFunding.sol\":2263:2271  compaign */\n      0x00\n        /* \"CrowdFunding/CrowdFunding.sol\":2263:2283  compaign.totalRaised */\n      0x03\n      add\n      sload\n        /* \"CrowdFunding/CrowdFunding.sol\":2263:2300  compaign.totalRaised >= compaign.goal */\n      lt\n        /* \"CrowdFunding/CrowdFunding.sol\":2260:2379  if(compaign.totalRaised >= compaign.goal) compaign.state = State.Successful;... */\n      tag_45\n      jumpi\n        /* \"CrowdFunding/CrowdFunding.sol\":2319:2335  State.Successful */\n      0x01\n        /* \"CrowdFunding/CrowdFunding.sol\":2302:2310  compaign */\n      0x00\n        /* \"CrowdFunding/CrowdFunding.sol\":2302:2316  compaign.state */\n      0x04\n      add\n      0x00\n        /* \"CrowdFunding/CrowdFunding.sol\":2302:2335  compaign.state = State.Successful */\n      0x0100\n      exp\n      dup2\n      sload\n      dup2\n      0xff\n      mul\n      not\n      and\n      swap1\n      dup4\n      0x03\n      dup2\n      gt\n      iszero\n      tag_46\n      jumpi\n      tag_47\n      tag_21\n      jump\t// in\n    tag_47:\n    tag_46:\n      mul\n      or\n      swap1\n      sstore\n      pop\n        /* \"CrowdFunding/CrowdFunding.sol\":2260:2379  if(compaign.totalRaised >= compaign.goal) compaign.state = State.Successful;... */\n      jump(tag_48)\n    tag_45:\n        /* \"CrowdFunding/CrowdFunding.sol\":2367:2379  State.Failed */\n      0x02\n        /* \"CrowdFunding/CrowdFunding.sol\":2350:2358  compaign */\n      0x00\n        /* \"CrowdFunding/CrowdFunding.sol\":2350:2364  compaign.state */\n      0x04\n      add\n      0x00\n        /* \"CrowdFunding/CrowdFunding.sol\":2350:2379  compaign.state = State.Failed */\n      0x0100\n      exp\n      dup2\n      sload\n      dup2\n      0xff\n      mul\n      not\n      and\n      swap1\n      dup4\n      0x03\n      dup2\n      gt\n      iszero\n      tag_49\n      jumpi\n      tag_50\n      tag_21\n      jump\t// in\n    tag_50:\n    tag_49:\n      mul\n      or\n      swap1\n      sstore\n      pop\n        /* \"CrowdFunding/CrowdFunding.sol\":2260:2379  if(compaign.totalRaised >= compaign.goal) compaign.state = State.Successful;... */\n    tag_48:\n        /* \"CrowdFunding/CrowdFunding.sol\":2133:2386  function finalize() public  {... */\n      jump\t// out\n        /* \"CrowdFunding/CrowdFunding.sol\":3008:3485  function refund() public payable {... */\n    tag_12:\n        /* \"CrowdFunding/CrowdFunding.sol\":3077:3089  State.Failed */\n      0x02\n        /* \"CrowdFunding/CrowdFunding.sol\":3059:3089  compaign.state == State.Failed */\n      0x03\n      dup2\n      gt\n      iszero\n      tag_52\n      jumpi\n      tag_53\n      tag_21\n      jump\t// in\n    tag_53:\n    tag_52:\n        /* \"CrowdFunding/CrowdFunding.sol\":3059:3067  compaign */\n      0x00\n        /* \"CrowdFunding/CrowdFunding.sol\":3059:3073  compaign.state */\n      0x04\n      add\n      0x00\n      swap1\n      sload\n      swap1\n      0x0100\n      exp\n      swap1\n      div\n      0xff\n      and\n        /* \"CrowdFunding/CrowdFunding.sol\":3059:3089  compaign.state == State.Failed */\n      0x03\n      dup2\n      gt\n      iszero\n      tag_54\n      jumpi\n      tag_55\n      tag_21\n      jump\t// in\n    tag_55:\n    tag_54:\n      eq\n        /* \"CrowdFunding/CrowdFunding.sol\":3051:3121  require(compaign.state == State.Failed , \"compaign state is not fail\") */\n      tag_56\n      jumpi\n      mload(0x40)\n      0x08c379a000000000000000000000000000000000000000000000000000000000\n      dup2\n      mstore\n      0x04\n      add\n      tag_57\n      swap1\n      tag_58\n      jump\t// in\n    tag_57:\n      mload(0x40)\n      dup1\n      swap2\n      sub\n      swap1\n      revert\n    tag_56:\n        /* \"CrowdFunding/CrowdFunding.sol\":3175:3176  0 */\n      0x00\n        /* \"CrowdFunding/CrowdFunding.sol\":3139:3147  compaign */\n      0x00\n        /* \"CrowdFunding/CrowdFunding.sol\":3139:3160  compaign.contribution */\n      0x05\n      add\n        /* \"CrowdFunding/CrowdFunding.sol\":3139:3172  compaign.contribution[msg.sender] */\n      0x00\n        /* \"CrowdFunding/CrowdFunding.sol\":3161:3171  msg.sender */\n      caller\n        /* \"CrowdFunding/CrowdFunding.sol\":3139:3172  compaign.contribution[msg.sender] */\n      0xffffffffffffffffffffffffffffffffffffffff\n      and\n      0xffffffffffffffffffffffffffffffffffffffff\n      and\n      dup2\n      mstore\n      0x20\n      add\n      swap1\n      dup2\n      mstore\n      0x20\n      add\n      0x00\n      keccak256\n      sload\n        /* \"CrowdFunding/CrowdFunding.sol\":3139:3176  compaign.contribution[msg.sender] > 0 */\n      gt\n        /* \"CrowdFunding/CrowdFunding.sol\":3131:3217  require(compaign.contribution[msg.sender] > 0, \"you are not contributor for compaign\") */\n      tag_59\n      jumpi\n      mload(0x40)\n      0x08c379a000000000000000000000000000000000000000000000000000000000\n      dup2\n      mstore\n      0x04\n      add\n      tag_60\n      swap1\n      tag_61\n      jump\t// in\n    tag_60:\n      mload(0x40)\n      dup1\n      swap2\n      sub\n      swap1\n      revert\n    tag_59:\n        /* \"CrowdFunding/CrowdFunding.sol\":3228:3242  uint256 amount */\n      0x00\n        /* \"CrowdFunding/CrowdFunding.sol\":3245:3253  compaign */\n      0x00\n        /* \"CrowdFunding/CrowdFunding.sol\":3245:3266  compaign.contribution */\n      0x05\n      add\n        /* \"CrowdFunding/CrowdFunding.sol\":3245:3278  compaign.contribution[msg.sender] */\n      0x00\n        /* \"CrowdFunding/CrowdFunding.sol\":3267:3277  msg.sender */\n      caller\n        /* \"CrowdFunding/CrowdFunding.sol\":3245:3278  compaign.contribution[msg.sender] */\n      0xffffffffffffffffffffffffffffffffffffffff\n      and\n      0xffffffffffffffffffffffffffffffffffffffff\n      and\n      dup2\n      mstore\n      0x20\n      add\n      swap1\n      dup2\n      mstore\n      0x20\n      add\n      0x00\n      keccak256\n      sload\n        /* \"CrowdFunding/CrowdFunding.sol\":3228:3278  uint256 amount = compaign.contribution[msg.sender] */\n      swap1\n      pop\n        /* \"CrowdFunding/CrowdFunding.sol\":3324:3325  0 */\n      0x00\n        /* \"CrowdFunding/CrowdFunding.sol\":3288:3296  compaign */\n      0x00\n        /* \"CrowdFunding/CrowdFunding.sol\":3288:3309  compaign.contribution */\n      0x05\n      add\n        /* \"CrowdFunding/CrowdFunding.sol\":3288:3321  compaign.contribution[msg.sender] */\n      0x00\n        /* \"CrowdFunding/CrowdFunding.sol\":3310:3320  msg.sender */\n      caller\n        /* \"CrowdFunding/CrowdFunding.sol\":3288:3321  compaign.contribution[msg.sender] */\n      0xffffffffffffffffffffffffffffffffffffffff\n      and\n      0xffffffffffffffffffffffffffffffffffffffff\n      and\n      dup2\n      mstore\n      0x20\n      add\n      swap1\n      dup2\n      mstore\n      0x20\n      add\n      0x00\n      keccak256\n        /* \"CrowdFunding/CrowdFunding.sol\":3288:3325  compaign.contribution[msg.sender] = 0 */\n      dup2\n      swap1\n      sstore\n      pop\n        /* \"CrowdFunding/CrowdFunding.sol\":3336:3348  bool success */\n      0x00\n        /* \"CrowdFunding/CrowdFunding.sol\":3356:3366  msg.sender */\n      caller\n        /* \"CrowdFunding/CrowdFunding.sol\":3356:3371  msg.sender.call */\n      0xffffffffffffffffffffffffffffffffffffffff\n      and\n        /* \"CrowdFunding/CrowdFunding.sol\":3380:3386  amount */\n      dup3\n        /* \"CrowdFunding/CrowdFunding.sol\":3356:3391  msg.sender.call{value : amount}(\"\") */\n      mload(0x40)\n      tag_62\n      swap1\n      tag_32\n      jump\t// in\n    tag_62:\n      0x00\n      mload(0x40)\n      dup1\n      dup4\n      sub\n      dup2\n      dup6\n      dup8\n      gas\n      call\n      swap3\n      pop\n      pop\n      pop\n      returndatasize\n      dup1\n      0x00\n      dup2\n      eq\n      tag_65\n      jumpi\n      mload(0x40)\n      swap2\n      pop\n      and(add(returndatasize, 0x3f), not(0x1f))\n      dup3\n      add\n      0x40\n      mstore\n      returndatasize\n      dup3\n      mstore\n      returndatasize\n      0x00\n      0x20\n      dup5\n      add\n      returndatacopy\n      jump(tag_64)\n    tag_65:\n      0x60\n      swap2\n      pop\n    tag_64:\n      pop\n        /* \"CrowdFunding/CrowdFunding.sol\":3335:3391  (bool success , ) =  msg.sender.call{value : amount}(\"\") */\n      pop\n      swap1\n      pop\n        /* \"CrowdFunding/CrowdFunding.sol\":3409:3416  success */\n      dup1\n        /* \"CrowdFunding/CrowdFunding.sol\":3401:3436  require(success , \"Error occured!\") */\n      tag_66\n      jumpi\n      mload(0x40)\n      0x08c379a000000000000000000000000000000000000000000000000000000000\n      dup2\n      mstore\n      0x04\n      add\n      tag_67\n      swap1\n      tag_68\n      jump\t// in\n    tag_67:\n      mload(0x40)\n      dup1\n      swap2\n      sub\n      swap1\n      revert\n    tag_66:\n        /* \"CrowdFunding/CrowdFunding.sol\":3458:3468  msg.sender */\n      caller\n        /* \"CrowdFunding/CrowdFunding.sol\":3451:3477  Refund(msg.sender, amount) */\n      0xffffffffffffffffffffffffffffffffffffffff\n      and\n      0xbb28353e4598c3b9199101a66e0989549b659a59a54d2c27fbb183f1932c8e6d\n        /* \"CrowdFunding/CrowdFunding.sol\":3470:3476  amount */\n      dup4\n        /* \"CrowdFunding/CrowdFunding.sol\":3451:3477  Refund(msg.sender, amount) */\n      mload(0x40)\n      tag_69\n      swap2\n      swap1\n      tag_40\n      jump\t// in\n    tag_69:\n      mload(0x40)\n      dup1\n      swap2\n      sub\n      swap1\n      log2\n        /* \"CrowdFunding/CrowdFunding.sol\":3041:3485  {... */\n      pop\n      pop\n        /* \"CrowdFunding/CrowdFunding.sol\":3008:3485  function refund() public payable {... */\n      jump\t// out\n        /* \"CrowdFunding/CrowdFunding.sol\":1321:2089  function contribute() public  payable {... */\n    tag_14:\n        /* \"CrowdFunding/CrowdFunding.sol\":1404:1412  compaign */\n      0x00\n        /* \"CrowdFunding/CrowdFunding.sol\":1404:1420  compaign.creator */\n      0x00\n      add\n      0x00\n      swap1\n      sload\n      swap1\n      0x0100\n      exp\n      swap1\n      div\n      0xffffffffffffffffffffffffffffffffffffffff\n      and\n        /* \"CrowdFunding/CrowdFunding.sol\":1390:1420  msg.sender != compaign.creator */\n      0xffffffffffffffffffffffffffffffffffffffff\n      and\n        /* \"CrowdFunding/CrowdFunding.sol\":1390:1400  msg.sender */\n      caller\n        /* \"CrowdFunding/CrowdFunding.sol\":1390:1420  msg.sender != compaign.creator */\n      0xffffffffffffffffffffffffffffffffffffffff\n      and\n      sub\n        /* \"CrowdFunding/CrowdFunding.sol\":1369:1493  require(... */\n      tag_71\n      jumpi\n      mload(0x40)\n      0x08c379a000000000000000000000000000000000000000000000000000000000\n      dup2\n      mstore\n      0x04\n      add\n      tag_72\n      swap1\n      tag_73\n      jump\t// in\n    tag_72:\n      mload(0x40)\n      dup1\n      swap2\n      sub\n      swap1\n      revert\n    tag_71:\n        /* \"CrowdFunding/CrowdFunding.sol\":1542:1555  State.Funding */\n      0x00\n        /* \"CrowdFunding/CrowdFunding.sol\":1524:1555  compaign.state == State.Funding */\n      0x03\n      dup2\n      gt\n      iszero\n      tag_74\n      jumpi\n      tag_75\n      tag_21\n      jump\t// in\n    tag_75:\n    tag_74:\n        /* \"CrowdFunding/CrowdFunding.sol\":1524:1532  compaign */\n      0x00\n        /* \"CrowdFunding/CrowdFunding.sol\":1524:1538  compaign.state */\n      0x04\n      add\n      0x00\n      swap1\n      sload\n      swap1\n      0x0100\n      exp\n      swap1\n      div\n      0xff\n      and\n        /* \"CrowdFunding/CrowdFunding.sol\":1524:1555  compaign.state == State.Funding */\n      0x03\n      dup2\n      gt\n      iszero\n      tag_76\n      jumpi\n      tag_77\n      tag_21\n      jump\t// in\n    tag_77:\n    tag_76:\n      eq\n        /* \"CrowdFunding/CrowdFunding.sol\":1503:1620  require(... */\n      tag_78\n      jumpi\n      mload(0x40)\n      0x08c379a000000000000000000000000000000000000000000000000000000000\n      dup2\n      mstore\n      0x04\n      add\n      tag_79\n      swap1\n      tag_80\n      jump\t// in\n    tag_79:\n      mload(0x40)\n      dup1\n      swap2\n      sub\n      swap1\n      revert\n    tag_78:\n        /* \"CrowdFunding/CrowdFunding.sol\":1657:1665  compaign */\n      0x00\n        /* \"CrowdFunding/CrowdFunding.sol\":1657:1674  compaign.deadline */\n      0x02\n      add\n      sload\n        /* \"CrowdFunding/CrowdFunding.sol\":1639:1654  block.timestamp */\n      timestamp\n        /* \"CrowdFunding/CrowdFunding.sol\":1639:1674  block.timestamp < compaign.deadline */\n      lt\n        /* \"CrowdFunding/CrowdFunding.sol\":1631:1695  require(block.timestamp < compaign.deadline, \"deadline missed!\") */\n      tag_81\n      jumpi\n      mload(0x40)\n      0x08c379a000000000000000000000000000000000000000000000000000000000\n      dup2\n      mstore\n      0x04\n      add\n      tag_82\n      swap1\n      tag_83\n      jump\t// in\n    tag_82:\n      mload(0x40)\n      dup1\n      swap2\n      sub\n      swap1\n      revert\n    tag_81:\n        /* \"CrowdFunding/CrowdFunding.sol\":1726:1727  0 */\n      0x00\n        /* \"CrowdFunding/CrowdFunding.sol\":1714:1723  msg.value */\n      callvalue\n        /* \"CrowdFunding/CrowdFunding.sol\":1714:1727  msg.value > 0 */\n      gt\n        /* \"CrowdFunding/CrowdFunding.sol\":1706:1763  require(msg.value > 0 , \"Amount of contibution is zero!\") */\n      tag_84\n      jumpi\n      mload(0x40)\n      0x08c379a000000000000000000000000000000000000000000000000000000000\n      dup2\n      mstore\n      0x04\n      add\n      tag_85\n      swap1\n      tag_86\n      jump\t// in\n    tag_85:\n      mload(0x40)\n      dup1\n      swap2\n      sub\n      swap1\n      revert\n    tag_84:\n        /* \"CrowdFunding/CrowdFunding.sol\":1810:1819  msg.value */\n      callvalue\n        /* \"CrowdFunding/CrowdFunding.sol\":1773:1781  compaign */\n      0x00\n        /* \"CrowdFunding/CrowdFunding.sol\":1773:1794  compaign.contribution */\n      0x05\n      add\n        /* \"CrowdFunding/CrowdFunding.sol\":1773:1806  compaign.contribution[msg.sender] */\n      0x00\n        /* \"CrowdFunding/CrowdFunding.sol\":1795:1805  msg.sender */\n      caller\n        /* \"CrowdFunding/CrowdFunding.sol\":1773:1806  compaign.contribution[msg.sender] */\n      0xffffffffffffffffffffffffffffffffffffffff\n      and\n      0xffffffffffffffffffffffffffffffffffffffff\n      and\n      dup2\n      mstore\n      0x20\n      add\n      swap1\n      dup2\n      mstore\n      0x20\n      add\n      0x00\n      keccak256\n      0x00\n        /* \"CrowdFunding/CrowdFunding.sol\":1773:1819  compaign.contribution[msg.sender] += msg.value */\n      dup3\n      dup3\n      sload\n      tag_87\n      swap2\n      swap1\n      tag_88\n      jump\t// in\n    tag_87:\n      swap3\n      pop\n      pop\n      dup2\n      swap1\n      sstore\n      pop\n        /* \"CrowdFunding/CrowdFunding.sol\":1853:1862  msg.value */\n      callvalue\n        /* \"CrowdFunding/CrowdFunding.sol\":1829:1837  compaign */\n      0x00\n        /* \"CrowdFunding/CrowdFunding.sol\":1829:1849  compaign.totalRaised */\n      0x03\n      add\n      0x00\n        /* \"CrowdFunding/CrowdFunding.sol\":1829:1862  compaign.totalRaised += msg.value */\n      dup3\n      dup3\n      sload\n      tag_89\n      swap2\n      swap1\n      tag_88\n      jump\t// in\n    tag_89:\n      swap3\n      pop\n      pop\n      dup2\n      swap1\n      sstore\n      pop\n        /* \"CrowdFunding/CrowdFunding.sol\":1872:1886  bool isSuccess */\n      0x00\n        /* \"CrowdFunding/CrowdFunding.sol\":1913:1921  compaign */\n      0x00\n        /* \"CrowdFunding/CrowdFunding.sol\":1913:1926  compaign.goal */\n      0x01\n      add\n      sload\n        /* \"CrowdFunding/CrowdFunding.sol\":1889:1897  compaign */\n      0x00\n        /* \"CrowdFunding/CrowdFunding.sol\":1889:1909  compaign.totalRaised */\n      0x03\n      add\n      sload\n        /* \"CrowdFunding/CrowdFunding.sol\":1889:1926  compaign.totalRaised >= compaign.goal */\n      lt\n      iszero\n        /* \"CrowdFunding/CrowdFunding.sol\":1872:1926  bool isSuccess = compaign.totalRaised >= compaign.goal */\n      swap1\n      pop\n        /* \"CrowdFunding/CrowdFunding.sol\":1939:1948  isSuccess */\n      dup1\n        /* \"CrowdFunding/CrowdFunding.sol\":1936:1983  if(isSuccess) compaign.state = State.Successful */\n      iszero\n      tag_90\n      jumpi\n        /* \"CrowdFunding/CrowdFunding.sol\":1967:1983  State.Successful */\n      0x01\n        /* \"CrowdFunding/CrowdFunding.sol\":1950:1958  compaign */\n      0x00\n        /* \"CrowdFunding/CrowdFunding.sol\":1950:1964  compaign.state */\n      0x04\n      add\n      0x00\n        /* \"CrowdFunding/CrowdFunding.sol\":1950:1983  compaign.state = State.Successful */\n      0x0100\n      exp\n      dup2\n      sload\n      dup2\n      0xff\n      mul\n      not\n      and\n      swap1\n      dup4\n      0x03\n      dup2\n      gt\n      iszero\n      tag_91\n      jumpi\n      tag_92\n      tag_21\n      jump\t// in\n    tag_92:\n    tag_91:\n      mul\n      or\n      swap1\n      sstore\n      pop\n        /* \"CrowdFunding/CrowdFunding.sol\":1936:1983  if(isSuccess) compaign.state = State.Successful */\n    tag_90:\n        /* \"CrowdFunding/CrowdFunding.sol\":2010:2020  msg.sender */\n      caller\n        /* \"CrowdFunding/CrowdFunding.sol\":1998:2064  Contributed(msg.sender, msg.value, compaign.totalRaised,isSuccess) */\n      0xffffffffffffffffffffffffffffffffffffffff\n      and\n      0xa3cf76d32602a2a687abed22e487ac1357d386fecf9be68fe771f9c97606f3c3\n        /* \"CrowdFunding/CrowdFunding.sol\":2022:2031  msg.value */\n      callvalue\n        /* \"CrowdFunding/CrowdFunding.sol\":2033:2041  compaign */\n      0x00\n        /* \"CrowdFunding/CrowdFunding.sol\":2033:2053  compaign.totalRaised */\n      0x03\n      add\n      sload\n        /* \"CrowdFunding/CrowdFunding.sol\":2054:2063  isSuccess */\n      dup5\n        /* \"CrowdFunding/CrowdFunding.sol\":1998:2064  Contributed(msg.sender, msg.value, compaign.totalRaised,isSuccess) */\n      mload(0x40)\n      tag_93\n      swap4\n      swap3\n      swap2\n      swap1\n      tag_94\n      jump\t// in\n    tag_93:\n      mload(0x40)\n      dup1\n      swap2\n      sub\n      swap1\n      log2\n        /* \"CrowdFunding/CrowdFunding.sol\":1359:2089  {... */\n      pop\n        /* \"CrowdFunding/CrowdFunding.sol\":1321:2089  function contribute() public  payable {... */\n      jump\t// out\n        /* \"#utility.yul\":7:176   */\n    tag_95:\n        /* \"#utility.yul\":91:102   */\n      0x00\n        /* \"#utility.yul\":125:131   */\n      dup3\n        /* \"#utility.yul\":120:123   */\n      dup3\n        /* \"#utility.yul\":113:132   */\n      mstore\n        /* \"#utility.yul\":165:169   */\n      0x20\n        /* \"#utility.yul\":160:163   */\n      dup3\n        /* \"#utility.yul\":156:170   */\n      add\n        /* \"#utility.yul\":141:170   */\n      swap1\n      pop\n        /* \"#utility.yul\":7:176   */\n      swap3\n      swap2\n      pop\n      pop\n      jump\t// out\n        /* \"#utility.yul\":182:405   */\n    tag_96:\n        /* \"#utility.yul\":322:356   */\n      0x6f6e6c79206f776e65722068617320726967687420746f207468697320616374\n        /* \"#utility.yul\":318:319   */\n      0x00\n        /* \"#utility.yul\":310:316   */\n      dup3\n        /* \"#utility.yul\":306:320   */\n      add\n        /* \"#utility.yul\":299:357   */\n      mstore\n        /* \"#utility.yul\":391:397   */\n      0x696f6e2100000000000000000000000000000000000000000000000000000000\n        /* \"#utility.yul\":386:388   */\n      0x20\n        /* \"#utility.yul\":378:384   */\n      dup3\n        /* \"#utility.yul\":374:389   */\n      add\n        /* \"#utility.yul\":367:398   */\n      mstore\n        /* \"#utility.yul\":182:405   */\n      pop\n      jump\t// out\n        /* \"#utility.yul\":411:777   */\n    tag_97:\n        /* \"#utility.yul\":553:556   */\n      0x00\n        /* \"#utility.yul\":574:641   */\n      tag_132\n        /* \"#utility.yul\":638:640   */\n      0x24\n        /* \"#utility.yul\":633:636   */\n      dup4\n        /* \"#utility.yul\":574:641   */\n      tag_95\n      jump\t// in\n    tag_132:\n        /* \"#utility.yul\":567:641   */\n      swap2\n      pop\n        /* \"#utility.yul\":650:743   */\n      tag_133\n        /* \"#utility.yul\":739:742   */\n      dup3\n        /* \"#utility.yul\":650:743   */\n      tag_96\n      jump\t// in\n    tag_133:\n        /* \"#utility.yul\":768:770   */\n      0x40\n        /* \"#utility.yul\":763:766   */\n      dup3\n        /* \"#utility.yul\":759:771   */\n      add\n        /* \"#utility.yul\":752:771   */\n      swap1\n      pop\n        /* \"#utility.yul\":411:777   */\n      swap2\n      swap1\n      pop\n      jump\t// out\n        /* \"#utility.yul\":783:1202   */\n    tag_18:\n        /* \"#utility.yul\":949:953   */\n      0x00\n        /* \"#utility.yul\":987:989   */\n      0x20\n        /* \"#utility.yul\":976:985   */\n      dup3\n        /* \"#utility.yul\":972:990   */\n      add\n        /* \"#utility.yul\":964:990   */\n      swap1\n      pop\n        /* \"#utility.yul\":1036:1045   */\n      dup2\n        /* \"#utility.yul\":1030:1034   */\n      dup2\n        /* \"#utility.yul\":1026:1046   */\n      sub\n        /* \"#utility.yul\":1022:1023   */\n      0x00\n        /* \"#utility.yul\":1011:1020   */\n      dup4\n        /* \"#utility.yul\":1007:1024   */\n      add\n        /* \"#utility.yul\":1000:1047   */\n      mstore\n        /* \"#utility.yul\":1064:1195   */\n      tag_135\n        /* \"#utility.yul\":1190:1194   */\n      dup2\n        /* \"#utility.yul\":1064:1195   */\n      tag_97\n      jump\t// in\n    tag_135:\n        /* \"#utility.yul\":1056:1195   */\n      swap1\n      pop\n        /* \"#utility.yul\":783:1202   */\n      swap2\n      swap1\n      pop\n      jump\t// out\n        /* \"#utility.yul\":1208:1388   */\n    tag_21:\n        /* \"#utility.yul\":1256:1333   */\n      0x4e487b7100000000000000000000000000000000000000000000000000000000\n        /* \"#utility.yul\":1253:1254   */\n      0x00\n        /* \"#utility.yul\":1246:1334   */\n      mstore\n        /* \"#utility.yul\":1353:1357   */\n      0x21\n        /* \"#utility.yul\":1350:1351   */\n      0x04\n        /* \"#utility.yul\":1343:1358   */\n      mstore\n        /* \"#utility.yul\":1377:1381   */\n      0x24\n        /* \"#utility.yul\":1374:1375   */\n      0x00\n        /* \"#utility.yul\":1367:1382   */\n      revert\n        /* \"#utility.yul\":1394:1574   */\n    tag_98:\n        /* \"#utility.yul\":1534:1566   */\n      0x636f6d706169676e206973206e6f7420796574207375636365737366756c0000\n        /* \"#utility.yul\":1530:1531   */\n      0x00\n        /* \"#utility.yul\":1522:1528   */\n      dup3\n        /* \"#utility.yul\":1518:1532   */\n      add\n        /* \"#utility.yul\":1511:1567   */\n      mstore\n        /* \"#utility.yul\":1394:1574   */\n      pop\n      jump\t// out\n        /* \"#utility.yul\":1580:1946   */\n    tag_99:\n        /* \"#utility.yul\":1722:1725   */\n      0x00\n        /* \"#utility.yul\":1743:1810   */\n      tag_139\n        /* \"#utility.yul\":1807:1809   */\n      0x1e\n        /* \"#utility.yul\":1802:1805   */\n      dup4\n        /* \"#utility.yul\":1743:1810   */\n      tag_95\n      jump\t// in\n    tag_139:\n        /* \"#utility.yul\":1736:1810   */\n      swap2\n      pop\n        /* \"#utility.yul\":1819:1912   */\n      tag_140\n        /* \"#utility.yul\":1908:1911   */\n      dup3\n        /* \"#utility.yul\":1819:1912   */\n      tag_98\n      jump\t// in\n    tag_140:\n        /* \"#utility.yul\":1937:1939   */\n      0x20\n        /* \"#utility.yul\":1932:1935   */\n      dup3\n        /* \"#utility.yul\":1928:1940   */\n      add\n        /* \"#utility.yul\":1921:1940   */\n      swap1\n      pop\n        /* \"#utility.yul\":1580:1946   */\n      swap2\n      swap1\n      pop\n      jump\t// out\n        /* \"#utility.yul\":1952:2371   */\n    tag_26:\n        /* \"#utility.yul\":2118:2122   */\n      0x00\n        /* \"#utility.yul\":2156:2158   */\n      0x20\n        /* \"#utility.yul\":2145:2154   */\n      dup3\n        /* \"#utility.yul\":2141:2159   */\n      add\n        /* \"#utility.yul\":2133:2159   */\n      swap1\n      pop\n        /* \"#utility.yul\":2205:2214   */\n      dup2\n        /* \"#utility.yul\":2199:2203   */\n      dup2\n        /* \"#utility.yul\":2195:2215   */\n      sub\n        /* \"#utility.yul\":2191:2192   */\n      0x00\n        /* \"#utility.yul\":2180:2189   */\n      dup4\n        /* \"#utility.yul\":2176:2193   */\n      add\n        /* \"#utility.yul\":2169:2216   */\n      mstore\n        /* \"#utility.yul\":2233:2364   */\n      tag_142\n        /* \"#utility.yul\":2359:2363   */\n      dup2\n        /* \"#utility.yul\":2233:2364   */\n      tag_99\n      jump\t// in\n    tag_142:\n        /* \"#utility.yul\":2225:2364   */\n      swap1\n      pop\n        /* \"#utility.yul\":1952:2371   */\n      swap2\n      swap1\n      pop\n      jump\t// out\n        /* \"#utility.yul\":2377:2553   */\n    tag_100:\n        /* \"#utility.yul\":2517:2545   */\n      0x57697468647261776e206973206e6f7420706f737369626c6521000000000000\n        /* \"#utility.yul\":2513:2514   */\n      0x00\n        /* \"#utility.yul\":2505:2511   */\n      dup3\n        /* \"#utility.yul\":2501:2515   */\n      add\n        /* \"#utility.yul\":2494:2546   */\n      mstore\n        /* \"#utility.yul\":2377:2553   */\n      pop\n      jump\t// out\n        /* \"#utility.yul\":2559:2925   */\n    tag_101:\n        /* \"#utility.yul\":2701:2704   */\n      0x00\n        /* \"#utility.yul\":2722:2789   */\n      tag_145\n        /* \"#utility.yul\":2786:2788   */\n      0x1a\n        /* \"#utility.yul\":2781:2784   */\n      dup4\n        /* \"#utility.yul\":2722:2789   */\n      tag_95\n      jump\t// in\n    tag_145:\n        /* \"#utility.yul\":2715:2789   */\n      swap2\n      pop\n        /* \"#utility.yul\":2798:2891   */\n      tag_146\n        /* \"#utility.yul\":2887:2890   */\n      dup3\n        /* \"#utility.yul\":2798:2891   */\n      tag_100\n      jump\t// in\n    tag_146:\n        /* \"#utility.yul\":2916:2918   */\n      0x20\n        /* \"#utility.yul\":2911:2914   */\n      dup3\n        /* \"#utility.yul\":2907:2919   */\n      add\n        /* \"#utility.yul\":2900:2919   */\n      swap1\n      pop\n        /* \"#utility.yul\":2559:2925   */\n      swap2\n      swap1\n      pop\n      jump\t// out\n        /* \"#utility.yul\":2931:3350   */\n    tag_30:\n        /* \"#utility.yul\":3097:3101   */\n      0x00\n        /* \"#utility.yul\":3135:3137   */\n      0x20\n        /* \"#utility.yul\":3124:3133   */\n      dup3\n        /* \"#utility.yul\":3120:3138   */\n      add\n        /* \"#utility.yul\":3112:3138   */\n      swap1\n      pop\n        /* \"#utility.yul\":3184:3193   */\n      dup2\n        /* \"#utility.yul\":3178:3182   */\n      dup2\n        /* \"#utility.yul\":3174:3194   */\n      sub\n        /* \"#utility.yul\":3170:3171   */\n      0x00\n        /* \"#utility.yul\":3159:3168   */\n      dup4\n        /* \"#utility.yul\":3155:3172   */\n      add\n        /* \"#utility.yul\":3148:3195   */\n      mstore\n        /* \"#utility.yul\":3212:3343   */\n      tag_148\n        /* \"#utility.yul\":3338:3342   */\n      dup2\n        /* \"#utility.yul\":3212:3343   */\n      tag_101\n      jump\t// in\n    tag_148:\n        /* \"#utility.yul\":3204:3343   */\n      swap1\n      pop\n        /* \"#utility.yul\":2931:3350   */\n      swap2\n      swap1\n      pop\n      jump\t// out\n        /* \"#utility.yul\":3356:3503   */\n    tag_102:\n        /* \"#utility.yul\":3457:3468   */\n      0x00\n        /* \"#utility.yul\":3494:3497   */\n      dup2\n        /* \"#utility.yul\":3479:3497   */\n      swap1\n      pop\n        /* \"#utility.yul\":3356:3503   */\n      swap3\n      swap2\n      pop\n      pop\n      jump\t// out\n        /* \"#utility.yul\":3509:3623   */\n    tag_103:\n      pop\n      jump\t// out\n        /* \"#utility.yul\":3629:4027   */\n    tag_104:\n        /* \"#utility.yul\":3788:3791   */\n      0x00\n        /* \"#utility.yul\":3809:3892   */\n      tag_152\n        /* \"#utility.yul\":3890:3891   */\n      0x00\n        /* \"#utility.yul\":3885:3888   */\n      dup4\n        /* \"#utility.yul\":3809:3892   */\n      tag_102\n      jump\t// in\n    tag_152:\n        /* \"#utility.yul\":3802:3892   */\n      swap2\n      pop\n        /* \"#utility.yul\":3901:3994   */\n      tag_153\n        /* \"#utility.yul\":3990:3993   */\n      dup3\n        /* \"#utility.yul\":3901:3994   */\n      tag_103\n      jump\t// in\n    tag_153:\n        /* \"#utility.yul\":4019:4020   */\n      0x00\n        /* \"#utility.yul\":4014:4017   */\n      dup3\n        /* \"#utility.yul\":4010:4021   */\n      add\n        /* \"#utility.yul\":4003:4021   */\n      swap1\n      pop\n        /* \"#utility.yul\":3629:4027   */\n      swap2\n      swap1\n      pop\n      jump\t// out\n        /* \"#utility.yul\":4033:4412   */\n    tag_32:\n        /* \"#utility.yul\":4217:4220   */\n      0x00\n        /* \"#utility.yul\":4239:4386   */\n      tag_155\n        /* \"#utility.yul\":4382:4385   */\n      dup3\n        /* \"#utility.yul\":4239:4386   */\n      tag_104\n      jump\t// in\n    tag_155:\n        /* \"#utility.yul\":4232:4386   */\n      swap2\n      pop\n        /* \"#utility.yul\":4403:4406   */\n      dup2\n        /* \"#utility.yul\":4396:4406   */\n      swap1\n      pop\n        /* \"#utility.yul\":4033:4412   */\n      swap2\n      swap1\n      pop\n      jump\t// out\n        /* \"#utility.yul\":4418:4590   */\n    tag_105:\n        /* \"#utility.yul\":4558:4582   */\n      0x455448207769746864726177616c206661696c65642100000000000000000000\n        /* \"#utility.yul\":4554:4555   */\n      0x00\n        /* \"#utility.yul\":4546:4552   */\n      dup3\n        /* \"#utility.yul\":4542:4556   */\n      add\n        /* \"#utility.yul\":4535:4583   */\n      mstore\n        /* \"#utility.yul\":4418:4590   */\n      pop\n      jump\t// out\n        /* \"#utility.yul\":4596:4962   */\n    tag_106:\n        /* \"#utility.yul\":4738:4741   */\n      0x00\n        /* \"#utility.yul\":4759:4826   */\n      tag_158\n        /* \"#utility.yul\":4823:4825   */\n      0x16\n        /* \"#utility.yul\":4818:4821   */\n      dup4\n        /* \"#utility.yul\":4759:4826   */\n      tag_95\n      jump\t// in\n    tag_158:\n        /* \"#utility.yul\":4752:4826   */\n      swap2\n      pop\n        /* \"#utility.yul\":4835:4928   */\n      tag_159\n        /* \"#utility.yul\":4924:4927   */\n      dup3\n        /* \"#utility.yul\":4835:4928   */\n      tag_105\n      jump\t// in\n    tag_159:\n        /* \"#utility.yul\":4953:4955   */\n      0x20\n        /* \"#utility.yul\":4948:4951   */\n      dup3\n        /* \"#utility.yul\":4944:4956   */\n      add\n        /* \"#utility.yul\":4937:4956   */\n      swap1\n      pop\n        /* \"#utility.yul\":4596:4962   */\n      swap2\n      swap1\n      pop\n      jump\t// out\n        /* \"#utility.yul\":4968:5387   */\n    tag_38:\n        /* \"#utility.yul\":5134:5138   */\n      0x00\n        /* \"#utility.yul\":5172:5174   */\n      0x20\n        /* \"#utility.yul\":5161:5170   */\n      dup3\n        /* \"#utility.yul\":5157:5175   */\n      add\n        /* \"#utility.yul\":5149:5175   */\n      swap1\n      pop\n        /* \"#utility.yul\":5221:5230   */\n      dup2\n        /* \"#utility.yul\":5215:5219   */\n      dup2\n        /* \"#utility.yul\":5211:5231   */\n      sub\n        /* \"#utility.yul\":5207:5208   */\n      0x00\n        /* \"#utility.yul\":5196:5205   */\n      dup4\n        /* \"#utility.yul\":5192:5209   */\n      add\n        /* \"#utility.yul\":5185:5232   */\n      mstore\n        /* \"#utility.yul\":5249:5380   */\n      tag_161\n        /* \"#utility.yul\":5375:5379   */\n      dup2\n        /* \"#utility.yul\":5249:5380   */\n      tag_106\n      jump\t// in\n    tag_161:\n        /* \"#utility.yul\":5241:5380   */\n      swap1\n      pop\n        /* \"#utility.yul\":4968:5387   */\n      swap2\n      swap1\n      pop\n      jump\t// out\n        /* \"#utility.yul\":5393:5470   */\n    tag_107:\n        /* \"#utility.yul\":5430:5437   */\n      0x00\n        /* \"#utility.yul\":5459:5464   */\n      dup2\n        /* \"#utility.yul\":5448:5464   */\n      swap1\n      pop\n        /* \"#utility.yul\":5393:5470   */\n      swap2\n      swap1\n      pop\n      jump\t// out\n        /* \"#utility.yul\":5476:5594   */\n    tag_108:\n        /* \"#utility.yul\":5563:5587   */\n      tag_164\n        /* \"#utility.yul\":5581:5586   */\n      dup2\n        /* \"#utility.yul\":5563:5587   */\n      tag_107\n      jump\t// in\n    tag_164:\n        /* \"#utility.yul\":5558:5561   */\n      dup3\n        /* \"#utility.yul\":5551:5588   */\n      mstore\n        /* \"#utility.yul\":5476:5594   */\n      pop\n      pop\n      jump\t// out\n        /* \"#utility.yul\":5600:5822   */\n    tag_40:\n        /* \"#utility.yul\":5693:5697   */\n      0x00\n        /* \"#utility.yul\":5731:5733   */\n      0x20\n        /* \"#utility.yul\":5720:5729   */\n      dup3\n        /* \"#utility.yul\":5716:5734   */\n      add\n        /* \"#utility.yul\":5708:5734   */\n      swap1\n      pop\n        /* \"#utility.yul\":5744:5815   */\n      tag_166\n        /* \"#utility.yul\":5812:5813   */\n      0x00\n        /* \"#utility.yul\":5801:5810   */\n      dup4\n        /* \"#utility.yul\":5797:5814   */\n      add\n        /* \"#utility.yul\":5788:5794   */\n      dup5\n        /* \"#utility.yul\":5744:5815   */\n      tag_108\n      jump\t// in\n    tag_166:\n        /* \"#utility.yul\":5600:5822   */\n      swap3\n      swap2\n      pop\n      pop\n      jump\t// out\n        /* \"#utility.yul\":5828:6008   */\n    tag_109:\n        /* \"#utility.yul\":5968:6000   */\n      0x636f6d706169676e206973207374696c6c20696e2070726f6772657373210000\n        /* \"#utility.yul\":5964:5965   */\n      0x00\n        /* \"#utility.yul\":5956:5962   */\n      dup3\n        /* \"#utility.yul\":5952:5966   */\n      add\n        /* \"#utility.yul\":5945:6001   */\n      mstore\n        /* \"#utility.yul\":5828:6008   */\n      pop\n      jump\t// out\n        /* \"#utility.yul\":6014:6380   */\n    tag_110:\n        /* \"#utility.yul\":6156:6159   */\n      0x00\n        /* \"#utility.yul\":6177:6244   */\n      tag_169\n        /* \"#utility.yul\":6241:6243   */\n      0x1e\n        /* \"#utility.yul\":6236:6239   */\n      dup4\n        /* \"#utility.yul\":6177:6244   */\n      tag_95\n      jump\t// in\n    tag_169:\n        /* \"#utility.yul\":6170:6244   */\n      swap2\n      pop\n        /* \"#utility.yul\":6253:6346   */\n      tag_170\n        /* \"#utility.yul\":6342:6345   */\n      dup3\n        /* \"#utility.yul\":6253:6346   */\n      tag_109\n      jump\t// in\n    tag_170:\n        /* \"#utility.yul\":6371:6373   */\n      0x20\n        /* \"#utility.yul\":6366:6369   */\n      dup3\n        /* \"#utility.yul\":6362:6374   */\n      add\n        /* \"#utility.yul\":6355:6374   */\n      swap1\n      pop\n        /* \"#utility.yul\":6014:6380   */\n      swap2\n      swap1\n      pop\n      jump\t// out\n        /* \"#utility.yul\":6386:6805   */\n    tag_44:\n        /* \"#utility.yul\":6552:6556   */\n      0x00\n        /* \"#utility.yul\":6590:6592   */\n      0x20\n        /* \"#utility.yul\":6579:6588   */\n      dup3\n        /* \"#utility.yul\":6575:6593   */\n      add\n        /* \"#utility.yul\":6567:6593   */\n      swap1\n      pop\n        /* \"#utility.yul\":6639:6648   */\n      dup2\n        /* \"#utility.yul\":6633:6637   */\n      dup2\n        /* \"#utility.yul\":6629:6649   */\n      sub\n        /* \"#utility.yul\":6625:6626   */\n      0x00\n        /* \"#utility.yul\":6614:6623   */\n      dup4\n        /* \"#utility.yul\":6610:6627   */\n      add\n        /* \"#utility.yul\":6603:6650   */\n      mstore\n        /* \"#utility.yul\":6667:6798   */\n      tag_172\n        /* \"#utility.yul\":6793:6797   */\n      dup2\n        /* \"#utility.yul\":6667:6798   */\n      tag_110\n      jump\t// in\n    tag_172:\n        /* \"#utility.yul\":6659:6798   */\n      swap1\n      pop\n        /* \"#utility.yul\":6386:6805   */\n      swap2\n      swap1\n      pop\n      jump\t// out\n        /* \"#utility.yul\":6811:6987   */\n    tag_111:\n        /* \"#utility.yul\":6951:6979   */\n      0x636f6d706169676e207374617465206973206e6f74206661696c000000000000\n        /* \"#utility.yul\":6947:6948   */\n      0x00\n        /* \"#utility.yul\":6939:6945   */\n      dup3\n        /* \"#utility.yul\":6935:6949   */\n      add\n        /* \"#utility.yul\":6928:6980   */\n      mstore\n        /* \"#utility.yul\":6811:6987   */\n      pop\n      jump\t// out\n        /* \"#utility.yul\":6993:7359   */\n    tag_112:\n        /* \"#utility.yul\":7135:7138   */\n      0x00\n        /* \"#utility.yul\":7156:7223   */\n      tag_175\n        /* \"#utility.yul\":7220:7222   */\n      0x1a\n        /* \"#utility.yul\":7215:7218   */\n      dup4\n        /* \"#utility.yul\":7156:7223   */\n      tag_95\n      jump\t// in\n    tag_175:\n        /* \"#utility.yul\":7149:7223   */\n      swap2\n      pop\n        /* \"#utility.yul\":7232:7325   */\n      tag_176\n        /* \"#utility.yul\":7321:7324   */\n      dup3\n        /* \"#utility.yul\":7232:7325   */\n      tag_111\n      jump\t// in\n    tag_176:\n        /* \"#utility.yul\":7350:7352   */\n      0x20\n        /* \"#utility.yul\":7345:7348   */\n      dup3\n        /* \"#utility.yul\":7341:7353   */\n      add\n        /* \"#utility.yul\":7334:7353   */\n      swap1\n      pop\n        /* \"#utility.yul\":6993:7359   */\n      swap2\n      swap1\n      pop\n      jump\t// out\n        /* \"#utility.yul\":7365:7784   */\n    tag_58:\n        /* \"#utility.yul\":7531:7535   */\n      0x00\n        /* \"#utility.yul\":7569:7571   */\n      0x20\n        /* \"#utility.yul\":7558:7567   */\n      dup3\n        /* \"#utility.yul\":7554:7572   */\n      add\n        /* \"#utility.yul\":7546:7572   */\n      swap1\n      pop\n        /* \"#utility.yul\":7618:7627   */\n      dup2\n        /* \"#utility.yul\":7612:7616   */\n      dup2\n        /* \"#utility.yul\":7608:7628   */\n      sub\n        /* \"#utility.yul\":7604:7605   */\n      0x00\n        /* \"#utility.yul\":7593:7602   */\n      dup4\n        /* \"#utility.yul\":7589:7606   */\n      add\n        /* \"#utility.yul\":7582:7629   */\n      mstore\n        /* \"#utility.yul\":7646:7777   */\n      tag_178\n        /* \"#utility.yul\":7772:7776   */\n      dup2\n        /* \"#utility.yul\":7646:7777   */\n      tag_112\n      jump\t// in\n    tag_178:\n        /* \"#utility.yul\":7638:7777   */\n      swap1\n      pop\n        /* \"#utility.yul\":7365:7784   */\n      swap2\n      swap1\n      pop\n      jump\t// out\n        /* \"#utility.yul\":7790:8013   */\n    tag_113:\n        /* \"#utility.yul\":7930:7964   */\n      0x796f7520617265206e6f7420636f6e7472696275746f7220666f7220636f6d70\n        /* \"#utility.yul\":7926:7927   */\n      0x00\n        /* \"#utility.yul\":7918:7924   */\n      dup3\n        /* \"#utility.yul\":7914:7928   */\n      add\n        /* \"#utility.yul\":7907:7965   */\n      mstore\n        /* \"#utility.yul\":7999:8005   */\n      0x6169676e00000000000000000000000000000000000000000000000000000000\n        /* \"#utility.yul\":7994:7996   */\n      0x20\n        /* \"#utility.yul\":7986:7992   */\n      dup3\n        /* \"#utility.yul\":7982:7997   */\n      add\n        /* \"#utility.yul\":7975:8006   */\n      mstore\n        /* \"#utility.yul\":7790:8013   */\n      pop\n      jump\t// out\n        /* \"#utility.yul\":8019:8385   */\n    tag_114:\n        /* \"#utility.yul\":8161:8164   */\n      0x00\n        /* \"#utility.yul\":8182:8249   */\n      tag_181\n        /* \"#utility.yul\":8246:8248   */\n      0x24\n        /* \"#utility.yul\":8241:8244   */\n      dup4\n        /* \"#utility.yul\":8182:8249   */\n      tag_95\n      jump\t// in\n    tag_181:\n        /* \"#utility.yul\":8175:8249   */\n      swap2\n      pop\n        /* \"#utility.yul\":8258:8351   */\n      tag_182\n        /* \"#utility.yul\":8347:8350   */\n      dup3\n        /* \"#utility.yul\":8258:8351   */\n      tag_113\n      jump\t// in\n    tag_182:\n        /* \"#utility.yul\":8376:8378   */\n      0x40\n        /* \"#utility.yul\":8371:8374   */\n      dup3\n        /* \"#utility.yul\":8367:8379   */\n      add\n        /* \"#utility.yul\":8360:8379   */\n      swap1\n      pop\n        /* \"#utility.yul\":8019:8385   */\n      swap2\n      swap1\n      pop\n      jump\t// out\n        /* \"#utility.yul\":8391:8810   */\n    tag_61:\n        /* \"#utility.yul\":8557:8561   */\n      0x00\n        /* \"#utility.yul\":8595:8597   */\n      0x20\n        /* \"#utility.yul\":8584:8593   */\n      dup3\n        /* \"#utility.yul\":8580:8598   */\n      add\n        /* \"#utility.yul\":8572:8598   */\n      swap1\n      pop\n        /* \"#utility.yul\":8644:8653   */\n      dup2\n        /* \"#utility.yul\":8638:8642   */\n      dup2\n        /* \"#utility.yul\":8634:8654   */\n      sub\n        /* \"#utility.yul\":8630:8631   */\n      0x00\n        /* \"#utility.yul\":8619:8628   */\n      dup4\n        /* \"#utility.yul\":8615:8632   */\n      add\n        /* \"#utility.yul\":8608:8655   */\n      mstore\n        /* \"#utility.yul\":8672:8803   */\n      tag_184\n        /* \"#utility.yul\":8798:8802   */\n      dup2\n        /* \"#utility.yul\":8672:8803   */\n      tag_114\n      jump\t// in\n    tag_184:\n        /* \"#utility.yul\":8664:8803   */\n      swap1\n      pop\n        /* \"#utility.yul\":8391:8810   */\n      swap2\n      swap1\n      pop\n      jump\t// out\n        /* \"#utility.yul\":8816:8980   */\n    tag_115:\n        /* \"#utility.yul\":8956:8972   */\n      0x4572726f72206f63637572656421000000000000000000000000000000000000\n        /* \"#utility.yul\":8952:8953   */\n      0x00\n        /* \"#utility.yul\":8944:8950   */\n      dup3\n        /* \"#utility.yul\":8940:8954   */\n      add\n        /* \"#utility.yul\":8933:8973   */\n      mstore\n        /* \"#utility.yul\":8816:8980   */\n      pop\n      jump\t// out\n        /* \"#utility.yul\":8986:9352   */\n    tag_116:\n        /* \"#utility.yul\":9128:9131   */\n      0x00\n        /* \"#utility.yul\":9149:9216   */\n      tag_187\n        /* \"#utility.yul\":9213:9215   */\n      0x0e\n        /* \"#utility.yul\":9208:9211   */\n      dup4\n        /* \"#utility.yul\":9149:9216   */\n      tag_95\n      jump\t// in\n    tag_187:\n        /* \"#utility.yul\":9142:9216   */\n      swap2\n      pop\n        /* \"#utility.yul\":9225:9318   */\n      tag_188\n        /* \"#utility.yul\":9314:9317   */\n      dup3\n        /* \"#utility.yul\":9225:9318   */\n      tag_115\n      jump\t// in\n    tag_188:\n        /* \"#utility.yul\":9343:9345   */\n      0x20\n        /* \"#utility.yul\":9338:9341   */\n      dup3\n        /* \"#utility.yul\":9334:9346   */\n      add\n        /* \"#utility.yul\":9327:9346   */\n      swap1\n      pop\n        /* \"#utility.yul\":8986:9352   */\n      swap2\n      swap1\n      pop\n      jump\t// out\n        /* \"#utility.yul\":9358:9777   */\n    tag_68:\n        /* \"#utility.yul\":9524:9528   */\n      0x00\n        /* \"#utility.yul\":9562:9564   */\n      0x20\n        /* \"#utility.yul\":9551:9560   */\n      dup3\n        /* \"#utility.yul\":9547:9565   */\n      add\n        /* \"#utility.yul\":9539:9565   */\n      swap1\n      pop\n        /* \"#utility.yul\":9611:9620   */\n      dup2\n        /* \"#utility.yul\":9605:9609   */\n      dup2\n        /* \"#utility.yul\":9601:9621   */\n      sub\n        /* \"#utility.yul\":9597:9598   */\n      0x00\n        /* \"#utility.yul\":9586:9595   */\n      dup4\n        /* \"#utility.yul\":9582:9599   */\n      add\n        /* \"#utility.yul\":9575:9622   */\n      mstore\n        /* \"#utility.yul\":9639:9770   */\n      tag_190\n        /* \"#utility.yul\":9765:9769   */\n      dup2\n        /* \"#utility.yul\":9639:9770   */\n      tag_116\n      jump\t// in\n    tag_190:\n        /* \"#utility.yul\":9631:9770   */\n      swap1\n      pop\n        /* \"#utility.yul\":9358:9777   */\n      swap2\n      swap1\n      pop\n      jump\t// out\n        /* \"#utility.yul\":9783:10017   */\n    tag_117:\n        /* \"#utility.yul\":9923:9957   */\n      0x63726561746f7220686173206e6f2072696768747320746f20636f6e74726962\n        /* \"#utility.yul\":9919:9920   */\n      0x00\n        /* \"#utility.yul\":9911:9917   */\n      dup3\n        /* \"#utility.yul\":9907:9921   */\n      add\n        /* \"#utility.yul\":9900:9958   */\n      mstore\n        /* \"#utility.yul\":9992:10009   */\n      0x75746520696e20636f6d706169676e0000000000000000000000000000000000\n        /* \"#utility.yul\":9987:9989   */\n      0x20\n        /* \"#utility.yul\":9979:9985   */\n      dup3\n        /* \"#utility.yul\":9975:9990   */\n      add\n        /* \"#utility.yul\":9968:10010   */\n      mstore\n        /* \"#utility.yul\":9783:10017   */\n      pop\n      jump\t// out\n        /* \"#utility.yul\":10023:10389   */\n    tag_118:\n        /* \"#utility.yul\":10165:10168   */\n      0x00\n        /* \"#utility.yul\":10186:10253   */\n      tag_193\n        /* \"#utility.yul\":10250:10252   */\n      0x2f\n        /* \"#utility.yul\":10245:10248   */\n      dup4\n        /* \"#utility.yul\":10186:10253   */\n      tag_95\n      jump\t// in\n    tag_193:\n        /* \"#utility.yul\":10179:10253   */\n      swap2\n      pop\n        /* \"#utility.yul\":10262:10355   */\n      tag_194\n        /* \"#utility.yul\":10351:10354   */\n      dup3\n        /* \"#utility.yul\":10262:10355   */\n      tag_117\n      jump\t// in\n    tag_194:\n        /* \"#utility.yul\":10380:10382   */\n      0x40\n        /* \"#utility.yul\":10375:10378   */\n      dup3\n        /* \"#utility.yul\":10371:10383   */\n      add\n        /* \"#utility.yul\":10364:10383   */\n      swap1\n      pop\n        /* \"#utility.yul\":10023:10389   */\n      swap2\n      swap1\n      pop\n      jump\t// out\n        /* \"#utility.yul\":10395:10814   */\n    tag_73:\n        /* \"#utility.yul\":10561:10565   */\n      0x00\n        /* \"#utility.yul\":10599:10601   */\n      0x20\n        /* \"#utility.yul\":10588:10597   */\n      dup3\n        /* \"#utility.yul\":10584:10602   */\n      add\n        /* \"#utility.yul\":10576:10602   */\n      swap1\n      pop\n        /* \"#utility.yul\":10648:10657   */\n      dup2\n        /* \"#utility.yul\":10642:10646   */\n      dup2\n        /* \"#utility.yul\":10638:10658   */\n      sub\n        /* \"#utility.yul\":10634:10635   */\n      0x00\n        /* \"#utility.yul\":10623:10632   */\n      dup4\n        /* \"#utility.yul\":10619:10636   */\n      add\n        /* \"#utility.yul\":10612:10659   */\n      mstore\n        /* \"#utility.yul\":10676:10807   */\n      tag_196\n        /* \"#utility.yul\":10802:10806   */\n      dup2\n        /* \"#utility.yul\":10676:10807   */\n      tag_118\n      jump\t// in\n    tag_196:\n        /* \"#utility.yul\":10668:10807   */\n      swap1\n      pop\n        /* \"#utility.yul\":10395:10814   */\n      swap2\n      swap1\n      pop\n      jump\t// out\n        /* \"#utility.yul\":10820:11046   */\n    tag_119:\n        /* \"#utility.yul\":10960:10994   */\n      0x636f6d706169676e206973206e6f7420756e6465722074686520737461746520\n        /* \"#utility.yul\":10956:10957   */\n      0x00\n        /* \"#utility.yul\":10948:10954   */\n      dup3\n        /* \"#utility.yul\":10944:10958   */\n      add\n        /* \"#utility.yul\":10937:10995   */\n      mstore\n        /* \"#utility.yul\":11029:11038   */\n      0x46554e44494e4700000000000000000000000000000000000000000000000000\n        /* \"#utility.yul\":11024:11026   */\n      0x20\n        /* \"#utility.yul\":11016:11022   */\n      dup3\n        /* \"#utility.yul\":11012:11027   */\n      add\n        /* \"#utility.yul\":11005:11039   */\n      mstore\n        /* \"#utility.yul\":10820:11046   */\n      pop\n      jump\t// out\n        /* \"#utility.yul\":11052:11418   */\n    tag_120:\n        /* \"#utility.yul\":11194:11197   */\n      0x00\n        /* \"#utility.yul\":11215:11282   */\n      tag_199\n        /* \"#utility.yul\":11279:11281   */\n      0x27\n        /* \"#utility.yul\":11274:11277   */\n      dup4\n        /* \"#utility.yul\":11215:11282   */\n      tag_95\n      jump\t// in\n    tag_199:\n        /* \"#utility.yul\":11208:11282   */\n      swap2\n      pop\n        /* \"#utility.yul\":11291:11384   */\n      tag_200\n        /* \"#utility.yul\":11380:11383   */\n      dup3\n        /* \"#utility.yul\":11291:11384   */\n      tag_119\n      jump\t// in\n    tag_200:\n        /* \"#utility.yul\":11409:11411   */\n      0x40\n        /* \"#utility.yul\":11404:11407   */\n      dup3\n        /* \"#utility.yul\":11400:11412   */\n      add\n        /* \"#utility.yul\":11393:11412   */\n      swap1\n      pop\n        /* \"#utility.yul\":11052:11418   */\n      swap2\n      swap1\n      pop\n      jump\t// out\n        /* \"#utility.yul\":11424:11843   */\n    tag_80:\n        /* \"#utility.yul\":11590:11594   */\n      0x00\n        /* \"#utility.yul\":11628:11630   */\n      0x20\n        /* \"#utility.yul\":11617:11626   */\n      dup3\n        /* \"#utility.yul\":11613:11631   */\n      add\n        /* \"#utility.yul\":11605:11631   */\n      swap1\n      pop\n        /* \"#utility.yul\":11677:11686   */\n      dup2\n        /* \"#utility.yul\":11671:11675   */\n      dup2\n        /* \"#utility.yul\":11667:11687   */\n      sub\n        /* \"#utility.yul\":11663:11664   */\n      0x00\n        /* \"#utility.yul\":11652:11661   */\n      dup4\n        /* \"#utility.yul\":11648:11665   */\n      add\n        /* \"#utility.yul\":11641:11688   */\n      mstore\n        /* \"#utility.yul\":11705:11836   */\n      tag_202\n        /* \"#utility.yul\":11831:11835   */\n      dup2\n        /* \"#utility.yul\":11705:11836   */\n      tag_120\n      jump\t// in\n    tag_202:\n        /* \"#utility.yul\":11697:11836   */\n      swap1\n      pop\n        /* \"#utility.yul\":11424:11843   */\n      swap2\n      swap1\n      pop\n      jump\t// out\n        /* \"#utility.yul\":11849:12015   */\n    tag_121:\n        /* \"#utility.yul\":11989:12007   */\n      0x646561646c696e65206d69737365642100000000000000000000000000000000\n        /* \"#utility.yul\":11985:11986   */\n      0x00\n        /* \"#utility.yul\":11977:11983   */\n      dup3\n        /* \"#utility.yul\":11973:11987   */\n      add\n        /* \"#utility.yul\":11966:12008   */\n      mstore\n        /* \"#utility.yul\":11849:12015   */\n      pop\n      jump\t// out\n        /* \"#utility.yul\":12021:12387   */\n    tag_122:\n        /* \"#utility.yul\":12163:12166   */\n      0x00\n        /* \"#utility.yul\":12184:12251   */\n      tag_205\n        /* \"#utility.yul\":12248:12250   */\n      0x10\n        /* \"#utility.yul\":12243:12246   */\n      dup4\n        /* \"#utility.yul\":12184:12251   */\n      tag_95\n      jump\t// in\n    tag_205:\n        /* \"#utility.yul\":12177:12251   */\n      swap2\n      pop\n        /* \"#utility.yul\":12260:12353   */\n      tag_206\n        /* \"#utility.yul\":12349:12352   */\n      dup3\n        /* \"#utility.yul\":12260:12353   */\n      tag_121\n      jump\t// in\n    tag_206:\n        /* \"#utility.yul\":12378:12380   */\n      0x20\n        /* \"#utility.yul\":12373:12376   */\n      dup3\n        /* \"#utility.yul\":12369:12381   */\n      add\n        /* \"#utility.yul\":12362:12381   */\n      swap1\n      pop\n        /* \"#utility.yul\":12021:12387   */\n      swap2\n      swap1\n      pop\n      jump\t// out\n        /* \"#utility.yul\":12393:12812   */\n    tag_83:\n        /* \"#utility.yul\":12559:12563   */\n      0x00\n        /* \"#utility.yul\":12597:12599   */\n      0x20\n        /* \"#utility.yul\":12586:12595   */\n      dup3\n        /* \"#utility.yul\":12582:12600   */\n      add\n        /* \"#utility.yul\":12574:12600   */\n      swap1\n      pop\n        /* \"#utility.yul\":12646:12655   */\n      dup2\n        /* \"#utility.yul\":12640:12644   */\n      dup2\n        /* \"#utility.yul\":12636:12656   */\n      sub\n        /* \"#utility.yul\":12632:12633   */\n      0x00\n        /* \"#utility.yul\":12621:12630   */\n      dup4\n        /* \"#utility.yul\":12617:12634   */\n      add\n        /* \"#utility.yul\":12610:12657   */\n      mstore\n        /* \"#utility.yul\":12674:12805   */\n      tag_208\n        /* \"#utility.yul\":12800:12804   */\n      dup2\n        /* \"#utility.yul\":12674:12805   */\n      tag_122\n      jump\t// in\n    tag_208:\n        /* \"#utility.yul\":12666:12805   */\n      swap1\n      pop\n        /* \"#utility.yul\":12393:12812   */\n      swap2\n      swap1\n      pop\n      jump\t// out\n        /* \"#utility.yul\":12818:12998   */\n    tag_123:\n        /* \"#utility.yul\":12958:12990   */\n      0x416d6f756e74206f6620636f6e7469627574696f6e206973207a65726f210000\n        /* \"#utility.yul\":12954:12955   */\n      0x00\n        /* \"#utility.yul\":12946:12952   */\n      dup3\n        /* \"#utility.yul\":12942:12956   */\n      add\n        /* \"#utility.yul\":12935:12991   */\n      mstore\n        /* \"#utility.yul\":12818:12998   */\n      pop\n      jump\t// out\n        /* \"#utility.yul\":13004:13370   */\n    tag_124:\n        /* \"#utility.yul\":13146:13149   */\n      0x00\n        /* \"#utility.yul\":13167:13234   */\n      tag_211\n        /* \"#utility.yul\":13231:13233   */\n      0x1e\n        /* \"#utility.yul\":13226:13229   */\n      dup4\n        /* \"#utility.yul\":13167:13234   */\n      tag_95\n      jump\t// in\n    tag_211:\n        /* \"#utility.yul\":13160:13234   */\n      swap2\n      pop\n        /* \"#utility.yul\":13243:13336   */\n      tag_212\n        /* \"#utility.yul\":13332:13335   */\n      dup3\n        /* \"#utility.yul\":13243:13336   */\n      tag_123\n      jump\t// in\n    tag_212:\n        /* \"#utility.yul\":13361:13363   */\n      0x20\n        /* \"#utility.yul\":13356:13359   */\n      dup3\n        /* \"#utility.yul\":13352:13364   */\n      add\n        /* \"#utility.yul\":13345:13364   */\n      swap1\n      pop\n        /* \"#utility.yul\":13004:13370   */\n      swap2\n      swap1\n      pop\n      jump\t// out\n        /* \"#utility.yul\":13376:13795   */\n    tag_86:\n        /* \"#utility.yul\":13542:13546   */\n      0x00\n        /* \"#utility.yul\":13580:13582   */\n      0x20\n        /* \"#utility.yul\":13569:13578   */\n      dup3\n        /* \"#utility.yul\":13565:13583   */\n      add\n        /* \"#utility.yul\":13557:13583   */\n      swap1\n      pop\n        /* \"#utility.yul\":13629:13638   */\n      dup2\n        /* \"#utility.yul\":13623:13627   */\n      dup2\n        /* \"#utility.yul\":13619:13639   */\n      sub\n        /* \"#utility.yul\":13615:13616   */\n      0x00\n        /* \"#utility.yul\":13604:13613   */\n      dup4\n        /* \"#utility.yul\":13600:13617   */\n      add\n        /* \"#utility.yul\":13593:13640   */\n      mstore\n        /* \"#utility.yul\":13657:13788   */\n      tag_214\n        /* \"#utility.yul\":13783:13787   */\n      dup2\n        /* \"#utility.yul\":13657:13788   */\n      tag_124\n      jump\t// in\n    tag_214:\n        /* \"#utility.yul\":13649:13788   */\n      swap1\n      pop\n        /* \"#utility.yul\":13376:13795   */\n      swap2\n      swap1\n      pop\n      jump\t// out\n        /* \"#utility.yul\":13801:13981   */\n    tag_125:\n        /* \"#utility.yul\":13849:13926   */\n      0x4e487b7100000000000000000000000000000000000000000000000000000000\n        /* \"#utility.yul\":13846:13847   */\n      0x00\n        /* \"#utility.yul\":13839:13927   */\n      mstore\n        /* \"#utility.yul\":13946:13950   */\n      0x11\n        /* \"#utility.yul\":13943:13944   */\n      0x04\n        /* \"#utility.yul\":13936:13951   */\n      mstore\n        /* \"#utility.yul\":13970:13974   */\n      0x24\n        /* \"#utility.yul\":13967:13968   */\n      0x00\n        /* \"#utility.yul\":13960:13975   */\n      revert\n        /* \"#utility.yul\":13987:14178   */\n    tag_88:\n        /* \"#utility.yul\":14027:14030   */\n      0x00\n        /* \"#utility.yul\":14046:14066   */\n      tag_217\n        /* \"#utility.yul\":14064:14065   */\n      dup3\n        /* \"#utility.yul\":14046:14066   */\n      tag_107\n      jump\t// in\n    tag_217:\n        /* \"#utility.yul\":14041:14066   */\n      swap2\n      pop\n        /* \"#utility.yul\":14080:14100   */\n      tag_218\n        /* \"#utility.yul\":14098:14099   */\n      dup4\n        /* \"#utility.yul\":14080:14100   */\n      tag_107\n      jump\t// in\n    tag_218:\n        /* \"#utility.yul\":14075:14100   */\n      swap3\n      pop\n        /* \"#utility.yul\":14123:14124   */\n      dup3\n        /* \"#utility.yul\":14120:14121   */\n      dup3\n        /* \"#utility.yul\":14116:14125   */\n      add\n        /* \"#utility.yul\":14109:14125   */\n      swap1\n      pop\n        /* \"#utility.yul\":14144:14147   */\n      dup1\n        /* \"#utility.yul\":14141:14142   */\n      dup3\n        /* \"#utility.yul\":14138:14148   */\n      gt\n        /* \"#utility.yul\":14135:14171   */\n      iszero\n      tag_219\n      jumpi\n        /* \"#utility.yul\":14151:14169   */\n      tag_220\n      tag_125\n      jump\t// in\n    tag_220:\n        /* \"#utility.yul\":14135:14171   */\n    tag_219:\n        /* \"#utility.yul\":13987:14178   */\n      swap3\n      swap2\n      pop\n      pop\n      jump\t// out\n        /* \"#utility.yul\":14184:14274   */\n    tag_126:\n        /* \"#utility.yul\":14218:14225   */\n      0x00\n        /* \"#utility.yul\":14261:14266   */\n      dup2\n        /* \"#utility.yul\":14254:14267   */\n      iszero\n        /* \"#utility.yul\":14247:14268   */\n      iszero\n        /* \"#utility.yul\":14236:14268   */\n      swap1\n      pop\n        /* \"#utility.yul\":14184:14274   */\n      swap2\n      swap1\n      pop\n      jump\t// out\n        /* \"#utility.yul\":14280:14389   */\n    tag_127:\n        /* \"#utility.yul\":14361:14382   */\n      tag_223\n        /* \"#utility.yul\":14376:14381   */\n      dup2\n        /* \"#utility.yul\":14361:14382   */\n      tag_126\n      jump\t// in\n    tag_223:\n        /* \"#utility.yul\":14356:14359   */\n      dup3\n        /* \"#utility.yul\":14349:14383   */\n      mstore\n        /* \"#utility.yul\":14280:14389   */\n      pop\n      pop\n      jump\t// out\n        /* \"#utility.yul\":14395:14825   */\n    tag_94:\n        /* \"#utility.yul\":14538:14542   */\n      0x00\n        /* \"#utility.yul\":14576:14578   */\n      0x60\n        /* \"#utility.yul\":14565:14574   */\n      dup3\n        /* \"#utility.yul\":14561:14579   */\n      add\n        /* \"#utility.yul\":14553:14579   */\n      swap1\n      pop\n        /* \"#utility.yul\":14589:14660   */\n      tag_225\n        /* \"#utility.yul\":14657:14658   */\n      0x00\n        /* \"#utility.yul\":14646:14655   */\n      dup4\n        /* \"#utility.yul\":14642:14659   */\n      add\n        /* \"#utility.yul\":14633:14639   */\n      dup7\n        /* \"#utility.yul\":14589:14660   */\n      tag_108\n      jump\t// in\n    tag_225:\n        /* \"#utility.yul\":14670:14742   */\n      tag_226\n        /* \"#utility.yul\":14738:14740   */\n      0x20\n        /* \"#utility.yul\":14727:14736   */\n      dup4\n        /* \"#utility.yul\":14723:14741   */\n      add\n        /* \"#utility.yul\":14714:14720   */\n      dup6\n        /* \"#utility.yul\":14670:14742   */\n      tag_108\n      jump\t// in\n    tag_226:\n        /* \"#utility.yul\":14752:14818   */\n      tag_227\n        /* \"#utility.yul\":14814:14816   */\n      0x40\n        /* \"#utility.yul\":14803:14812   */\n      dup4\n        /* \"#utility.yul\":14799:14817   */\n      add\n        /* \"#utility.yul\":14790:14796   */\n      dup5\n        /* \"#utility.yul\":14752:14818   */\n      tag_127\n      jump\t// in\n    tag_227:\n        /* \"#utility.yul\":14395:14825   */\n      swap5\n      swap4\n      pop\n      pop\n      pop\n      pop\n      jump\t// out\n\n    auxdata: 0xa2646970667358221220bf20cc61ce623bb06721d2b0fcc0ce75593a4bd6b6e655ff34834be33e66ef6464736f6c634300081e0033\n}\n",
				"bytecode": {
					"linkReferences": {},
					"object": "60806040525f60065f6101000a81548160ff021916908315150217905550348015610028575f5ffd5b506040516112b93803806112b9833981810160405281019061004a91906101eb565b825f5f015f6101000a81548173ffffffffffffffffffffffffffffffffffffffff021916908373ffffffffffffffffffffffffffffffffffffffff160217905550815f6001018190555080426100a09190610268565b5f600201819055505f5f600301819055505f5f6004015f6101000a81548160ff021916908360038111156100d7576100d661029b565b5b02179055505f5f015f9054906101000a900473ffffffffffffffffffffffffffffffffffffffff1673ffffffffffffffffffffffffffffffffffffffff167f681f945f90ca3793b37315ed6a012353c82c1b37ca023ef835c746461359f552835f6002015460405161014a9291906102d7565b60405180910390a25050506102fe565b5f5ffd5b5f73ffffffffffffffffffffffffffffffffffffffff82169050919050565b5f6101878261015e565b9050919050565b6101978161017d565b81146101a1575f5ffd5b50565b5f815190506101b28161018e565b92915050565b5f819050919050565b6101ca816101b8565b81146101d4575f5ffd5b50565b5f815190506101e5816101c1565b92915050565b5f5f5f606084860312156102025761020161015a565b5b5f61020f868287016101a4565b9350506020610220868287016101d7565b9250506040610231868287016101d7565b9150509250925092565b7f4e487b71000000000000000000000000000000000000000000000000000000005f52601160045260245ffd5b5f610272826101b8565b915061027d836101b8565b92508282019050808211156102955761029461023b565b5b92915050565b7f4e487b71000000000000000000000000000000000000000000000000000000005f52602160045260245ffd5b6102d1816101b8565b82525050565b5f6040820190506102ea5f8301856102c8565b6102f760208301846102c8565b9392505050565b610fae8061030b5f395ff3fe60806040526004361061003e575f3560e01c80633ccfd60b146100425780634bb278f31461004c578063590e1ae314610062578063d7bb99ba1461006c575b5f5ffd5b61004a610076565b005b348015610057575f5ffd5b506100606102dc565b005b61006a610391565b005b61007461060a565b005b5f5f015f9054906101000a900473ffffffffffffffffffffffffffffffffffffffff1673ffffffffffffffffffffffffffffffffffffffff163373ffffffffffffffffffffffffffffffffffffffff1614610106576040517f08c379a00000000000000000000000000000000000000000000000000000000081526004016100fd90610922565b60405180910390fd5b6001600381111561011a57610119610940565b5b5f6004015f9054906101000a900460ff16600381111561013d5761013c610940565b5b1461017d576040517f08c379a0000000000000000000000000000000000000000000000000000000008152600401610174906109b7565b60405180910390fd5b5f5f6003015411801561019c575060065f9054906101000a900460ff16155b6101db576040517f08c379a00000000000000000000000000000000000000000000000000000000081526004016101d290610a1f565b60405180910390fd5b5f3373ffffffffffffffffffffffffffffffffffffffff165f6003015460405161020490610a6a565b5f6040518083038185875af1925050503d805f811461023e576040519150601f19603f3d011682016040523d82523d5f602084013e610243565b606091505b5050905080610287576040517f08c379a000000000000000000000000000000000000000000000000000000000815260040161027e90610ac8565b60405180910390fd5b3373ffffffffffffffffffffffffffffffffffffffff167f7084f5476618d8e60b11ef0d7d3f06914655adb8793e28ff7f018d4c76d505d55f600301546040516102d19190610afe565b60405180910390a250565b5f600201544211610322576040517f08c379a000000000000000000000000000000000000000000000000000000000815260040161031990610b61565b60405180910390fd5b5f600101545f60030154106103625760015f6004015f6101000a81548160ff0219169083600381111561035857610357610940565b5b021790555061038f565b60025f6004015f6101000a81548160ff0219169083600381111561038957610388610940565b5b02179055505b565b600260038111156103a5576103a4610940565b5b5f6004015f9054906101000a900460ff1660038111156103c8576103c7610940565b5b14610408576040517f08c379a00000000000000000000000000000000000000000000000000000000081526004016103ff90610bc9565b60405180910390fd5b5f5f6005015f3373ffffffffffffffffffffffffffffffffffffffff1673ffffffffffffffffffffffffffffffffffffffff1681526020019081526020015f205411610489576040517f08c379a000000000000000000000000000000000000000000000000000000000815260040161048090610c57565b60405180910390fd5b5f5f6005015f3373ffffffffffffffffffffffffffffffffffffffff1673ffffffffffffffffffffffffffffffffffffffff1681526020019081526020015f205490505f5f6005015f3373ffffffffffffffffffffffffffffffffffffffff1673ffffffffffffffffffffffffffffffffffffffff1681526020019081526020015f20819055505f3373ffffffffffffffffffffffffffffffffffffffff168260405161053590610a6a565b5f6040518083038185875af1925050503d805f811461056f576040519150601f19603f3d011682016040523d82523d5f602084013e610574565b606091505b50509050806105b8576040517f08c379a00000000000000000000000000000000000000000000000000000000081526004016105af90610cbf565b60405180910390fd5b3373ffffffffffffffffffffffffffffffffffffffff167fbb28353e4598c3b9199101a66e0989549b659a59a54d2c27fbb183f1932c8e6d836040516105fe9190610afe565b60405180910390a25050565b5f5f015f9054906101000a900473ffffffffffffffffffffffffffffffffffffffff1673ffffffffffffffffffffffffffffffffffffffff163373ffffffffffffffffffffffffffffffffffffffff160361069a576040517f08c379a000000000000000000000000000000000000000000000000000000000815260040161069190610d4d565b60405180910390fd5b5f60038111156106ad576106ac610940565b5b5f6004015f9054906101000a900460ff1660038111156106d0576106cf610940565b5b14610710576040517f08c379a000000000000000000000000000000000000000000000000000000000815260040161070790610ddb565b60405180910390fd5b5f600201544210610756576040517f08c379a000000000000000000000000000000000000000000000000000000000815260040161074d90610e43565b60405180910390fd5b5f3411610798576040517f08c379a000000000000000000000000000000000000000000000000000000000815260040161078f90610eab565b60405180910390fd5b345f6005015f3373ffffffffffffffffffffffffffffffffffffffff1673ffffffffffffffffffffffffffffffffffffffff1681526020019081526020015f205f8282546107e69190610ef6565b92505081905550345f6003015f8282546108009190610ef6565b925050819055505f5f600101545f600301541015905080156108495760015f6004015f6101000a81548160ff0219169083600381111561084357610842610940565b5b02179055505b3373ffffffffffffffffffffffffffffffffffffffff167fa3cf76d32602a2a687abed22e487ac1357d386fecf9be68fe771f9c97606f3c3345f600301548460405161089793929190610f43565b60405180910390a250565b5f82825260208201905092915050565b7f6f6e6c79206f776e65722068617320726967687420746f2074686973206163745f8201527f696f6e2100000000000000000000000000000000000000000000000000000000602082015250565b5f61090c6024836108a2565b9150610917826108b2565b604082019050919050565b5f6020820190508181035f83015261093981610900565b9050919050565b7f4e487b71000000000000000000000000000000000000000000000000000000005f52602160045260245ffd5b7f636f6d706169676e206973206e6f7420796574207375636365737366756c00005f82015250565b5f6109a1601e836108a2565b91506109ac8261096d565b602082019050919050565b5f6020820190508181035f8301526109ce81610995565b9050919050565b7f57697468647261776e206973206e6f7420706f737369626c65210000000000005f82015250565b5f610a09601a836108a2565b9150610a14826109d5565b602082019050919050565b5f6020820190508181035f830152610a36816109fd565b9050919050565b5f81905092915050565b50565b5f610a555f83610a3d565b9150610a6082610a47565b5f82019050919050565b5f610a7482610a4a565b9150819050919050565b7f455448207769746864726177616c206661696c656421000000000000000000005f82015250565b5f610ab26016836108a2565b9150610abd82610a7e565b602082019050919050565b5f6020820190508181035f830152610adf81610aa6565b9050919050565b5f819050919050565b610af881610ae6565b82525050565b5f602082019050610b115f830184610aef565b92915050565b7f636f6d706169676e206973207374696c6c20696e2070726f67726573732100005f82015250565b5f610b4b601e836108a2565b9150610b5682610b17565b602082019050919050565b5f6020820190508181035f830152610b7881610b3f565b9050919050565b7f636f6d706169676e207374617465206973206e6f74206661696c0000000000005f82015250565b5f610bb3601a836108a2565b9150610bbe82610b7f565b602082019050919050565b5f6020820190508181035f830152610be081610ba7565b9050919050565b7f796f7520617265206e6f7420636f6e7472696275746f7220666f7220636f6d705f8201527f6169676e00000000000000000000000000000000000000000000000000000000602082015250565b5f610c416024836108a2565b9150610c4c82610be7565b604082019050919050565b5f6020820190508181035f830152610c6e81610c35565b9050919050565b7f4572726f72206f636375726564210000000000000000000000000000000000005f82015250565b5f610ca9600e836108a2565b9150610cb482610c75565b602082019050919050565b5f6020820190508181035f830152610cd681610c9d565b9050919050565b7f63726561746f7220686173206e6f2072696768747320746f20636f6e747269625f8201527f75746520696e20636f6d706169676e0000000000000000000000000000000000602082015250565b5f610d37602f836108a2565b9150610d4282610cdd565b604082019050919050565b5f6020820190508181035f830152610d6481610d2b565b9050919050565b7f636f6d706169676e206973206e6f7420756e64657220746865207374617465205f8201527f46554e44494e4700000000000000000000000000000000000000000000000000602082015250565b5f610dc56027836108a2565b9150610dd082610d6b565b604082019050919050565b5f6020820190508181035f830152610df281610db9565b9050919050565b7f646561646c696e65206d697373656421000000000000000000000000000000005f82015250565b5f610e2d6010836108a2565b9150610e3882610df9565b602082019050919050565b5f6020820190508181035f830152610e5a81610e21565b9050919050565b7f416d6f756e74206f6620636f6e7469627574696f6e206973207a65726f2100005f82015250565b5f610e95601e836108a2565b9150610ea082610e61565b602082019050919050565b5f6020820190508181035f830152610ec281610e89565b9050919050565b7f4e487b71000000000000000000000000000000000000000000000000000000005f52601160045260245ffd5b5f610f0082610ae6565b9150610f0b83610ae6565b9250828201905080821115610f2357610f22610ec9565b5b92915050565b5f8115159050919050565b610f3d81610f29565b82525050565b5f606082019050610f565f830186610aef565b610f636020830185610aef565b610f706040830184610f34565b94935050505056fea2646970667358221220bf20cc61ce623bb06721d2b0fcc0ce75593a4bd6b6e655ff34834be33e66ef6464736f6c634300081e0033",
					"opcodes": "PUSH1 0x80 PUSH1 0x40 MSTORE PUSH0 PUSH1 0x6 PUSH0 PUSH2 0x100 EXP DUP2 SLOAD DUP2 PUSH1 0xFF MUL NOT AND SWAP1 DUP4 ISZERO ISZERO MUL OR SWAP1 SSTORE POP CALLVALUE DUP1 ISZERO PUSH2 0x28 JUMPI PUSH0 PUSH0 REVERT JUMPDEST POP PUSH1 0x40 MLOAD PUSH2 0x12B9 CODESIZE SUB DUP1 PUSH2 0x12B9 DUP4 CODECOPY DUP2 DUP2 ADD PUSH1 0x40 MSTORE DUP2 ADD SWAP1 PUSH2 0x4A SWAP2 SWAP1 PUSH2 0x1EB JUMP JUMPDEST DUP3 PUSH0 PUSH0 ADD PUSH0 PUSH2 0x100 EXP DUP2 SLOAD DUP2 PUSH20 0xFFFFFFFFFFFFFFFFFFFFFFFFFFFFFFFFFFFFFFFF MUL NOT AND SWAP1 DUP4 PUSH20 0xFFFFFFFFFFFFFFFFFFFFFFFFFFFFFFFFFFFFFFFF AND MUL OR SWAP1 SSTORE POP DUP2 PUSH0 PUSH1 0x1 ADD DUP2 SWAP1 SSTORE POP DUP1 TIMESTAMP PUSH2 0xA0 SWAP2 SWAP1 PUSH2 0x268 JUMP JUMPDEST PUSH0 PUSH1 0x2 ADD DUP2 SWAP1 SSTORE POP PUSH0 PUSH0 PUSH1 0x3 ADD DUP2 SWAP1 SSTORE POP PUSH0 PUSH0 PUSH1 0x4 ADD PUSH0 PUSH2 0x100 EXP DUP2 SLOAD DUP2 PUSH1 0xFF MUL NOT AND SWAP1 DUP4 PUSH1 0x3 DUP2 GT ISZERO PUSH2 0xD7 JUMPI PUSH2 0xD6 PUSH2 0x29B JUMP JUMPDEST JUMPDEST MUL OR SWAP1 SSTORE POP PUSH0 PUSH0 ADD PUSH0 SWAP1 SLOAD SWAP1 PUSH2 0x100 EXP SWAP1 DIV PUSH20 0xFFFFFFFFFFFFFFFFFFFFFFFFFFFFFFFFFFFFFFFF AND PUSH20 0xFFFFFFFFFFFFFFFFFFFFFFFFFFFFFFFFFFFFFFFF AND PUSH32 0x681F945F90CA3793B37315ED6A012353C82C1B37CA023EF835C746461359F552 DUP4 PUSH0 PUSH1 0x2 ADD SLOAD PUSH1 0x40 MLOAD PUSH2 0x14A SWAP3 SWAP2 SWAP1 PUSH2 0x2D7 JUMP JUMPDEST PUSH1 0x40 MLOAD DUP1 SWAP2 SUB SWAP1 LOG2 POP POP POP PUSH2 0x2FE JUMP JUMPDEST PUSH0 PUSH0 REVERT JUMPDEST PUSH0 PUSH20 0xFFFFFFFFFFFFFFFFFFFFFFFFFFFFFFFFFFFFFFFF DUP3 AND SWAP1 POP SWAP2 SWAP1 POP JUMP JUMPDEST PUSH0 PUSH2 0x187 DUP3 PUSH2 0x15E JUMP JUMPDEST SWAP1 POP SWAP2 SWAP1 POP JUMP JUMPDEST PUSH2 0x197 DUP2 PUSH2 0x17D JUMP JUMPDEST DUP2 EQ PUSH2 0x1A1 JUMPI PUSH0 PUSH0 REVERT JUMPDEST POP JUMP JUMPDEST PUSH0 DUP2 MLOAD SWAP1 POP PUSH2 0x1B2 DUP2 PUSH2 0x18E JUMP JUMPDEST SWAP3 SWAP2 POP POP JUMP JUMPDEST PUSH0 DUP2 SWAP1 POP SWAP2 SWAP1 POP JUMP JUMPDEST PUSH2 0x1CA DUP2 PUSH2 0x1B8 JUMP JUMPDEST DUP2 EQ PUSH2 0x1D4 JUMPI PUSH0 PUSH0 REVERT JUMPDEST POP JUMP JUMPDEST PUSH0 DUP2 MLOAD SWAP1 POP PUSH2 0x1E5 DUP2 PUSH2 0x1C1 JUMP JUMPDEST SWAP3 SWAP2 POP POP JUMP JUMPDEST PUSH0 PUSH0 PUSH0 PUSH1 0x60 DUP5 DUP7 SUB SLT ISZERO PUSH2 0x202 JUMPI PUSH2 0x201 PUSH2 0x15A JUMP JUMPDEST JUMPDEST PUSH0 PUSH2 0x20F DUP7 DUP3 DUP8 ADD PUSH2 0x1A4 JUMP JUMPDEST SWAP4 POP POP PUSH1 0x20 PUSH2 0x220 DUP7 DUP3 DUP8 ADD PUSH2 0x1D7 JUMP JUMPDEST SWAP3 POP POP PUSH1 0x40 PUSH2 0x231 DUP7 DUP3 DUP8 ADD PUSH2 0x1D7 JUMP JUMPDEST SWAP2 POP POP SWAP3 POP SWAP3 POP SWAP3 JUMP JUMPDEST PUSH32 0x4E487B7100000000000000000000000000000000000000000000000000000000 PUSH0 MSTORE PUSH1 0x11 PUSH1 0x4 MSTORE PUSH1 0x24 PUSH0 REVERT JUMPDEST PUSH0 PUSH2 0x272 DUP3 PUSH2 0x1B8 JUMP JUMPDEST SWAP2 POP PUSH2 0x27D DUP4 PUSH2 0x1B8 JUMP JUMPDEST SWAP3 POP DUP3 DUP3 ADD SWAP1 POP DUP1 DUP3 GT ISZERO PUSH2 0x295 JUMPI PUSH2 0x294 PUSH2 0x23B JUMP JUMPDEST JUMPDEST SWAP3 SWAP2 POP POP JUMP JUMPDEST PUSH32 0x4E487B7100000000000000000000000000000000000000000000000000000000 PUSH0 MSTORE PUSH1 0x21 PUSH1 0x4 MSTORE PUSH1 0x24 PUSH0 REVERT JUMPDEST PUSH2 0x2D1 DUP2 PUSH2 0x1B8 JUMP JUMPDEST DUP3 MSTORE POP POP JUMP JUMPDEST PUSH0 PUSH1 0x40 DUP3 ADD SWAP1 POP PUSH2 0x2EA PUSH0 DUP4 ADD DUP6 PUSH2 0x2C8 JUMP JUMPDEST PUSH2 0x2F7 PUSH1 0x20 DUP4 ADD DUP5 PUSH2 0x2C8 JUMP JUMPDEST SWAP4 SWAP3 POP POP POP JUMP JUMPDEST PUSH2 0xFAE DUP1 PUSH2 0x30B PUSH0 CODECOPY PUSH0 RETURN INVALID PUSH1 0x80 PUSH1 0x40 MSTORE PUSH1 0x4 CALLDATASIZE LT PUSH2 0x3E JUMPI PUSH0 CALLDATALOAD PUSH1 0xE0 SHR DUP1 PUSH4 0x3CCFD60B EQ PUSH2 0x42 JUMPI DUP1 PUSH4 0x4BB278F3 EQ PUSH2 0x4C JUMPI DUP1 PUSH4 0x590E1AE3 EQ PUSH2 0x62 JUMPI DUP1 PUSH4 0xD7BB99BA EQ PUSH2 0x6C JUMPI JUMPDEST PUSH0 PUSH0 REVERT JUMPDEST PUSH2 0x4A PUSH2 0x76 JUMP JUMPDEST STOP JUMPDEST CALLVALUE DUP1 ISZERO PUSH2 0x57 JUMPI PUSH0 PUSH0 REVERT JUMPDEST POP PUSH2 0x60 PUSH2 0x2DC JUMP JUMPDEST STOP JUMPDEST PUSH2 0x6A PUSH2 0x391 JUMP JUMPDEST STOP JUMPDEST PUSH2 0x74 PUSH2 0x60A JUMP JUMPDEST STOP JUMPDEST PUSH0 PUSH0 ADD PUSH0 SWAP1 SLOAD SWAP1 PUSH2 0x100 EXP SWAP1 DIV PUSH20 0xFFFFFFFFFFFFFFFFFFFFFFFFFFFFFFFFFFFFFFFF AND PUSH20 0xFFFFFFFFFFFFFFFFFFFFFFFFFFFFFFFFFFFFFFFF AND CALLER PUSH20 0xFFFFFFFFFFFFFFFFFFFFFFFFFFFFFFFFFFFFFFFF AND EQ PUSH2 0x106 JUMPI PUSH1 0x40 MLOAD PUSH32 0x8C379A000000000000000000000000000000000000000000000000000000000 DUP2 MSTORE PUSH1 0x4 ADD PUSH2 0xFD SWAP1 PUSH2 0x922 JUMP JUMPDEST PUSH1 0x40 MLOAD DUP1 SWAP2 SUB SWAP1 REVERT JUMPDEST PUSH1 0x1 PUSH1 0x3 DUP2 GT ISZERO PUSH2 0x11A JUMPI PUSH2 0x119 PUSH2 0x940 JUMP JUMPDEST JUMPDEST PUSH0 PUSH1 0x4 ADD PUSH0 SWAP1 SLOAD SWAP1 PUSH2 0x100 EXP SWAP1 DIV PUSH1 0xFF AND PUSH1 0x3 DUP2 GT ISZERO PUSH2 0x13D JUMPI PUSH2 0x13C PUSH2 0x940 JUMP JUMPDEST JUMPDEST EQ PUSH2 0x17D JUMPI PUSH1 0x40 MLOAD PUSH32 0x8C379A000000000000000000000000000000000000000000000000000000000 DUP2 MSTORE PUSH1 0x4 ADD PUSH2 0x174 SWAP1 PUSH2 0x9B7 JUMP JUMPDEST PUSH1 0x40 MLOAD DUP1 SWAP2 SUB SWAP1 REVERT JUMPDEST PUSH0 PUSH0 PUSH1 0x3 ADD SLOAD GT DUP1 ISZERO PUSH2 0x19C JUMPI POP PUSH1 0x6 PUSH0 SWAP1 SLOAD SWAP1 PUSH2 0x100 EXP SWAP1 DIV PUSH1 0xFF AND ISZERO JUMPDEST PUSH2 0x1DB JUMPI PUSH1 0x40 MLOAD PUSH32 0x8C379A000000000000000000000000000000000000000000000000000000000 DUP2 MSTORE PUSH1 0x4 ADD PUSH2 0x1D2 SWAP1 PUSH2 0xA1F JUMP JUMPDEST PUSH1 0x40 MLOAD DUP1 SWAP2 SUB SWAP1 REVERT JUMPDEST PUSH0 CALLER PUSH20 0xFFFFFFFFFFFFFFFFFFFFFFFFFFFFFFFFFFFFFFFF AND PUSH0 PUSH1 0x3 ADD SLOAD PUSH1 0x40 MLOAD PUSH2 0x204 SWAP1 PUSH2 0xA6A JUMP JUMPDEST PUSH0 PUSH1 0x40 MLOAD DUP1 DUP4 SUB DUP2 DUP6 DUP8 GAS CALL SWAP3 POP POP POP RETURNDATASIZE DUP1 PUSH0 DUP2 EQ PUSH2 0x23E JUMPI PUSH1 0x40 MLOAD SWAP2 POP PUSH1 0x1F NOT PUSH1 0x3F RETURNDATASIZE ADD AND DUP3 ADD PUSH1 0x40 MSTORE RETURNDATASIZE DUP3 MSTORE RETURNDATASIZE PUSH0 PUSH1 0x20 DUP5 ADD RETURNDATACOPY PUSH2 0x243 JUMP JUMPDEST PUSH1 0x60 SWAP2 POP JUMPDEST POP POP SWAP1 POP DUP1 PUSH2 0x287 JUMPI PUSH1 0x40 MLOAD PUSH32 0x8C379A000000000000000000000000000000000000000000000000000000000 DUP2 MSTORE PUSH1 0x4 ADD PUSH2 0x27E SWAP1 PUSH2 0xAC8 JUMP JUMPDEST PUSH1 0x40 MLOAD DUP1 SWAP2 SUB SWAP1 REVERT JUMPDEST CALLER PUSH20 0xFFFFFFFFFFFFFFFFFFFFFFFFFFFFFFFFFFFFFFFF AND PUSH32 0x7084F5476618D8E60B11EF0D7D3F06914655ADB8793E28FF7F018D4C76D505D5 PUSH0 PUSH1 0x3 ADD SLOAD PUSH1 0x40 MLOAD PUSH2 0x2D1 SWAP2 SWAP1 PUSH2 0xAFE JUMP JUMPDEST PUSH1 0x40 MLOAD DUP1 SWAP2 SUB SWAP1 LOG2 POP JUMP JUMPDEST PUSH0 PUSH1 0x2 ADD SLOAD TIMESTAMP GT PUSH2 0x322 JUMPI PUSH1 0x40 MLOAD PUSH32 0x8C379A000000000000000000000000000000000000000000000000000000000 DUP2 MSTORE PUSH1 0x4 ADD PUSH2 0x319 SWAP1 PUSH2 0xB61 JUMP JUMPDEST PUSH1 0x40 MLOAD DUP1 SWAP2 SUB SWAP1 REVERT JUMPDEST PUSH0 PUSH1 0x1 ADD SLOAD PUSH0 PUSH1 0x3 ADD SLOAD LT PUSH2 0x362 JUMPI PUSH1 0x1 PUSH0 PUSH1 0x4 ADD PUSH0 PUSH2 0x100 EXP DUP2 SLOAD DUP2 PUSH1 0xFF MUL NOT AND SWAP1 DUP4 PUSH1 0x3 DUP2 GT ISZERO PUSH2 0x358 JUMPI PUSH2 0x357 PUSH2 0x940 JUMP JUMPDEST JUMPDEST MUL OR SWAP1 SSTORE POP PUSH2 0x38F JUMP JUMPDEST PUSH1 0x2 PUSH0 PUSH1 0x4 ADD PUSH0 PUSH2 0x100 EXP DUP2 SLOAD DUP2 PUSH1 0xFF MUL NOT AND SWAP1 DUP4 PUSH1 0x3 DUP2 GT ISZERO PUSH2 0x389 JUMPI PUSH2 0x388 PUSH2 0x940 JUMP JUMPDEST JUMPDEST MUL OR SWAP1 SSTORE POP JUMPDEST JUMP JUMPDEST PUSH1 0x2 PUSH1 0x3 DUP2 GT ISZERO PUSH2 0x3A5 JUMPI PUSH2 0x3A4 PUSH2 0x940 JUMP JUMPDEST JUMPDEST PUSH0 PUSH1 0x4 ADD PUSH0 SWAP1 SLOAD SWAP1 PUSH2 0x100 EXP SWAP1 DIV PUSH1 0xFF AND PUSH1 0x3 DUP2 GT ISZERO PUSH2 0x3C8 JUMPI PUSH2 0x3C7 PUSH2 0x940 JUMP JUMPDEST JUMPDEST EQ PUSH2 0x408 JUMPI PUSH1 0x40 MLOAD PUSH32 0x8C379A000000000000000000000000000000000000000000000000000000000 DUP2 MSTORE PUSH1 0x4 ADD PUSH2 0x3FF SWAP1 PUSH2 0xBC9 JUMP JUMPDEST PUSH1 0x40 MLOAD DUP1 SWAP2 SUB SWAP1 REVERT JUMPDEST PUSH0 PUSH0 PUSH1 0x5 ADD PUSH0 CALLER PUSH20 0xFFFFFFFFFFFFFFFFFFFFFFFFFFFFFFFFFFFFFFFF AND PUSH20 0xFFFFFFFFFFFFFFFFFFFFFFFFFFFFFFFFFFFFFFFF AND DUP2 MSTORE PUSH1 0x20 ADD SWAP1 DUP2 MSTORE PUSH1 0x20 ADD PUSH0 KECCAK256 SLOAD GT PUSH2 0x489 JUMPI PUSH1 0x40 MLOAD PUSH32 0x8C379A000000000000000000000000000000000000000000000000000000000 DUP2 MSTORE PUSH1 0x4 ADD PUSH2 0x480 SWAP1 PUSH2 0xC57 JUMP JUMPDEST PUSH1 0x40 MLOAD DUP1 SWAP2 SUB SWAP1 REVERT JUMPDEST PUSH0 PUSH0 PUSH1 0x5 ADD PUSH0 CALLER PUSH20 0xFFFFFFFFFFFFFFFFFFFFFFFFFFFFFFFFFFFFFFFF AND PUSH20 0xFFFFFFFFFFFFFFFFFFFFFFFFFFFFFFFFFFFFFFFF AND DUP2 MSTORE PUSH1 0x20 ADD SWAP1 DUP2 MSTORE PUSH1 0x20 ADD PUSH0 KECCAK256 SLOAD SWAP1 POP PUSH0 PUSH0 PUSH1 0x5 ADD PUSH0 CALLER PUSH20 0xFFFFFFFFFFFFFFFFFFFFFFFFFFFFFFFFFFFFFFFF AND PUSH20 0xFFFFFFFFFFFFFFFFFFFFFFFFFFFFFFFFFFFFFFFF AND DUP2 MSTORE PUSH1 0x20 ADD SWAP1 DUP2 MSTORE PUSH1 0x20 ADD PUSH0 KECCAK256 DUP2 SWAP1 SSTORE POP PUSH0 CALLER PUSH20 0xFFFFFFFFFFFFFFFFFFFFFFFFFFFFFFFFFFFFFFFF AND DUP3 PUSH1 0x40 MLOAD PUSH2 0x535 SWAP1 PUSH2 0xA6A JUMP JUMPDEST PUSH0 PUSH1 0x40 MLOAD DUP1 DUP4 SUB DUP2 DUP6 DUP8 GAS CALL SWAP3 POP POP POP RETURNDATASIZE DUP1 PUSH0 DUP2 EQ PUSH2 0x56F JUMPI PUSH1 0x40 MLOAD SWAP2 POP PUSH1 0x1F NOT PUSH1 0x3F RETURNDATASIZE ADD AND DUP3 ADD PUSH1 0x40 MSTORE RETURNDATASIZE DUP3 MSTORE RETURNDATASIZE PUSH0 PUSH1 0x20 DUP5 ADD RETURNDATACOPY PUSH2 0x574 JUMP JUMPDEST PUSH1 0x60 SWAP2 POP JUMPDEST POP POP SWAP1 POP DUP1 PUSH2 0x5B8 JUMPI PUSH1 0x40 MLOAD PUSH32 0x8C379A000000000000000000000000000000000000000000000000000000000 DUP2 MSTORE PUSH1 0x4 ADD PUSH2 0x5AF SWAP1 PUSH2 0xCBF JUMP JUMPDEST PUSH1 0x40 MLOAD DUP1 SWAP2 SUB SWAP1 REVERT JUMPDEST CALLER PUSH20 0xFFFFFFFFFFFFFFFFFFFFFFFFFFFFFFFFFFFFFFFF AND PUSH32 0xBB28353E4598C3B9199101A66E0989549B659A59A54D2C27FBB183F1932C8E6D DUP4 PUSH1 0x40 MLOAD PUSH2 0x5FE SWAP2 SWAP1 PUSH2 0xAFE JUMP JUMPDEST PUSH1 0x40 MLOAD DUP1 SWAP2 SUB SWAP1 LOG2 POP POP JUMP JUMPDEST PUSH0 PUSH0 ADD PUSH0 SWAP1 SLOAD SWAP1 PUSH2 0x100 EXP SWAP1 DIV PUSH20 0xFFFFFFFFFFFFFFFFFFFFFFFFFFFFFFFFFFFFFFFF AND PUSH20 0xFFFFFFFFFFFFFFFFFFFFFFFFFFFFFFFFFFFFFFFF AND CALLER PUSH20 0xFFFFFFFFFFFFFFFFFFFFFFFFFFFFFFFFFFFFFFFF AND SUB PUSH2 0x69A JUMPI PUSH1 0x40 MLOAD PUSH32 0x8C379A000000000000000000000000000000000000000000000000000000000 DUP2 MSTORE PUSH1 0x4 ADD PUSH2 0x691 SWAP1 PUSH2 0xD4D JUMP JUMPDEST PUSH1 0x40 MLOAD DUP1 SWAP2 SUB SWAP1 REVERT JUMPDEST PUSH0 PUSH1 0x3 DUP2 GT ISZERO PUSH2 0x6AD JUMPI PUSH2 0x6AC PUSH2 0x940 JUMP JUMPDEST JUMPDEST PUSH0 PUSH1 0x4 ADD PUSH0 SWAP1 SLOAD SWAP1 PUSH2 0x100 EXP SWAP1 DIV PUSH1 0xFF AND PUSH1 0x3 DUP2 GT ISZERO PUSH2 0x6D0 JUMPI PUSH2 0x6CF PUSH2 0x940 JUMP JUMPDEST JUMPDEST EQ PUSH2 0x710 JUMPI PUSH1 0x40 MLOAD PUSH32 0x8C379A000000000000000000000000000000000000000000000000000000000 DUP2 MSTORE PUSH1 0x4 ADD PUSH2 0x707 SWAP1 PUSH2 0xDDB JUMP JUMPDEST PUSH1 0x40 MLOAD DUP1 SWAP2 SUB SWAP1 REVERT JUMPDEST PUSH0 PUSH1 0x2 ADD SLOAD TIMESTAMP LT PUSH2 0x756 JUMPI PUSH1 0x40 MLOAD PUSH32 0x8C379A000000000000000000000000000000000000000000000000000000000 DUP2 MSTORE PUSH1 0x4 ADD PUSH2 0x74D SWAP1 PUSH2 0xE43 JUMP JUMPDEST PUSH1 0x40 MLOAD DUP1 SWAP2 SUB SWAP1 REVERT JUMPDEST PUSH0 CALLVALUE GT PUSH2 0x798 JUMPI PUSH1 0x40 MLOAD PUSH32 0x8C379A000000000000000000000000000000000000000000000000000000000 DUP2 MSTORE PUSH1 0x4 ADD PUSH2 0x78F SWAP1 PUSH2 0xEAB JUMP JUMPDEST PUSH1 0x40 MLOAD DUP1 SWAP2 SUB SWAP1 REVERT JUMPDEST CALLVALUE PUSH0 PUSH1 0x5 ADD PUSH0 CALLER PUSH20 0xFFFFFFFFFFFFFFFFFFFFFFFFFFFFFFFFFFFFFFFF AND PUSH20 0xFFFFFFFFFFFFFFFFFFFFFFFFFFFFFFFFFFFFFFFF AND DUP2 MSTORE PUSH1 0x20 ADD SWAP1 DUP2 MSTORE PUSH1 0x20 ADD PUSH0 KECCAK256 PUSH0 DUP3 DUP3 SLOAD PUSH2 0x7E6 SWAP2 SWAP1 PUSH2 0xEF6 JUMP JUMPDEST SWAP3 POP POP DUP2 SWAP1 SSTORE POP CALLVALUE PUSH0 PUSH1 0x3 ADD PUSH0 DUP3 DUP3 SLOAD PUSH2 0x800 SWAP2 SWAP1 PUSH2 0xEF6 JUMP JUMPDEST SWAP3 POP POP DUP2 SWAP1 SSTORE POP PUSH0 PUSH0 PUSH1 0x1 ADD SLOAD PUSH0 PUSH1 0x3 ADD SLOAD LT ISZERO SWAP1 POP DUP1 ISZERO PUSH2 0x849 JUMPI PUSH1 0x1 PUSH0 PUSH1 0x4 ADD PUSH0 PUSH2 0x100 EXP DUP2 SLOAD DUP2 PUSH1 0xFF MUL NOT AND SWAP1 DUP4 PUSH1 0x3 DUP2 GT ISZERO PUSH2 0x843 JUMPI PUSH2 0x842 PUSH2 0x940 JUMP JUMPDEST JUMPDEST MUL OR SWAP1 SSTORE POP JUMPDEST CALLER PUSH20 0xFFFFFFFFFFFFFFFFFFFFFFFFFFFFFFFFFFFFFFFF AND PUSH32 0xA3CF76D32602A2A687ABED22E487AC1357D386FECF9BE68FE771F9C97606F3C3 CALLVALUE PUSH0 PUSH1 0x3 ADD SLOAD DUP5 PUSH1 0x40 MLOAD PUSH2 0x897 SWAP4 SWAP3 SWAP2 SWAP1 PUSH2 0xF43 JUMP JUMPDEST PUSH1 0x40 MLOAD DUP1 SWAP2 SUB SWAP1 LOG2 POP JUMP JUMPDEST PUSH0 DUP3 DUP3 MSTORE PUSH1 0x20 DUP3 ADD SWAP1 POP SWAP3 SWAP2 POP POP JUMP JUMPDEST PUSH32 0x6F6E6C79206F776E65722068617320726967687420746F207468697320616374 PUSH0 DUP3 ADD MSTORE PUSH32 0x696F6E2100000000000000000000000000000000000000000000000000000000 PUSH1 0x20 DUP3 ADD MSTORE POP JUMP JUMPDEST PUSH0 PUSH2 0x90C PUSH1 0x24 DUP4 PUSH2 0x8A2 JUMP JUMPDEST SWAP2 POP PUSH2 0x917 DUP3 PUSH2 0x8B2 JUMP JUMPDEST PUSH1 0x40 DUP3 ADD SWAP1 POP SWAP2 SWAP1 POP JUMP JUMPDEST PUSH0 PUSH1 0x20 DUP3 ADD SWAP1 POP DUP2 DUP2 SUB PUSH0 DUP4 ADD MSTORE PUSH2 0x939 DUP2 PUSH2 0x900 JUMP JUMPDEST SWAP1 POP SWAP2 SWAP1 POP JUMP JUMPDEST PUSH32 0x4E487B7100000000000000000000000000000000000000000000000000000000 PUSH0 MSTORE PUSH1 0x21 PUSH1 0x4 MSTORE PUSH1 0x24 PUSH0 REVERT JUMPDEST PUSH32 0x636F6D706169676E206973206E6F7420796574207375636365737366756C0000 PUSH0 DUP3 ADD MSTORE POP JUMP JUMPDEST PUSH0 PUSH2 0x9A1 PUSH1 0x1E DUP4 PUSH2 0x8A2 JUMP JUMPDEST SWAP2 POP PUSH2 0x9AC DUP3 PUSH2 0x96D JUMP JUMPDEST PUSH1 0x20 DUP3 ADD SWAP1 POP SWAP2 SWAP1 POP JUMP JUMPDEST PUSH0 PUSH1 0x20 DUP3 ADD SWAP1 POP DUP2 DUP2 SUB PUSH0 DUP4 ADD MSTORE PUSH2 0x9CE DUP2 PUSH2 0x995 JUMP JUMPDEST SWAP1 POP SWAP2 SWAP1 POP JUMP JUMPDEST PUSH32 0x57697468647261776E206973206E6F7420706F737369626C6521000000000000 PUSH0 DUP3 ADD MSTORE POP JUMP JUMPDEST PUSH0 PUSH2 0xA09 PUSH1 0x1A DUP4 PUSH2 0x8A2 JUMP JUMPDEST SWAP2 POP PUSH2 0xA14 DUP3 PUSH2 0x9D5 JUMP JUMPDEST PUSH1 0x20 DUP3 ADD SWAP1 POP SWAP2 SWAP1 POP JUMP JUMPDEST PUSH0 PUSH1 0x20 DUP3 ADD SWAP1 POP DUP2 DUP2 SUB PUSH0 DUP4 ADD MSTORE PUSH2 0xA36 DUP2 PUSH2 0x9FD JUMP JUMPDEST SWAP1 POP SWAP2 SWAP1 POP JUMP JUMPDEST PUSH0 DUP2 SWAP1 POP SWAP3 SWAP2 POP POP JUMP JUMPDEST POP JUMP JUMPDEST PUSH0 PUSH2 0xA55 PUSH0 DUP4 PUSH2 0xA3D JUMP JUMPDEST SWAP2 POP PUSH2 0xA60 DUP3 PUSH2 0xA47 JUMP JUMPDEST PUSH0 DUP3 ADD SWAP1 POP SWAP2 SWAP1 POP JUMP JUMPDEST PUSH0 PUSH2 0xA74 DUP3 PUSH2 0xA4A JUMP JUMPDEST SWAP2 POP DUP2 SWAP1 POP SWAP2 SWAP1 POP JUMP JUMPDEST PUSH32 0x455448207769746864726177616C206661696C65642100000000000000000000 PUSH0 DUP3 ADD MSTORE POP JUMP JUMPDEST PUSH0 PUSH2 0xAB2 PUSH1 0x16 DUP4 PUSH2 0x8A2 JUMP JUMPDEST SWAP2 POP PUSH2 0xABD DUP3 PUSH2 0xA7E JUMP JUMPDEST PUSH1 0x20 DUP3 ADD SWAP1 POP SWAP2 SWAP1 POP JUMP JUMPDEST PUSH0 PUSH1 0x20 DUP3 ADD SWAP1 POP DUP2 DUP2 SUB PUSH0 DUP4 ADD MSTORE PUSH2 0xADF DUP2 PUSH2 0xAA6 JUMP JUMPDEST SWAP1 POP SWAP2 SWAP1 POP JUMP JUMPDEST PUSH0 DUP2 SWAP1 POP SWAP2 SWAP1 POP JUMP JUMPDEST PUSH2 0xAF8 DUP2 PUSH2 0xAE6 JUMP JUMPDEST DUP3 MSTORE POP POP JUMP JUMPDEST PUSH0 PUSH1 0x20 DUP3 ADD SWAP1 POP PUSH2 0xB11 PUSH0 DUP4 ADD DUP5 PUSH2 0xAEF JUMP JUMPDEST SWAP3 SWAP2 POP POP JUMP JUMPDEST PUSH32 0x636F6D706169676E206973207374696C6C20696E2070726F6772657373210000 PUSH0 DUP3 ADD MSTORE POP JUMP JUMPDEST PUSH0 PUSH2 0xB4B PUSH1 0x1E DUP4 PUSH2 0x8A2 JUMP JUMPDEST SWAP2 POP PUSH2 0xB56 DUP3 PUSH2 0xB17 JUMP JUMPDEST PUSH1 0x20 DUP3 ADD SWAP1 POP SWAP2 SWAP1 POP JUMP JUMPDEST PUSH0 PUSH1 0x20 DUP3 ADD SWAP1 POP DUP2 DUP2 SUB PUSH0 DUP4 ADD MSTORE PUSH2 0xB78 DUP2 PUSH2 0xB3F JUMP JUMPDEST SWAP1 POP SWAP2 SWAP1 POP JUMP JUMPDEST PUSH32 0x636F6D706169676E207374617465206973206E6F74206661696C000000000000 PUSH0 DUP3 ADD MSTORE POP JUMP JUMPDEST PUSH0 PUSH2 0xBB3 PUSH1 0x1A DUP4 PUSH2 0x8A2 JUMP JUMPDEST SWAP2 POP PUSH2 0xBBE DUP3 PUSH2 0xB7F JUMP JUMPDEST PUSH1 0x20 DUP3 ADD SWAP1 POP SWAP2 SWAP1 POP JUMP JUMPDEST PUSH0 PUSH1 0x20 DUP3 ADD SWAP1 POP DUP2 DUP2 SUB PUSH0 DUP4 ADD MSTORE PUSH2 0xBE0 DUP2 PUSH2 0xBA7 JUMP JUMPDEST SWAP1 POP SWAP2 SWAP1 POP JUMP JUMPDEST PUSH32 0x796F7520617265206E6F7420636F6E7472696275746F7220666F7220636F6D70 PUSH0 DUP3 ADD MSTORE PUSH32 0x6169676E00000000000000000000000000000000000000000000000000000000 PUSH1 0x20 DUP3 ADD MSTORE POP JUMP JUMPDEST PUSH0 PUSH2 0xC41 PUSH1 0x24 DUP4 PUSH2 0x8A2 JUMP JUMPDEST SWAP2 POP PUSH2 0xC4C DUP3 PUSH2 0xBE7 JUMP JUMPDEST PUSH1 0x40 DUP3 ADD SWAP1 POP SWAP2 SWAP1 POP JUMP JUMPDEST PUSH0 PUSH1 0x20 DUP3 ADD SWAP1 POP DUP2 DUP2 SUB PUSH0 DUP4 ADD MSTORE PUSH2 0xC6E DUP2 PUSH2 0xC35 JUMP JUMPDEST SWAP1 POP SWAP2 SWAP1 POP JUMP JUMPDEST PUSH32 0x4572726F72206F63637572656421000000000000000000000000000000000000 PUSH0 DUP3 ADD MSTORE POP JUMP JUMPDEST PUSH0 PUSH2 0xCA9 PUSH1 0xE DUP4 PUSH2 0x8A2 JUMP JUMPDEST SWAP2 POP PUSH2 0xCB4 DUP3 PUSH2 0xC75 JUMP JUMPDEST PUSH1 0x20 DUP3 ADD SWAP1 POP SWAP2 SWAP1 POP JUMP JUMPDEST PUSH0 PUSH1 0x20 DUP3 ADD SWAP1 POP DUP2 DUP2 SUB PUSH0 DUP4 ADD MSTORE PUSH2 0xCD6 DUP2 PUSH2 0xC9D JUMP JUMPDEST SWAP1 POP SWAP2 SWAP1 POP JUMP JUMPDEST PUSH32 0x63726561746F7220686173206E6F2072696768747320746F20636F6E74726962 PUSH0 DUP3 ADD MSTORE PUSH32 0x75746520696E20636F6D706169676E0000000000000000000000000000000000 PUSH1 0x20 DUP3 ADD MSTORE POP JUMP JUMPDEST PUSH0 PUSH2 0xD37 PUSH1 0x2F DUP4 PUSH2 0x8A2 JUMP JUMPDEST SWAP2 POP PUSH2 0xD42 DUP3 PUSH2 0xCDD JUMP JUMPDEST PUSH1 0x40 DUP3 ADD SWAP1 POP SWAP2 SWAP1 POP JUMP JUMPDEST PUSH0 PUSH1 0x20 DUP3 ADD SWAP1 POP DUP2 DUP2 SUB PUSH0 DUP4 ADD MSTORE PUSH2 0xD64 DUP2 PUSH2 0xD2B JUMP JUMPDEST SWAP1 POP SWAP2 SWAP1 POP JUMP JUMPDEST PUSH32 0x636F6D706169676E206973206E6F7420756E6465722074686520737461746520 PUSH0 DUP3 ADD MSTORE PUSH32 0x46554E44494E4700000000000000000000000000000000000000000000000000 PUSH1 0x20 DUP3 ADD MSTORE POP JUMP JUMPDEST PUSH0 PUSH2 0xDC5 PUSH1 0x27 DUP4 PUSH2 0x8A2 JUMP JUMPDEST SWAP2 POP PUSH2 0xDD0 DUP3 PUSH2 0xD6B JUMP JUMPDEST PUSH1 0x40 DUP3 ADD SWAP1 POP SWAP2 SWAP1 POP JUMP JUMPDEST PUSH0 PUSH1 0x20 DUP3 ADD SWAP1 POP DUP2 DUP2 SUB PUSH0 DUP4 ADD MSTORE PUSH2 0xDF2 DUP2 PUSH2 0xDB9 JUMP JUMPDEST SWAP1 POP SWAP2 SWAP1 POP JUMP JUMPDEST PUSH32 0x646561646C696E65206D69737365642100000000000000000000000000000000 PUSH0 DUP3 ADD MSTORE POP JUMP JUMPDEST PUSH0 PUSH2 0xE2D PUSH1 0x10 DUP4 PUSH2 0x8A2 JUMP JUMPDEST SWAP2 POP PUSH2 0xE38 DUP3 PUSH2 0xDF9 JUMP JUMPDEST PUSH1 0x20 DUP3 ADD SWAP1 POP SWAP2 SWAP1 POP JUMP JUMPDEST PUSH0 PUSH1 0x20 DUP3 ADD SWAP1 POP DUP2 DUP2 SUB PUSH0 DUP4 ADD MSTORE PUSH2 0xE5A DUP2 PUSH2 0xE21 JUMP JUMPDEST SWAP1 POP SWAP2 SWAP1 POP JUMP JUMPDEST PUSH32 0x416D6F756E74206F6620636F6E7469627574696F6E206973207A65726F210000 PUSH0 DUP3 ADD MSTORE POP JUMP JUMPDEST PUSH0 PUSH2 0xE95 PUSH1 0x1E DUP4 PUSH2 0x8A2 JUMP JUMPDEST SWAP2 POP PUSH2 0xEA0 DUP3 PUSH2 0xE61 JUMP JUMPDEST PUSH1 0x20 DUP3 ADD SWAP1 POP SWAP2 SWAP1 POP JUMP JUMPDEST PUSH0 PUSH1 0x20 DUP3 ADD SWAP1 POP DUP2 DUP2 SUB PUSH0 DUP4 ADD MSTORE PUSH2 0xEC2 DUP2 PUSH2 0xE89 JUMP JUMPDEST SWAP1 POP SWAP2 SWAP1 POP JUMP JUMPDEST PUSH32 0x4E487B7100000000000000000000000000000000000000000000000000000000 PUSH0 MSTORE PUSH1 0x11 PUSH1 0x4 MSTORE PUSH1 0x24 PUSH0 REVERT JUMPDEST PUSH0 PUSH2 0xF00 DUP3 PUSH2 0xAE6 JUMP JUMPDEST SWAP2 POP PUSH2 0xF0B DUP4 PUSH2 0xAE6 JUMP JUMPDEST SWAP3 POP DUP3 DUP3 ADD SWAP1 POP DUP1 DUP3 GT ISZERO PUSH2 0xF23 JUMPI PUSH2 0xF22 PUSH2 0xEC9 JUMP JUMPDEST JUMPDEST SWAP3 SWAP2 POP POP JUMP JUMPDEST PUSH0 DUP2 ISZERO ISZERO SWAP1 POP SWAP2 SWAP1 POP JUMP JUMPDEST PUSH2 0xF3D DUP2 PUSH2 0xF29 JUMP JUMPDEST DUP3 MSTORE POP POP JUMP JUMPDEST PUSH0 PUSH1 0x60 DUP3 ADD SWAP1 POP PUSH2 0xF56 PUSH0 DUP4 ADD DUP7 PUSH2 0xAEF JUMP JUMPDEST PUSH2 0xF63 PUSH1 0x20 DUP4 ADD DUP6 PUSH2 0xAEF JUMP JUMPDEST PUSH2 0xF70 PUSH1 0x40 DUP4 ADD DUP5 PUSH2 0xF34 JUMP JUMPDEST SWAP5 SWAP4 POP POP POP POP JUMP INVALID LOG2 PUSH5 0x6970667358 0x22 SLT KECCAK256 0xBF KECCAK256 0xCC PUSH2 0xCE62 EXTCODESIZE 0xB0 PUSH8 0x21D2B0FCC0CE7559 GASPRICE 0x4B 0xD6 0xB6 DUPN 0x55 SELFDESTRUCT CALLVALUE DUP4 0x4B CALLF 0x3E66 0xEF PUSH5 0x64736F6C63 NUMBER STOP ADDMOD 0x1E STOP CALLER "
				},
				"gasEstimates": {
					"creation": {
						"codeDepositCost": "802800",
						"executionCost": "infinite",
						"totalCost": "infinite"
					},
					"external": {
						"contribute()": "infinite",
						"finalize()": "30805",
						"refund()": "infinite",
						"withdraw()": "infinite"
					}
				},
				"methodIdentifiers": {
					"contribute()": "d7bb99ba",
					"finalize()": "4bb278f3",
					"refund()": "590e1ae3",
					"withdraw()": "3ccfd60b"
				}
			},
			"storageLayout": {
				"storage": [
					{
						"astId": 132,
						"contract": "CrowdFunding/CrowdFunding.sol:CrowdFunding",
						"label": "compaign",
						"offset": 0,
						"slot": "0",
						"type": "t_struct(Compaign)129_storage"
					},
					{
						"astId": 135,
						"contract": "CrowdFunding/CrowdFunding.sol:CrowdFunding",
						"label": "isWithdrawn",
						"offset": 0,
						"slot": "6",
						"type": "t_bool"
					}
				],
				"types": {
					"t_address": {
						"encoding": "inplace",
						"label": "address",
						"numberOfBytes": "20"
					},
					"t_bool": {
						"encoding": "inplace",
						"label": "bool",
						"numberOfBytes": "1"
					},
					"t_enum(State)113": {
						"encoding": "inplace",
						"label": "enum CrowdFunding.State",
						"numberOfBytes": "1"
					},
					"t_mapping(t_address,t_uint256)": {
						"encoding": "mapping",
						"key": "t_address",
						"label": "mapping(address => uint256)",
						"numberOfBytes": "32",
						"value": "t_uint256"
					},
					"t_struct(Compaign)129_storage": {
						"encoding": "inplace",
						"label": "struct CrowdFunding.Compaign",
						"members": [
							{
								"astId": 115,
								"contract": "CrowdFunding/CrowdFunding.sol:CrowdFunding",
								"label": "creator",
								"offset": 0,
								"slot": "0",
								"type": "t_address"
							},
							{
								"astId": 117,
								"contract": "CrowdFunding/CrowdFunding.sol:CrowdFunding",
								"label": "goal",
								"offset": 0,
								"slot": "1",
								"type": "t_uint256"
							},
							{
								"astId": 119,
								"contract": "CrowdFunding/CrowdFunding.sol:CrowdFunding",
								"label": "deadline",
								"offset": 0,
								"slot": "2",
								"type": "t_uint256"
							},
							{
								"astId": 121,
								"contract": "CrowdFunding/CrowdFunding.sol:CrowdFunding",
								"label": "totalRaised",
								"offset": 0,
								"slot": "3",
								"type": "t_uint256"
							},
							{
								"astId": 124,
								"contract": "CrowdFunding/CrowdFunding.sol:CrowdFunding",
								"label": "state",
								"offset": 0,
								"slot": "4",
								"type": "t_enum(State)113"
							},
							{
								"astId": 128,
								"contract": "CrowdFunding/CrowdFunding.sol:CrowdFunding",
								"label": "contribution",
								"offset": 0,
								"slot": "5",
								"type": "t_mapping(t_address,t_uint256)"
							}
						],
						"numberOfBytes": "192"
					},
					"t_uint256": {
						"encoding": "inplace",
						"label": "uint256",
						"numberOfBytes": "32"
					}
				}
			},
			"userdoc": {
				"kind": "user",
				"methods": {},
				"version": 1
			}
		}
	}
}