{
	"CrowdFunding.sol": {
		"CrowdFunding": {
			"abi": [
				{
					"inputs": [
						{
							"internalType": "uint256",
							"name": "goal",
							"type": "uint256"
						},
						{
							"internalType": "uint256",
							"name": "durationSeconds",
							"type": "uint256"
						}
					],
					"stateMutability": "nonpayable",
					"type": "constructor"
				},
				{
					"anonymous": false,
					"inputs": [
						{
							"indexed": true,
							"internalType": "address",
							"name": "creator",
							"type": "address"
						},
						{
							"indexed": false,
							"internalType": "uint256",
							"name": "goal",
							"type": "uint256"
						},
						{
							"indexed": false,
							"internalType": "uint256",
							"name": "deadline",
							"type": "uint256"
						}
					],
					"name": "CampaignCreated",
					"type": "event"
				},
				{
					"anonymous": false,
					"inputs": [
						{
							"indexed": true,
							"internalType": "address",
							"name": "contributor",
							"type": "address"
						},
						{
							"indexed": false,
							"internalType": "uint256",
							"name": "amount",
							"type": "uint256"
						},
						{
							"indexed": false,
							"internalType": "uint256",
							"name": "newTotal",
							"type": "uint256"
						},
						{
							"indexed": false,
							"internalType": "bool",
							"name": "IsSucess",
							"type": "bool"
						}
					],
					"name": "Contributed",
					"type": "event"
				},
				{
					"anonymous": false,
					"inputs": [
						{
							"indexed": true,
							"internalType": "address",
							"name": "creator",
							"type": "address"
						},
						{
							"indexed": false,
							"internalType": "uint256",
							"name": "amount",
							"type": "uint256"
						}
					],
					"name": "Withdrawn",
					"type": "event"
				},
				{
					"inputs": [],
					"name": "contribute",
					"outputs": [],
					"stateMutability": "payable",
					"type": "function"
				},
				{
					"inputs": [],
					"name": "finalize",
					"outputs": [],
					"stateMutability": "nonpayable",
					"type": "function"
				},
				{
					"inputs": [],
					"name": "withdraw",
					"outputs": [],
					"stateMutability": "payable",
					"type": "function"
				}
			],
			"devdoc": {
				"kind": "dev",
				"methods": {},
				"version": 1
			},
			"evm": {
				"assembly": "    /* \"CrowdFunding.sol\":59:3408  contract CrowdFunding {... */\n  mstore(0x40, 0x80)\n    /* \"CrowdFunding.sol\":503:508  false */\n  0x00\n    /* \"CrowdFunding.sol\":484:508  bool isWithdrawn = false */\n  0x06\n  exp(0x0100, 0x00)\n  dup2\n  sload\n  dup2\n  0xff\n  mul\n  not\n  and\n  swap1\n  dup4\n  iszero\n  iszero\n  mul\n  or\n  swap1\n  sstore\n  pop\n    /* \"CrowdFunding.sol\":534:872  constructor(uint256 goal, uint256 durationSeconds) {... */\n  callvalue\n  dup1\n  iszero\n  tag_1\n  jumpi\n  revert(0x00, 0x00)\ntag_1:\n  pop\n  mload(0x40)\n  sub(codesize, bytecodeSize)\n  dup1\n  bytecodeSize\n  dup4\n  codecopy\n  dup2\n  dup2\n  add\n  0x40\n  mstore\n  dup2\n  add\n  swap1\n  tag_2\n  swap2\n  swap1\n  tag_3\n  jump\t// in\ntag_2:\n    /* \"CrowdFunding.sol\":614:624  msg.sender */\n  caller\n    /* \"CrowdFunding.sol\":595:603  compaign */\n  0x00\n    /* \"CrowdFunding.sol\":595:611  compaign.creator */\n  0x00\n  add\n  0x00\n    /* \"CrowdFunding.sol\":595:624  compaign.creator = msg.sender */\n  0x0100\n  exp\n  dup2\n  sload\n  dup2\n  0xffffffffffffffffffffffffffffffffffffffff\n  mul\n  not\n  and\n  swap1\n  dup4\n  0xffffffffffffffffffffffffffffffffffffffff\n  and\n  mul\n  or\n  swap1\n  sstore\n  pop\n    /* \"CrowdFunding.sol\":650:654  goal */\n  dup2\n    /* \"CrowdFunding.sol\":634:642  compaign */\n  0x00\n    /* \"CrowdFunding.sol\":634:647  compaign.goal */\n  0x01\n  add\n    /* \"CrowdFunding.sol\":634:654  compaign.goal = goal */\n  dup2\n  swap1\n  sstore\n  pop\n    /* \"CrowdFunding.sol\":702:717  durationSeconds */\n  dup1\n    /* \"CrowdFunding.sol\":684:699  block.timestamp */\n  timestamp\n    /* \"CrowdFunding.sol\":684:717  block.timestamp + durationSeconds */\n  tag_6\n  swap2\n  swap1\n  tag_7\n  jump\t// in\ntag_6:\n    /* \"CrowdFunding.sol\":664:672  compaign */\n  0x00\n    /* \"CrowdFunding.sol\":664:681  compaign.deadline */\n  0x02\n  add\n    /* \"CrowdFunding.sol\":664:717  compaign.deadline = block.timestamp + durationSeconds */\n  dup2\n  swap1\n  sstore\n  pop\n    /* \"CrowdFunding.sol\":750:751  0 */\n  0x00\n    /* \"CrowdFunding.sol\":727:735  compaign */\n  0x00\n    /* \"CrowdFunding.sol\":727:747  compaign.totalRaised */\n  0x03\n  add\n    /* \"CrowdFunding.sol\":727:751  compaign.totalRaised = 0 */\n  dup2\n  swap1\n  sstore\n  pop\n    /* \"CrowdFunding.sol\":778:791  State.Funding */\n  0x00\n    /* \"CrowdFunding.sol\":761:769  compaign */\n  0x00\n    /* \"CrowdFunding.sol\":761:775  compaign.state */\n  0x04\n  add\n  0x00\n    /* \"CrowdFunding.sol\":761:791  compaign.state = State.Funding */\n  0x0100\n  exp\n  dup2\n  sload\n  dup2\n  0xff\n  mul\n  not\n  and\n  swap1\n  dup4\n  0x03\n  dup2\n  gt\n  iszero\n  tag_8\n  jumpi\n  tag_9\n  tag_10\n  jump\t// in\ntag_9:\ntag_8:\n  mul\n  or\n  swap1\n  sstore\n  pop\n    /* \"CrowdFunding.sol\":823:831  compaign */\n  0x00\n    /* \"CrowdFunding.sol\":823:839  compaign.creator */\n  0x00\n  add\n  0x00\n  swap1\n  sload\n  swap1\n  0x0100\n  exp\n  swap1\n  div\n  0xffffffffffffffffffffffffffffffffffffffff\n  and\n    /* \"CrowdFunding.sol\":807:865  CampaignCreated(compaign.creator, goal, compaign.deadline) */\n  0xffffffffffffffffffffffffffffffffffffffff\n  and\n  0x681f945f90ca3793b37315ed6a012353c82c1b37ca023ef835c746461359f552\n    /* \"CrowdFunding.sol\":841:845  goal */\n  dup4\n    /* \"CrowdFunding.sol\":847:855  compaign */\n  0x00\n    /* \"CrowdFunding.sol\":847:864  compaign.deadline */\n  0x02\n  add\n  sload\n    /* \"CrowdFunding.sol\":807:865  CampaignCreated(compaign.creator, goal, compaign.deadline) */\n  mload(0x40)\n  tag_11\n  swap3\n  swap2\n  swap1\n  tag_12\n  jump\t// in\ntag_11:\n  mload(0x40)\n  dup1\n  swap2\n  sub\n  swap1\n  log2\n    /* \"CrowdFunding.sol\":534:872  constructor(uint256 goal, uint256 durationSeconds) {... */\n  pop\n  pop\n    /* \"CrowdFunding.sol\":59:3408  contract CrowdFunding {... */\n  jump(tag_13)\n    /* \"#utility.yul\":88:205   */\ntag_15:\n    /* \"#utility.yul\":197:198   */\n  0x00\n    /* \"#utility.yul\":194:195   */\n  0x00\n    /* \"#utility.yul\":187:199   */\n  revert\n    /* \"#utility.yul\":334:411   */\ntag_17:\n    /* \"#utility.yul\":371:378   */\n  0x00\n    /* \"#utility.yul\":400:405   */\n  dup2\n    /* \"#utility.yul\":389:405   */\n  swap1\n  pop\n    /* \"#utility.yul\":334:411   */\n  swap2\n  swap1\n  pop\n  jump\t// out\n    /* \"#utility.yul\":417:539   */\ntag_18:\n    /* \"#utility.yul\":490:514   */\n  tag_28\n    /* \"#utility.yul\":508:513   */\n  dup2\n    /* \"#utility.yul\":490:514   */\n  tag_17\n  jump\t// in\ntag_28:\n    /* \"#utility.yul\":483:488   */\n  dup2\n    /* \"#utility.yul\":480:515   */\n  eq\n    /* \"#utility.yul\":470:533   */\n  tag_29\n  jumpi\n    /* \"#utility.yul\":529:530   */\n  0x00\n    /* \"#utility.yul\":526:527   */\n  0x00\n    /* \"#utility.yul\":519:531   */\n  revert\n    /* \"#utility.yul\":470:533   */\ntag_29:\n    /* \"#utility.yul\":417:539   */\n  pop\n  jump\t// out\n    /* \"#utility.yul\":545:688   */\ntag_19:\n    /* \"#utility.yul\":602:607   */\n  0x00\n    /* \"#utility.yul\":633:639   */\n  dup2\n    /* \"#utility.yul\":627:640   */\n  mload\n    /* \"#utility.yul\":618:640   */\n  swap1\n  pop\n    /* \"#utility.yul\":649:682   */\n  tag_31\n    /* \"#utility.yul\":676:681   */\n  dup2\n    /* \"#utility.yul\":649:682   */\n  tag_18\n  jump\t// in\ntag_31:\n    /* \"#utility.yul\":545:688   */\n  swap3\n  swap2\n  pop\n  pop\n  jump\t// out\n    /* \"#utility.yul\":694:1201   */\ntag_3:\n    /* \"#utility.yul\":773:779   */\n  0x00\n    /* \"#utility.yul\":781:787   */\n  0x00\n    /* \"#utility.yul\":830:832   */\n  0x40\n    /* \"#utility.yul\":818:827   */\n  dup4\n    /* \"#utility.yul\":809:816   */\n  dup6\n    /* \"#utility.yul\":805:828   */\n  sub\n    /* \"#utility.yul\":801:833   */\n  slt\n    /* \"#utility.yul\":798:917   */\n  iszero\n  tag_33\n  jumpi\n    /* \"#utility.yul\":836:915   */\n  tag_34\n  tag_15\n  jump\t// in\ntag_34:\n    /* \"#utility.yul\":798:917   */\ntag_33:\n    /* \"#utility.yul\":956:957   */\n  0x00\n    /* \"#utility.yul\":981:1045   */\n  tag_35\n    /* \"#utility.yul\":1037:1044   */\n  dup6\n    /* \"#utility.yul\":1028:1034   */\n  dup3\n    /* \"#utility.yul\":1017:1026   */\n  dup7\n    /* \"#utility.yul\":1013:1035   */\n  add\n    /* \"#utility.yul\":981:1045   */\n  tag_19\n  jump\t// in\ntag_35:\n    /* \"#utility.yul\":971:1045   */\n  swap3\n  pop\n    /* \"#utility.yul\":927:1055   */\n  pop\n    /* \"#utility.yul\":1094:1096   */\n  0x20\n    /* \"#utility.yul\":1120:1184   */\n  tag_36\n    /* \"#utility.yul\":1176:1183   */\n  dup6\n    /* \"#utility.yul\":1167:1173   */\n  dup3\n    /* \"#utility.yul\":1156:1165   */\n  dup7\n    /* \"#utility.yul\":1152:1174   */\n  add\n    /* \"#utility.yul\":1120:1184   */\n  tag_19\n  jump\t// in\ntag_36:\n    /* \"#utility.yul\":1110:1184   */\n  swap2\n  pop\n    /* \"#utility.yul\":1065:1194   */\n  pop\n    /* \"#utility.yul\":694:1201   */\n  swap3\n  pop\n  swap3\n  swap1\n  pop\n  jump\t// out\n    /* \"#utility.yul\":1207:1387   */\ntag_20:\n    /* \"#utility.yul\":1255:1332   */\n  0x4e487b7100000000000000000000000000000000000000000000000000000000\n    /* \"#utility.yul\":1252:1253   */\n  0x00\n    /* \"#utility.yul\":1245:1333   */\n  mstore\n    /* \"#utility.yul\":1352:1356   */\n  0x11\n    /* \"#utility.yul\":1349:1350   */\n  0x04\n    /* \"#utility.yul\":1342:1357   */\n  mstore\n    /* \"#utility.yul\":1376:1380   */\n  0x24\n    /* \"#utility.yul\":1373:1374   */\n  0x00\n    /* \"#utility.yul\":1366:1381   */\n  revert\n    /* \"#utility.yul\":1393:1584   */\ntag_7:\n    /* \"#utility.yul\":1433:1436   */\n  0x00\n    /* \"#utility.yul\":1452:1472   */\n  tag_39\n    /* \"#utility.yul\":1470:1471   */\n  dup3\n    /* \"#utility.yul\":1452:1472   */\n  tag_17\n  jump\t// in\ntag_39:\n    /* \"#utility.yul\":1447:1472   */\n  swap2\n  pop\n    /* \"#utility.yul\":1486:1506   */\n  tag_40\n    /* \"#utility.yul\":1504:1505   */\n  dup4\n    /* \"#utility.yul\":1486:1506   */\n  tag_17\n  jump\t// in\ntag_40:\n    /* \"#utility.yul\":1481:1506   */\n  swap3\n  pop\n    /* \"#utility.yul\":1529:1530   */\n  dup3\n    /* \"#utility.yul\":1526:1527   */\n  dup3\n    /* \"#utility.yul\":1522:1531   */\n  add\n    /* \"#utility.yul\":1515:1531   */\n  swap1\n  pop\n    /* \"#utility.yul\":1550:1553   */\n  dup1\n    /* \"#utility.yul\":1547:1548   */\n  dup3\n    /* \"#utility.yul\":1544:1554   */\n  gt\n    /* \"#utility.yul\":1541:1577   */\n  iszero\n  tag_41\n  jumpi\n    /* \"#utility.yul\":1557:1575   */\n  tag_42\n  tag_20\n  jump\t// in\ntag_42:\n    /* \"#utility.yul\":1541:1577   */\ntag_41:\n    /* \"#utility.yul\":1393:1584   */\n  swap3\n  swap2\n  pop\n  pop\n  jump\t// out\n    /* \"#utility.yul\":1590:1770   */\ntag_10:\n    /* \"#utility.yul\":1638:1715   */\n  0x4e487b7100000000000000000000000000000000000000000000000000000000\n    /* \"#utility.yul\":1635:1636   */\n  0x00\n    /* \"#utility.yul\":1628:1716   */\n  mstore\n    /* \"#utility.yul\":1735:1739   */\n  0x21\n    /* \"#utility.yul\":1732:1733   */\n  0x04\n    /* \"#utility.yul\":1725:1740   */\n  mstore\n    /* \"#utility.yul\":1759:1763   */\n  0x24\n    /* \"#utility.yul\":1756:1757   */\n  0x00\n    /* \"#utility.yul\":1749:1764   */\n  revert\n    /* \"#utility.yul\":1776:1894   */\ntag_21:\n    /* \"#utility.yul\":1863:1887   */\n  tag_45\n    /* \"#utility.yul\":1881:1886   */\n  dup2\n    /* \"#utility.yul\":1863:1887   */\n  tag_17\n  jump\t// in\ntag_45:\n    /* \"#utility.yul\":1858:1861   */\n  dup3\n    /* \"#utility.yul\":1851:1888   */\n  mstore\n    /* \"#utility.yul\":1776:1894   */\n  pop\n  pop\n  jump\t// out\n    /* \"#utility.yul\":1900:2232   */\ntag_12:\n    /* \"#utility.yul\":2021:2025   */\n  0x00\n    /* \"#utility.yul\":2059:2061   */\n  0x40\n    /* \"#utility.yul\":2048:2057   */\n  dup3\n    /* \"#utility.yul\":2044:2062   */\n  add\n    /* \"#utility.yul\":2036:2062   */\n  swap1\n  pop\n    /* \"#utility.yul\":2072:2143   */\n  tag_47\n    /* \"#utility.yul\":2140:2141   */\n  0x00\n    /* \"#utility.yul\":2129:2138   */\n  dup4\n    /* \"#utility.yul\":2125:2142   */\n  add\n    /* \"#utility.yul\":2116:2122   */\n  dup6\n    /* \"#utility.yul\":2072:2143   */\n  tag_21\n  jump\t// in\ntag_47:\n    /* \"#utility.yul\":2153:2225   */\n  tag_48\n    /* \"#utility.yul\":2221:2223   */\n  0x20\n    /* \"#utility.yul\":2210:2219   */\n  dup4\n    /* \"#utility.yul\":2206:2224   */\n  add\n    /* \"#utility.yul\":2197:2203   */\n  dup5\n    /* \"#utility.yul\":2153:2225   */\n  tag_21\n  jump\t// in\ntag_48:\n    /* \"#utility.yul\":1900:2232   */\n  swap4\n  swap3\n  pop\n  pop\n  pop\n  jump\t// out\n    /* \"CrowdFunding.sol\":59:3408  contract CrowdFunding {... */\ntag_13:\n  dataSize(sub_0)\n  dup1\n  dataOffset(sub_0)\n  0x00\n  codecopy\n  0x00\n  return\nstop\n\nsub_0: assembly {\n        /* \"CrowdFunding.sol\":59:3408  contract CrowdFunding {... */\n      mstore(0x40, 0x80)\n      jumpi(tag_1, lt(calldatasize, 0x04))\n      shr(0xe0, calldataload(0x00))\n      dup1\n      0x3ccfd60b\n      eq\n      tag_2\n      jumpi\n      dup1\n      0x4bb278f3\n      eq\n      tag_3\n      jumpi\n      dup1\n      0xd7bb99ba\n      eq\n      tag_4\n      jumpi\n    tag_1:\n      revert(0x00, 0x00)\n        /* \"CrowdFunding.sol\":3135:3406  function withdraw()public payable  onlyOwner isSuccessfull canWithdrawn  {... */\n    tag_2:\n      tag_5\n      tag_6\n      jump\t// in\n    tag_5:\n      stop\n        /* \"CrowdFunding.sol\":2919:3102  function finalize() public isDeadlineCompleted {... */\n    tag_3:\n      callvalue\n      dup1\n      iszero\n      tag_7\n      jumpi\n      revert(0x00, 0x00)\n    tag_7:\n      pop\n      tag_8\n      tag_9\n      jump\t// in\n    tag_8:\n      stop\n        /* \"CrowdFunding.sol\":2463:2875  function contribute() public  payable ownerCheck stateCheck deadlineCheck  amountCheck{... */\n    tag_4:\n      tag_10\n      tag_11\n      jump\t// in\n    tag_10:\n      stop\n        /* \"CrowdFunding.sol\":3135:3406  function withdraw()public payable  onlyOwner isSuccessfull canWithdrawn  {... */\n    tag_6:\n        /* \"CrowdFunding.sol\":1483:1491  compaign */\n      0x00\n        /* \"CrowdFunding.sol\":1483:1499  compaign.creator */\n      0x00\n      add\n      0x00\n      swap1\n      sload\n      swap1\n      0x0100\n      exp\n      swap1\n      div\n      0xffffffffffffffffffffffffffffffffffffffff\n      and\n        /* \"CrowdFunding.sol\":1469:1499  msg.sender == compaign.creator */\n      0xffffffffffffffffffffffffffffffffffffffff\n      and\n        /* \"CrowdFunding.sol\":1469:1479  msg.sender */\n      caller\n        /* \"CrowdFunding.sol\":1469:1499  msg.sender == compaign.creator */\n      0xffffffffffffffffffffffffffffffffffffffff\n      and\n      eq\n        /* \"CrowdFunding.sol\":1448:1561  require(... */\n      tag_13\n      jumpi\n      mload(0x40)\n      0x08c379a000000000000000000000000000000000000000000000000000000000\n      dup2\n      mstore\n      0x04\n      add\n      tag_14\n      swap1\n      tag_15\n      jump\t// in\n    tag_14:\n      mload(0x40)\n      dup1\n      swap2\n      sub\n      swap1\n      revert\n    tag_13:\n        /* \"CrowdFunding.sol\":1830:1846  State.Successful */\n      0x01\n        /* \"CrowdFunding.sol\":1812:1846  compaign.state == State.Successful */\n      0x03\n      dup2\n      gt\n      iszero\n      tag_17\n      jumpi\n      tag_18\n      tag_19\n      jump\t// in\n    tag_18:\n    tag_17:\n        /* \"CrowdFunding.sol\":1812:1820  compaign */\n      0x00\n        /* \"CrowdFunding.sol\":1812:1826  compaign.state */\n      0x04\n      add\n      0x00\n      swap1\n      sload\n      swap1\n      0x0100\n      exp\n      swap1\n      div\n      0xff\n      and\n        /* \"CrowdFunding.sol\":1812:1846  compaign.state == State.Successful */\n      0x03\n      dup2\n      gt\n      iszero\n      tag_20\n      jumpi\n      tag_21\n      tag_19\n      jump\t// in\n    tag_21:\n    tag_20:\n      eq\n        /* \"CrowdFunding.sol\":1791:1902  require(... */\n      tag_22\n      jumpi\n      mload(0x40)\n      0x08c379a000000000000000000000000000000000000000000000000000000000\n      dup2\n      mstore\n      0x04\n      add\n      tag_23\n      swap1\n      tag_24\n      jump\t// in\n    tag_23:\n      mload(0x40)\n      dup1\n      swap2\n      sub\n      swap1\n      revert\n    tag_22:\n        /* \"CrowdFunding.sol\":2365:2366  0 */\n      0x00\n        /* \"CrowdFunding.sol\":2342:2350  compaign */\n      0x00\n        /* \"CrowdFunding.sol\":2342:2362  compaign.totalRaised */\n      0x03\n      add\n      sload\n        /* \"CrowdFunding.sol\":2342:2366  compaign.totalRaised > 0 */\n      gt\n        /* \"CrowdFunding.sol\":2342:2382  compaign.totalRaised > 0 && !isWithdrawn */\n      dup1\n      iszero\n      tag_26\n      jumpi\n      pop\n        /* \"CrowdFunding.sol\":2371:2382  isWithdrawn */\n      0x06\n      0x00\n      swap1\n      sload\n      swap1\n      0x0100\n      exp\n      swap1\n      div\n      0xff\n      and\n        /* \"CrowdFunding.sol\":2370:2382  !isWithdrawn */\n      iszero\n        /* \"CrowdFunding.sol\":2342:2382  compaign.totalRaised > 0 && !isWithdrawn */\n    tag_26:\n        /* \"CrowdFunding.sol\":2334:2414  require(compaign.totalRaised > 0 && !isWithdrawn , \"Withdrawn is not possible!\") */\n      tag_27\n      jumpi\n      mload(0x40)\n      0x08c379a000000000000000000000000000000000000000000000000000000000\n      dup2\n      mstore\n      0x04\n      add\n      tag_28\n      swap1\n      tag_29\n      jump\t// in\n    tag_28:\n      mload(0x40)\n      dup1\n      swap2\n      sub\n      swap1\n      revert\n    tag_27:\n        /* \"CrowdFunding.sol\":3219:3231  bool success */\n      0x00\n        /* \"CrowdFunding.sol\":3239:3249  msg.sender */\n      caller\n        /* \"CrowdFunding.sol\":3239:3254  msg.sender.call */\n      0xffffffffffffffffffffffffffffffffffffffff\n      and\n        /* \"CrowdFunding.sol\":3263:3271  compaign */\n      0x00\n        /* \"CrowdFunding.sol\":3263:3283  compaign.totalRaised */\n      0x03\n      add\n      sload\n        /* \"CrowdFunding.sol\":3239:3288  msg.sender.call{value : compaign.totalRaised}(\"\") */\n      mload(0x40)\n      tag_31\n      swap1\n      tag_32\n      jump\t// in\n    tag_31:\n      0x00\n      mload(0x40)\n      dup1\n      dup4\n      sub\n      dup2\n      dup6\n      dup8\n      gas\n      call\n      swap3\n      pop\n      pop\n      pop\n      returndatasize\n      dup1\n      0x00\n      dup2\n      eq\n      tag_35\n      jumpi\n      mload(0x40)\n      swap2\n      pop\n      and(add(returndatasize, 0x3f), not(0x1f))\n      dup3\n      add\n      0x40\n      mstore\n      returndatasize\n      dup3\n      mstore\n      returndatasize\n      0x00\n      0x20\n      dup5\n      add\n      returndatacopy\n      jump(tag_34)\n    tag_35:\n      0x60\n      swap2\n      pop\n    tag_34:\n      pop\n        /* \"CrowdFunding.sol\":3218:3288  (bool success , ) =  msg.sender.call{value : compaign.totalRaised}(\"\") */\n      pop\n      swap1\n      pop\n        /* \"CrowdFunding.sol\":3306:3313  success */\n      dup1\n        /* \"CrowdFunding.sol\":3298:3341  require(success , \"ETH withdrawal failed!\") */\n      tag_36\n      jumpi\n      mload(0x40)\n      0x08c379a000000000000000000000000000000000000000000000000000000000\n      dup2\n      mstore\n      0x04\n      add\n      tag_37\n      swap1\n      tag_38\n      jump\t// in\n    tag_37:\n      mload(0x40)\n      dup1\n      swap2\n      sub\n      swap1\n      revert\n    tag_36:\n        /* \"CrowdFunding.sol\":3366:3376  msg.sender */\n      caller\n        /* \"CrowdFunding.sol\":3356:3399  Withdrawn(msg.sender, compaign.totalRaised) */\n      0xffffffffffffffffffffffffffffffffffffffff\n      and\n      0x7084f5476618d8e60b11ef0d7d3f06914655adb8793e28ff7f018d4c76d505d5\n        /* \"CrowdFunding.sol\":3378:3386  compaign */\n      0x00\n        /* \"CrowdFunding.sol\":3378:3398  compaign.totalRaised */\n      0x03\n      add\n      sload\n        /* \"CrowdFunding.sol\":3356:3399  Withdrawn(msg.sender, compaign.totalRaised) */\n      mload(0x40)\n      tag_39\n      swap2\n      swap1\n      tag_40\n      jump\t// in\n    tag_39:\n      mload(0x40)\n      dup1\n      swap2\n      sub\n      swap1\n      log2\n        /* \"CrowdFunding.sol\":3208:3406  {... */\n      pop\n        /* \"CrowdFunding.sol\":3135:3406  function withdraw()public payable  onlyOwner isSuccessfull canWithdrawn  {... */\n      jump\t// out\n        /* \"CrowdFunding.sol\":2919:3102  function finalize() public isDeadlineCompleted {... */\n    tag_9:\n        /* \"CrowdFunding.sol\":2225:2233  compaign */\n      0x00\n        /* \"CrowdFunding.sol\":2225:2242  compaign.deadline */\n      0x02\n      add\n      sload\n        /* \"CrowdFunding.sol\":2207:2222  block.timestamp */\n      timestamp\n        /* \"CrowdFunding.sol\":2207:2242  block.timestamp > compaign.deadline */\n      gt\n        /* \"CrowdFunding.sol\":2199:2278  require(block.timestamp > compaign.deadline , \"compaign is still in progress!\") */\n      tag_42\n      jumpi\n      mload(0x40)\n      0x08c379a000000000000000000000000000000000000000000000000000000000\n      dup2\n      mstore\n      0x04\n      add\n      tag_43\n      swap1\n      tag_44\n      jump\t// in\n    tag_43:\n      mload(0x40)\n      dup1\n      swap2\n      sub\n      swap1\n      revert\n    tag_42:\n        /* \"CrowdFunding.sol\":3003:3011  compaign */\n      0x00\n        /* \"CrowdFunding.sol\":3003:3016  compaign.goal */\n      0x01\n      add\n      sload\n        /* \"CrowdFunding.sol\":2979:2987  compaign */\n      0x00\n        /* \"CrowdFunding.sol\":2979:2999  compaign.totalRaised */\n      0x03\n      add\n      sload\n        /* \"CrowdFunding.sol\":2979:3016  compaign.totalRaised >= compaign.goal */\n      lt\n        /* \"CrowdFunding.sol\":2976:3095  if(compaign.totalRaised >= compaign.goal) compaign.state = State.Successful;... */\n      tag_46\n      jumpi\n        /* \"CrowdFunding.sol\":3035:3051  State.Successful */\n      0x01\n        /* \"CrowdFunding.sol\":3018:3026  compaign */\n      0x00\n        /* \"CrowdFunding.sol\":3018:3032  compaign.state */\n      0x04\n      add\n      0x00\n        /* \"CrowdFunding.sol\":3018:3051  compaign.state = State.Successful */\n      0x0100\n      exp\n      dup2\n      sload\n      dup2\n      0xff\n      mul\n      not\n      and\n      swap1\n      dup4\n      0x03\n      dup2\n      gt\n      iszero\n      tag_47\n      jumpi\n      tag_48\n      tag_19\n      jump\t// in\n    tag_48:\n    tag_47:\n      mul\n      or\n      swap1\n      sstore\n      pop\n        /* \"CrowdFunding.sol\":2976:3095  if(compaign.totalRaised >= compaign.goal) compaign.state = State.Successful;... */\n      jump(tag_49)\n    tag_46:\n        /* \"CrowdFunding.sol\":3083:3095  State.Failed */\n      0x02\n        /* \"CrowdFunding.sol\":3066:3074  compaign */\n      0x00\n        /* \"CrowdFunding.sol\":3066:3080  compaign.state */\n      0x04\n      add\n      0x00\n        /* \"CrowdFunding.sol\":3066:3095  compaign.state = State.Failed */\n      0x0100\n      exp\n      dup2\n      sload\n      dup2\n      0xff\n      mul\n      not\n      and\n      swap1\n      dup4\n      0x03\n      dup2\n      gt\n      iszero\n      tag_50\n      jumpi\n      tag_51\n      tag_19\n      jump\t// in\n    tag_51:\n    tag_50:\n      mul\n      or\n      swap1\n      sstore\n      pop\n        /* \"CrowdFunding.sol\":2976:3095  if(compaign.totalRaised >= compaign.goal) compaign.state = State.Successful;... */\n    tag_49:\n        /* \"CrowdFunding.sol\":2919:3102  function finalize() public isDeadlineCompleted {... */\n      jump\t// out\n        /* \"CrowdFunding.sol\":2463:2875  function contribute() public  payable ownerCheck stateCheck deadlineCheck  amountCheck{... */\n    tag_11:\n        /* \"CrowdFunding.sol\":1305:1313  compaign */\n      0x00\n        /* \"CrowdFunding.sol\":1305:1321  compaign.creator */\n      0x00\n      add\n      0x00\n      swap1\n      sload\n      swap1\n      0x0100\n      exp\n      swap1\n      div\n      0xffffffffffffffffffffffffffffffffffffffff\n      and\n        /* \"CrowdFunding.sol\":1291:1321  msg.sender != compaign.creator */\n      0xffffffffffffffffffffffffffffffffffffffff\n      and\n        /* \"CrowdFunding.sol\":1291:1301  msg.sender */\n      caller\n        /* \"CrowdFunding.sol\":1291:1321  msg.sender != compaign.creator */\n      0xffffffffffffffffffffffffffffffffffffffff\n      and\n      sub\n        /* \"CrowdFunding.sol\":1270:1394  require(... */\n      tag_53\n      jumpi\n      mload(0x40)\n      0x08c379a000000000000000000000000000000000000000000000000000000000\n      dup2\n      mstore\n      0x04\n      add\n      tag_54\n      swap1\n      tag_55\n      jump\t// in\n    tag_54:\n      mload(0x40)\n      dup1\n      swap2\n      sub\n      swap1\n      revert\n    tag_53:\n        /* \"CrowdFunding.sol\":1655:1668  State.Funding */\n      0x00\n        /* \"CrowdFunding.sol\":1637:1668  compaign.state == State.Funding */\n      0x03\n      dup2\n      gt\n      iszero\n      tag_57\n      jumpi\n      tag_58\n      tag_19\n      jump\t// in\n    tag_58:\n    tag_57:\n        /* \"CrowdFunding.sol\":1637:1645  compaign */\n      0x00\n        /* \"CrowdFunding.sol\":1637:1651  compaign.state */\n      0x04\n      add\n      0x00\n      swap1\n      sload\n      swap1\n      0x0100\n      exp\n      swap1\n      div\n      0xff\n      and\n        /* \"CrowdFunding.sol\":1637:1668  compaign.state == State.Funding */\n      0x03\n      dup2\n      gt\n      iszero\n      tag_59\n      jumpi\n      tag_60\n      tag_19\n      jump\t// in\n    tag_60:\n    tag_59:\n      eq\n        /* \"CrowdFunding.sol\":1616:1733  require(... */\n      tag_61\n      jumpi\n      mload(0x40)\n      0x08c379a000000000000000000000000000000000000000000000000000000000\n      dup2\n      mstore\n      0x04\n      add\n      tag_62\n      swap1\n      tag_63\n      jump\t// in\n    tag_62:\n      mload(0x40)\n      dup1\n      swap2\n      sub\n      swap1\n      revert\n    tag_61:\n        /* \"CrowdFunding.sol\":1986:1994  compaign */\n      0x00\n        /* \"CrowdFunding.sol\":1986:2003  compaign.deadline */\n      0x02\n      add\n      sload\n        /* \"CrowdFunding.sol\":1968:1983  block.timestamp */\n      timestamp\n        /* \"CrowdFunding.sol\":1968:2003  block.timestamp < compaign.deadline */\n      lt\n        /* \"CrowdFunding.sol\":1960:2024  require(block.timestamp < compaign.deadline, \"deadline missed!\") */\n      tag_65\n      jumpi\n      mload(0x40)\n      0x08c379a000000000000000000000000000000000000000000000000000000000\n      dup2\n      mstore\n      0x04\n      add\n      tag_66\n      swap1\n      tag_67\n      jump\t// in\n    tag_66:\n      mload(0x40)\n      dup1\n      swap2\n      sub\n      swap1\n      revert\n    tag_65:\n        /* \"CrowdFunding.sol\":2099:2100  0 */\n      0x00\n        /* \"CrowdFunding.sol\":2087:2096  msg.value */\n      callvalue\n        /* \"CrowdFunding.sol\":2087:2100  msg.value > 0 */\n      gt\n        /* \"CrowdFunding.sol\":2079:2136  require(msg.value > 0 , \"Amount of contibution is zero!\") */\n      tag_69\n      jumpi\n      mload(0x40)\n      0x08c379a000000000000000000000000000000000000000000000000000000000\n      dup2\n      mstore\n      0x04\n      add\n      tag_70\n      swap1\n      tag_71\n      jump\t// in\n    tag_70:\n      mload(0x40)\n      dup1\n      swap2\n      sub\n      swap1\n      revert\n    tag_69:\n        /* \"CrowdFunding.sol\":2596:2605  msg.value */\n      callvalue\n        /* \"CrowdFunding.sol\":2559:2567  compaign */\n      0x00\n        /* \"CrowdFunding.sol\":2559:2580  compaign.contribution */\n      0x05\n      add\n        /* \"CrowdFunding.sol\":2559:2592  compaign.contribution[msg.sender] */\n      0x00\n        /* \"CrowdFunding.sol\":2581:2591  msg.sender */\n      caller\n        /* \"CrowdFunding.sol\":2559:2592  compaign.contribution[msg.sender] */\n      0xffffffffffffffffffffffffffffffffffffffff\n      and\n      0xffffffffffffffffffffffffffffffffffffffff\n      and\n      dup2\n      mstore\n      0x20\n      add\n      swap1\n      dup2\n      mstore\n      0x20\n      add\n      0x00\n      keccak256\n      0x00\n        /* \"CrowdFunding.sol\":2559:2605  compaign.contribution[msg.sender] += msg.value */\n      dup3\n      dup3\n      sload\n      tag_73\n      swap2\n      swap1\n      tag_74\n      jump\t// in\n    tag_73:\n      swap3\n      pop\n      pop\n      dup2\n      swap1\n      sstore\n      pop\n        /* \"CrowdFunding.sol\":2639:2648  msg.value */\n      callvalue\n        /* \"CrowdFunding.sol\":2615:2623  compaign */\n      0x00\n        /* \"CrowdFunding.sol\":2615:2635  compaign.totalRaised */\n      0x03\n      add\n      0x00\n        /* \"CrowdFunding.sol\":2615:2648  compaign.totalRaised += msg.value */\n      dup3\n      dup3\n      sload\n      tag_75\n      swap2\n      swap1\n      tag_74\n      jump\t// in\n    tag_75:\n      swap3\n      pop\n      pop\n      dup2\n      swap1\n      sstore\n      pop\n        /* \"CrowdFunding.sol\":2658:2672  bool isSuccess */\n      0x00\n        /* \"CrowdFunding.sol\":2699:2707  compaign */\n      0x00\n        /* \"CrowdFunding.sol\":2699:2712  compaign.goal */\n      0x01\n      add\n      sload\n        /* \"CrowdFunding.sol\":2675:2683  compaign */\n      0x00\n        /* \"CrowdFunding.sol\":2675:2695  compaign.totalRaised */\n      0x03\n      add\n      sload\n        /* \"CrowdFunding.sol\":2675:2712  compaign.totalRaised >= compaign.goal */\n      lt\n      iszero\n        /* \"CrowdFunding.sol\":2658:2712  bool isSuccess = compaign.totalRaised >= compaign.goal */\n      swap1\n      pop\n        /* \"CrowdFunding.sol\":2725:2734  isSuccess */\n      dup1\n        /* \"CrowdFunding.sol\":2722:2769  if(isSuccess) compaign.state = State.Successful */\n      iszero\n      tag_76\n      jumpi\n        /* \"CrowdFunding.sol\":2753:2769  State.Successful */\n      0x01\n        /* \"CrowdFunding.sol\":2736:2744  compaign */\n      0x00\n        /* \"CrowdFunding.sol\":2736:2750  compaign.state */\n      0x04\n      add\n      0x00\n        /* \"CrowdFunding.sol\":2736:2769  compaign.state = State.Successful */\n      0x0100\n      exp\n      dup2\n      sload\n      dup2\n      0xff\n      mul\n      not\n      and\n      swap1\n      dup4\n      0x03\n      dup2\n      gt\n      iszero\n      tag_77\n      jumpi\n      tag_78\n      tag_19\n      jump\t// in\n    tag_78:\n    tag_77:\n      mul\n      or\n      swap1\n      sstore\n      pop\n        /* \"CrowdFunding.sol\":2722:2769  if(isSuccess) compaign.state = State.Successful */\n    tag_76:\n        /* \"CrowdFunding.sol\":2796:2806  msg.sender */\n      caller\n        /* \"CrowdFunding.sol\":2784:2850  Contributed(msg.sender, msg.value, compaign.totalRaised,isSuccess) */\n      0xffffffffffffffffffffffffffffffffffffffff\n      and\n      0xa3cf76d32602a2a687abed22e487ac1357d386fecf9be68fe771f9c97606f3c3\n        /* \"CrowdFunding.sol\":2808:2817  msg.value */\n      callvalue\n        /* \"CrowdFunding.sol\":2819:2827  compaign */\n      0x00\n        /* \"CrowdFunding.sol\":2819:2839  compaign.totalRaised */\n      0x03\n      add\n      sload\n        /* \"CrowdFunding.sol\":2840:2849  isSuccess */\n      dup5\n        /* \"CrowdFunding.sol\":2784:2850  Contributed(msg.sender, msg.value, compaign.totalRaised,isSuccess) */\n      mload(0x40)\n      tag_79\n      swap4\n      swap3\n      swap2\n      swap1\n      tag_80\n      jump\t// in\n    tag_79:\n      mload(0x40)\n      dup1\n      swap2\n      sub\n      swap1\n      log2\n        /* \"CrowdFunding.sol\":2549:2875  {... */\n      pop\n        /* \"CrowdFunding.sol\":2463:2875  function contribute() public  payable ownerCheck stateCheck deadlineCheck  amountCheck{... */\n      jump\t// out\n        /* \"#utility.yul\":7:176   */\n    tag_81:\n        /* \"#utility.yul\":91:102   */\n      0x00\n        /* \"#utility.yul\":125:131   */\n      dup3\n        /* \"#utility.yul\":120:123   */\n      dup3\n        /* \"#utility.yul\":113:132   */\n      mstore\n        /* \"#utility.yul\":165:169   */\n      0x20\n        /* \"#utility.yul\":160:163   */\n      dup3\n        /* \"#utility.yul\":156:170   */\n      add\n        /* \"#utility.yul\":141:170   */\n      swap1\n      pop\n        /* \"#utility.yul\":7:176   */\n      swap3\n      swap2\n      pop\n      pop\n      jump\t// out\n        /* \"#utility.yul\":182:405   */\n    tag_82:\n        /* \"#utility.yul\":322:356   */\n      0x6f6e6c79206f776e65722068617320726967687420746f207468697320616374\n        /* \"#utility.yul\":318:319   */\n      0x00\n        /* \"#utility.yul\":310:316   */\n      dup3\n        /* \"#utility.yul\":306:320   */\n      add\n        /* \"#utility.yul\":299:357   */\n      mstore\n        /* \"#utility.yul\":391:397   */\n      0x696f6e2100000000000000000000000000000000000000000000000000000000\n        /* \"#utility.yul\":386:388   */\n      0x20\n        /* \"#utility.yul\":378:384   */\n      dup3\n        /* \"#utility.yul\":374:389   */\n      add\n        /* \"#utility.yul\":367:398   */\n      mstore\n        /* \"#utility.yul\":182:405   */\n      pop\n      jump\t// out\n        /* \"#utility.yul\":411:777   */\n    tag_83:\n        /* \"#utility.yul\":553:556   */\n      0x00\n        /* \"#utility.yul\":574:641   */\n      tag_112\n        /* \"#utility.yul\":638:640   */\n      0x24\n        /* \"#utility.yul\":633:636   */\n      dup4\n        /* \"#utility.yul\":574:641   */\n      tag_81\n      jump\t// in\n    tag_112:\n        /* \"#utility.yul\":567:641   */\n      swap2\n      pop\n        /* \"#utility.yul\":650:743   */\n      tag_113\n        /* \"#utility.yul\":739:742   */\n      dup3\n        /* \"#utility.yul\":650:743   */\n      tag_82\n      jump\t// in\n    tag_113:\n        /* \"#utility.yul\":768:770   */\n      0x40\n        /* \"#utility.yul\":763:766   */\n      dup3\n        /* \"#utility.yul\":759:771   */\n      add\n        /* \"#utility.yul\":752:771   */\n      swap1\n      pop\n        /* \"#utility.yul\":411:777   */\n      swap2\n      swap1\n      pop\n      jump\t// out\n        /* \"#utility.yul\":783:1202   */\n    tag_15:\n        /* \"#utility.yul\":949:953   */\n      0x00\n        /* \"#utility.yul\":987:989   */\n      0x20\n        /* \"#utility.yul\":976:985   */\n      dup3\n        /* \"#utility.yul\":972:990   */\n      add\n        /* \"#utility.yul\":964:990   */\n      swap1\n      pop\n        /* \"#utility.yul\":1036:1045   */\n      dup2\n        /* \"#utility.yul\":1030:1034   */\n      dup2\n        /* \"#utility.yul\":1026:1046   */\n      sub\n        /* \"#utility.yul\":1022:1023   */\n      0x00\n        /* \"#utility.yul\":1011:1020   */\n      dup4\n        /* \"#utility.yul\":1007:1024   */\n      add\n        /* \"#utility.yul\":1000:1047   */\n      mstore\n        /* \"#utility.yul\":1064:1195   */\n      tag_115\n        /* \"#utility.yul\":1190:1194   */\n      dup2\n        /* \"#utility.yul\":1064:1195   */\n      tag_83\n      jump\t// in\n    tag_115:\n        /* \"#utility.yul\":1056:1195   */\n      swap1\n      pop\n        /* \"#utility.yul\":783:1202   */\n      swap2\n      swap1\n      pop\n      jump\t// out\n        /* \"#utility.yul\":1208:1388   */\n    tag_19:\n        /* \"#utility.yul\":1256:1333   */\n      0x4e487b7100000000000000000000000000000000000000000000000000000000\n        /* \"#utility.yul\":1253:1254   */\n      0x00\n        /* \"#utility.yul\":1246:1334   */\n      mstore\n        /* \"#utility.yul\":1353:1357   */\n      0x21\n        /* \"#utility.yul\":1350:1351   */\n      0x04\n        /* \"#utility.yul\":1343:1358   */\n      mstore\n        /* \"#utility.yul\":1377:1381   */\n      0x24\n        /* \"#utility.yul\":1374:1375   */\n      0x00\n        /* \"#utility.yul\":1367:1382   */\n      revert\n        /* \"#utility.yul\":1394:1574   */\n    tag_84:\n        /* \"#utility.yul\":1534:1566   */\n      0x636f6d706169676e206973206e6f7420796574207375636365737366756c0000\n        /* \"#utility.yul\":1530:1531   */\n      0x00\n        /* \"#utility.yul\":1522:1528   */\n      dup3\n        /* \"#utility.yul\":1518:1532   */\n      add\n        /* \"#utility.yul\":1511:1567   */\n      mstore\n        /* \"#utility.yul\":1394:1574   */\n      pop\n      jump\t// out\n        /* \"#utility.yul\":1580:1946   */\n    tag_85:\n        /* \"#utility.yul\":1722:1725   */\n      0x00\n        /* \"#utility.yul\":1743:1810   */\n      tag_119\n        /* \"#utility.yul\":1807:1809   */\n      0x1e\n        /* \"#utility.yul\":1802:1805   */\n      dup4\n        /* \"#utility.yul\":1743:1810   */\n      tag_81\n      jump\t// in\n    tag_119:\n        /* \"#utility.yul\":1736:1810   */\n      swap2\n      pop\n        /* \"#utility.yul\":1819:1912   */\n      tag_120\n        /* \"#utility.yul\":1908:1911   */\n      dup3\n        /* \"#utility.yul\":1819:1912   */\n      tag_84\n      jump\t// in\n    tag_120:\n        /* \"#utility.yul\":1937:1939   */\n      0x20\n        /* \"#utility.yul\":1932:1935   */\n      dup3\n        /* \"#utility.yul\":1928:1940   */\n      add\n        /* \"#utility.yul\":1921:1940   */\n      swap1\n      pop\n        /* \"#utility.yul\":1580:1946   */\n      swap2\n      swap1\n      pop\n      jump\t// out\n        /* \"#utility.yul\":1952:2371   */\n    tag_24:\n        /* \"#utility.yul\":2118:2122   */\n      0x00\n        /* \"#utility.yul\":2156:2158   */\n      0x20\n        /* \"#utility.yul\":2145:2154   */\n      dup3\n        /* \"#utility.yul\":2141:2159   */\n      add\n        /* \"#utility.yul\":2133:2159   */\n      swap1\n      pop\n        /* \"#utility.yul\":2205:2214   */\n      dup2\n        /* \"#utility.yul\":2199:2203   */\n      dup2\n        /* \"#utility.yul\":2195:2215   */\n      sub\n        /* \"#utility.yul\":2191:2192   */\n      0x00\n        /* \"#utility.yul\":2180:2189   */\n      dup4\n        /* \"#utility.yul\":2176:2193   */\n      add\n        /* \"#utility.yul\":2169:2216   */\n      mstore\n        /* \"#utility.yul\":2233:2364   */\n      tag_122\n        /* \"#utility.yul\":2359:2363   */\n      dup2\n        /* \"#utility.yul\":2233:2364   */\n      tag_85\n      jump\t// in\n    tag_122:\n        /* \"#utility.yul\":2225:2364   */\n      swap1\n      pop\n        /* \"#utility.yul\":1952:2371   */\n      swap2\n      swap1\n      pop\n      jump\t// out\n        /* \"#utility.yul\":2377:2553   */\n    tag_86:\n        /* \"#utility.yul\":2517:2545   */\n      0x57697468647261776e206973206e6f7420706f737369626c6521000000000000\n        /* \"#utility.yul\":2513:2514   */\n      0x00\n        /* \"#utility.yul\":2505:2511   */\n      dup3\n        /* \"#utility.yul\":2501:2515   */\n      add\n        /* \"#utility.yul\":2494:2546   */\n      mstore\n        /* \"#utility.yul\":2377:2553   */\n      pop\n      jump\t// out\n        /* \"#utility.yul\":2559:2925   */\n    tag_87:\n        /* \"#utility.yul\":2701:2704   */\n      0x00\n        /* \"#utility.yul\":2722:2789   */\n      tag_125\n        /* \"#utility.yul\":2786:2788   */\n      0x1a\n        /* \"#utility.yul\":2781:2784   */\n      dup4\n        /* \"#utility.yul\":2722:2789   */\n      tag_81\n      jump\t// in\n    tag_125:\n        /* \"#utility.yul\":2715:2789   */\n      swap2\n      pop\n        /* \"#utility.yul\":2798:2891   */\n      tag_126\n        /* \"#utility.yul\":2887:2890   */\n      dup3\n        /* \"#utility.yul\":2798:2891   */\n      tag_86\n      jump\t// in\n    tag_126:\n        /* \"#utility.yul\":2916:2918   */\n      0x20\n        /* \"#utility.yul\":2911:2914   */\n      dup3\n        /* \"#utility.yul\":2907:2919   */\n      add\n        /* \"#utility.yul\":2900:2919   */\n      swap1\n      pop\n        /* \"#utility.yul\":2559:2925   */\n      swap2\n      swap1\n      pop\n      jump\t// out\n        /* \"#utility.yul\":2931:3350   */\n    tag_29:\n        /* \"#utility.yul\":3097:3101   */\n      0x00\n        /* \"#utility.yul\":3135:3137   */\n      0x20\n        /* \"#utility.yul\":3124:3133   */\n      dup3\n        /* \"#utility.yul\":3120:3138   */\n      add\n        /* \"#utility.yul\":3112:3138   */\n      swap1\n      pop\n        /* \"#utility.yul\":3184:3193   */\n      dup2\n        /* \"#utility.yul\":3178:3182   */\n      dup2\n        /* \"#utility.yul\":3174:3194   */\n      sub\n        /* \"#utility.yul\":3170:3171   */\n      0x00\n        /* \"#utility.yul\":3159:3168   */\n      dup4\n        /* \"#utility.yul\":3155:3172   */\n      add\n        /* \"#utility.yul\":3148:3195   */\n      mstore\n        /* \"#utility.yul\":3212:3343   */\n      tag_128\n        /* \"#utility.yul\":3338:3342   */\n      dup2\n        /* \"#utility.yul\":3212:3343   */\n      tag_87\n      jump\t// in\n    tag_128:\n        /* \"#utility.yul\":3204:3343   */\n      swap1\n      pop\n        /* \"#utility.yul\":2931:3350   */\n      swap2\n      swap1\n      pop\n      jump\t// out\n        /* \"#utility.yul\":3356:3503   */\n    tag_88:\n        /* \"#utility.yul\":3457:3468   */\n      0x00\n        /* \"#utility.yul\":3494:3497   */\n      dup2\n        /* \"#utility.yul\":3479:3497   */\n      swap1\n      pop\n        /* \"#utility.yul\":3356:3503   */\n      swap3\n      swap2\n      pop\n      pop\n      jump\t// out\n        /* \"#utility.yul\":3509:3623   */\n    tag_89:\n      pop\n      jump\t// out\n        /* \"#utility.yul\":3629:4027   */\n    tag_90:\n        /* \"#utility.yul\":3788:3791   */\n      0x00\n        /* \"#utility.yul\":3809:3892   */\n      tag_132\n        /* \"#utility.yul\":3890:3891   */\n      0x00\n        /* \"#utility.yul\":3885:3888   */\n      dup4\n        /* \"#utility.yul\":3809:3892   */\n      tag_88\n      jump\t// in\n    tag_132:\n        /* \"#utility.yul\":3802:3892   */\n      swap2\n      pop\n        /* \"#utility.yul\":3901:3994   */\n      tag_133\n        /* \"#utility.yul\":3990:3993   */\n      dup3\n        /* \"#utility.yul\":3901:3994   */\n      tag_89\n      jump\t// in\n    tag_133:\n        /* \"#utility.yul\":4019:4020   */\n      0x00\n        /* \"#utility.yul\":4014:4017   */\n      dup3\n        /* \"#utility.yul\":4010:4021   */\n      add\n        /* \"#utility.yul\":4003:4021   */\n      swap1\n      pop\n        /* \"#utility.yul\":3629:4027   */\n      swap2\n      swap1\n      pop\n      jump\t// out\n        /* \"#utility.yul\":4033:4412   */\n    tag_32:\n        /* \"#utility.yul\":4217:4220   */\n      0x00\n        /* \"#utility.yul\":4239:4386   */\n      tag_135\n        /* \"#utility.yul\":4382:4385   */\n      dup3\n        /* \"#utility.yul\":4239:4386   */\n      tag_90\n      jump\t// in\n    tag_135:\n        /* \"#utility.yul\":4232:4386   */\n      swap2\n      pop\n        /* \"#utility.yul\":4403:4406   */\n      dup2\n        /* \"#utility.yul\":4396:4406   */\n      swap1\n      pop\n        /* \"#utility.yul\":4033:4412   */\n      swap2\n      swap1\n      pop\n      jump\t// out\n        /* \"#utility.yul\":4418:4590   */\n    tag_91:\n        /* \"#utility.yul\":4558:4582   */\n      0x455448207769746864726177616c206661696c65642100000000000000000000\n        /* \"#utility.yul\":4554:4555   */\n      0x00\n        /* \"#utility.yul\":4546:4552   */\n      dup3\n        /* \"#utility.yul\":4542:4556   */\n      add\n        /* \"#utility.yul\":4535:4583   */\n      mstore\n        /* \"#utility.yul\":4418:4590   */\n      pop\n      jump\t// out\n        /* \"#utility.yul\":4596:4962   */\n    tag_92:\n        /* \"#utility.yul\":4738:4741   */\n      0x00\n        /* \"#utility.yul\":4759:4826   */\n      tag_138\n        /* \"#utility.yul\":4823:4825   */\n      0x16\n        /* \"#utility.yul\":4818:4821   */\n      dup4\n        /* \"#utility.yul\":4759:4826   */\n      tag_81\n      jump\t// in\n    tag_138:\n        /* \"#utility.yul\":4752:4826   */\n      swap2\n      pop\n        /* \"#utility.yul\":4835:4928   */\n      tag_139\n        /* \"#utility.yul\":4924:4927   */\n      dup3\n        /* \"#utility.yul\":4835:4928   */\n      tag_91\n      jump\t// in\n    tag_139:\n        /* \"#utility.yul\":4953:4955   */\n      0x20\n        /* \"#utility.yul\":4948:4951   */\n      dup3\n        /* \"#utility.yul\":4944:4956   */\n      add\n        /* \"#utility.yul\":4937:4956   */\n      swap1\n      pop\n        /* \"#utility.yul\":4596:4962   */\n      swap2\n      swap1\n      pop\n      jump\t// out\n        /* \"#utility.yul\":4968:5387   */\n    tag_38:\n        /* \"#utility.yul\":5134:5138   */\n      0x00\n        /* \"#utility.yul\":5172:5174   */\n      0x20\n        /* \"#utility.yul\":5161:5170   */\n      dup3\n        /* \"#utility.yul\":5157:5175   */\n      add\n        /* \"#utility.yul\":5149:5175   */\n      swap1\n      pop\n        /* \"#utility.yul\":5221:5230   */\n      dup2\n        /* \"#utility.yul\":5215:5219   */\n      dup2\n        /* \"#utility.yul\":5211:5231   */\n      sub\n        /* \"#utility.yul\":5207:5208   */\n      0x00\n        /* \"#utility.yul\":5196:5205   */\n      dup4\n        /* \"#utility.yul\":5192:5209   */\n      add\n        /* \"#utility.yul\":5185:5232   */\n      mstore\n        /* \"#utility.yul\":5249:5380   */\n      tag_141\n        /* \"#utility.yul\":5375:5379   */\n      dup2\n        /* \"#utility.yul\":5249:5380   */\n      tag_92\n      jump\t// in\n    tag_141:\n        /* \"#utility.yul\":5241:5380   */\n      swap1\n      pop\n        /* \"#utility.yul\":4968:5387   */\n      swap2\n      swap1\n      pop\n      jump\t// out\n        /* \"#utility.yul\":5393:5470   */\n    tag_93:\n        /* \"#utility.yul\":5430:5437   */\n      0x00\n        /* \"#utility.yul\":5459:5464   */\n      dup2\n        /* \"#utility.yul\":5448:5464   */\n      swap1\n      pop\n        /* \"#utility.yul\":5393:5470   */\n      swap2\n      swap1\n      pop\n      jump\t// out\n        /* \"#utility.yul\":5476:5594   */\n    tag_94:\n        /* \"#utility.yul\":5563:5587   */\n      tag_144\n        /* \"#utility.yul\":5581:5586   */\n      dup2\n        /* \"#utility.yul\":5563:5587   */\n      tag_93\n      jump\t// in\n    tag_144:\n        /* \"#utility.yul\":5558:5561   */\n      dup3\n        /* \"#utility.yul\":5551:5588   */\n      mstore\n        /* \"#utility.yul\":5476:5594   */\n      pop\n      pop\n      jump\t// out\n        /* \"#utility.yul\":5600:5822   */\n    tag_40:\n        /* \"#utility.yul\":5693:5697   */\n      0x00\n        /* \"#utility.yul\":5731:5733   */\n      0x20\n        /* \"#utility.yul\":5720:5729   */\n      dup3\n        /* \"#utility.yul\":5716:5734   */\n      add\n        /* \"#utility.yul\":5708:5734   */\n      swap1\n      pop\n        /* \"#utility.yul\":5744:5815   */\n      tag_146\n        /* \"#utility.yul\":5812:5813   */\n      0x00\n        /* \"#utility.yul\":5801:5810   */\n      dup4\n        /* \"#utility.yul\":5797:5814   */\n      add\n        /* \"#utility.yul\":5788:5794   */\n      dup5\n        /* \"#utility.yul\":5744:5815   */\n      tag_94\n      jump\t// in\n    tag_146:\n        /* \"#utility.yul\":5600:5822   */\n      swap3\n      swap2\n      pop\n      pop\n      jump\t// out\n        /* \"#utility.yul\":5828:6008   */\n    tag_95:\n        /* \"#utility.yul\":5968:6000   */\n      0x636f6d706169676e206973207374696c6c20696e2070726f6772657373210000\n        /* \"#utility.yul\":5964:5965   */\n      0x00\n        /* \"#utility.yul\":5956:5962   */\n      dup3\n        /* \"#utility.yul\":5952:5966   */\n      add\n        /* \"#utility.yul\":5945:6001   */\n      mstore\n        /* \"#utility.yul\":5828:6008   */\n      pop\n      jump\t// out\n        /* \"#utility.yul\":6014:6380   */\n    tag_96:\n        /* \"#utility.yul\":6156:6159   */\n      0x00\n        /* \"#utility.yul\":6177:6244   */\n      tag_149\n        /* \"#utility.yul\":6241:6243   */\n      0x1e\n        /* \"#utility.yul\":6236:6239   */\n      dup4\n        /* \"#utility.yul\":6177:6244   */\n      tag_81\n      jump\t// in\n    tag_149:\n        /* \"#utility.yul\":6170:6244   */\n      swap2\n      pop\n        /* \"#utility.yul\":6253:6346   */\n      tag_150\n        /* \"#utility.yul\":6342:6345   */\n      dup3\n        /* \"#utility.yul\":6253:6346   */\n      tag_95\n      jump\t// in\n    tag_150:\n        /* \"#utility.yul\":6371:6373   */\n      0x20\n        /* \"#utility.yul\":6366:6369   */\n      dup3\n        /* \"#utility.yul\":6362:6374   */\n      add\n        /* \"#utility.yul\":6355:6374   */\n      swap1\n      pop\n        /* \"#utility.yul\":6014:6380   */\n      swap2\n      swap1\n      pop\n      jump\t// out\n        /* \"#utility.yul\":6386:6805   */\n    tag_44:\n        /* \"#utility.yul\":6552:6556   */\n      0x00\n        /* \"#utility.yul\":6590:6592   */\n      0x20\n        /* \"#utility.yul\":6579:6588   */\n      dup3\n        /* \"#utility.yul\":6575:6593   */\n      add\n        /* \"#utility.yul\":6567:6593   */\n      swap1\n      pop\n        /* \"#utility.yul\":6639:6648   */\n      dup2\n        /* \"#utility.yul\":6633:6637   */\n      dup2\n        /* \"#utility.yul\":6629:6649   */\n      sub\n        /* \"#utility.yul\":6625:6626   */\n      0x00\n        /* \"#utility.yul\":6614:6623   */\n      dup4\n        /* \"#utility.yul\":6610:6627   */\n      add\n        /* \"#utility.yul\":6603:6650   */\n      mstore\n        /* \"#utility.yul\":6667:6798   */\n      tag_152\n        /* \"#utility.yul\":6793:6797   */\n      dup2\n        /* \"#utility.yul\":6667:6798   */\n      tag_96\n      jump\t// in\n    tag_152:\n        /* \"#utility.yul\":6659:6798   */\n      swap1\n      pop\n        /* \"#utility.yul\":6386:6805   */\n      swap2\n      swap1\n      pop\n      jump\t// out\n        /* \"#utility.yul\":6811:7045   */\n    tag_97:\n        /* \"#utility.yul\":6951:6985   */\n      0x63726561746f7220686173206e6f2072696768747320746f20636f6e74726962\n        /* \"#utility.yul\":6947:6948   */\n      0x00\n        /* \"#utility.yul\":6939:6945   */\n      dup3\n        /* \"#utility.yul\":6935:6949   */\n      add\n        /* \"#utility.yul\":6928:6986   */\n      mstore\n        /* \"#utility.yul\":7020:7037   */\n      0x75746520696e20636f6d706169676e0000000000000000000000000000000000\n        /* \"#utility.yul\":7015:7017   */\n      0x20\n        /* \"#utility.yul\":7007:7013   */\n      dup3\n        /* \"#utility.yul\":7003:7018   */\n      add\n        /* \"#utility.yul\":6996:7038   */\n      mstore\n        /* \"#utility.yul\":6811:7045   */\n      pop\n      jump\t// out\n        /* \"#utility.yul\":7051:7417   */\n    tag_98:\n        /* \"#utility.yul\":7193:7196   */\n      0x00\n        /* \"#utility.yul\":7214:7281   */\n      tag_155\n        /* \"#utility.yul\":7278:7280   */\n      0x2f\n        /* \"#utility.yul\":7273:7276   */\n      dup4\n        /* \"#utility.yul\":7214:7281   */\n      tag_81\n      jump\t// in\n    tag_155:\n        /* \"#utility.yul\":7207:7281   */\n      swap2\n      pop\n        /* \"#utility.yul\":7290:7383   */\n      tag_156\n        /* \"#utility.yul\":7379:7382   */\n      dup3\n        /* \"#utility.yul\":7290:7383   */\n      tag_97\n      jump\t// in\n    tag_156:\n        /* \"#utility.yul\":7408:7410   */\n      0x40\n        /* \"#utility.yul\":7403:7406   */\n      dup3\n        /* \"#utility.yul\":7399:7411   */\n      add\n        /* \"#utility.yul\":7392:7411   */\n      swap1\n      pop\n        /* \"#utility.yul\":7051:7417   */\n      swap2\n      swap1\n      pop\n      jump\t// out\n        /* \"#utility.yul\":7423:7842   */\n    tag_55:\n        /* \"#utility.yul\":7589:7593   */\n      0x00\n        /* \"#utility.yul\":7627:7629   */\n      0x20\n        /* \"#utility.yul\":7616:7625   */\n      dup3\n        /* \"#utility.yul\":7612:7630   */\n      add\n        /* \"#utility.yul\":7604:7630   */\n      swap1\n      pop\n        /* \"#utility.yul\":7676:7685   */\n      dup2\n        /* \"#utility.yul\":7670:7674   */\n      dup2\n        /* \"#utility.yul\":7666:7686   */\n      sub\n        /* \"#utility.yul\":7662:7663   */\n      0x00\n        /* \"#utility.yul\":7651:7660   */\n      dup4\n        /* \"#utility.yul\":7647:7664   */\n      add\n        /* \"#utility.yul\":7640:7687   */\n      mstore\n        /* \"#utility.yul\":7704:7835   */\n      tag_158\n        /* \"#utility.yul\":7830:7834   */\n      dup2\n        /* \"#utility.yul\":7704:7835   */\n      tag_98\n      jump\t// in\n    tag_158:\n        /* \"#utility.yul\":7696:7835   */\n      swap1\n      pop\n        /* \"#utility.yul\":7423:7842   */\n      swap2\n      swap1\n      pop\n      jump\t// out\n        /* \"#utility.yul\":7848:8074   */\n    tag_99:\n        /* \"#utility.yul\":7988:8022   */\n      0x636f6d706169676e206973206e6f7420756e6465722074686520737461746520\n        /* \"#utility.yul\":7984:7985   */\n      0x00\n        /* \"#utility.yul\":7976:7982   */\n      dup3\n        /* \"#utility.yul\":7972:7986   */\n      add\n        /* \"#utility.yul\":7965:8023   */\n      mstore\n        /* \"#utility.yul\":8057:8066   */\n      0x46554e44494e4700000000000000000000000000000000000000000000000000\n        /* \"#utility.yul\":8052:8054   */\n      0x20\n        /* \"#utility.yul\":8044:8050   */\n      dup3\n        /* \"#utility.yul\":8040:8055   */\n      add\n        /* \"#utility.yul\":8033:8067   */\n      mstore\n        /* \"#utility.yul\":7848:8074   */\n      pop\n      jump\t// out\n        /* \"#utility.yul\":8080:8446   */\n    tag_100:\n        /* \"#utility.yul\":8222:8225   */\n      0x00\n        /* \"#utility.yul\":8243:8310   */\n      tag_161\n        /* \"#utility.yul\":8307:8309   */\n      0x27\n        /* \"#utility.yul\":8302:8305   */\n      dup4\n        /* \"#utility.yul\":8243:8310   */\n      tag_81\n      jump\t// in\n    tag_161:\n        /* \"#utility.yul\":8236:8310   */\n      swap2\n      pop\n        /* \"#utility.yul\":8319:8412   */\n      tag_162\n        /* \"#utility.yul\":8408:8411   */\n      dup3\n        /* \"#utility.yul\":8319:8412   */\n      tag_99\n      jump\t// in\n    tag_162:\n        /* \"#utility.yul\":8437:8439   */\n      0x40\n        /* \"#utility.yul\":8432:8435   */\n      dup3\n        /* \"#utility.yul\":8428:8440   */\n      add\n        /* \"#utility.yul\":8421:8440   */\n      swap1\n      pop\n        /* \"#utility.yul\":8080:8446   */\n      swap2\n      swap1\n      pop\n      jump\t// out\n        /* \"#utility.yul\":8452:8871   */\n    tag_63:\n        /* \"#utility.yul\":8618:8622   */\n      0x00\n        /* \"#utility.yul\":8656:8658   */\n      0x20\n        /* \"#utility.yul\":8645:8654   */\n      dup3\n        /* \"#utility.yul\":8641:8659   */\n      add\n        /* \"#utility.yul\":8633:8659   */\n      swap1\n      pop\n        /* \"#utility.yul\":8705:8714   */\n      dup2\n        /* \"#utility.yul\":8699:8703   */\n      dup2\n        /* \"#utility.yul\":8695:8715   */\n      sub\n        /* \"#utility.yul\":8691:8692   */\n      0x00\n        /* \"#utility.yul\":8680:8689   */\n      dup4\n        /* \"#utility.yul\":8676:8693   */\n      add\n        /* \"#utility.yul\":8669:8716   */\n      mstore\n        /* \"#utility.yul\":8733:8864   */\n      tag_164\n        /* \"#utility.yul\":8859:8863   */\n      dup2\n        /* \"#utility.yul\":8733:8864   */\n      tag_100\n      jump\t// in\n    tag_164:\n        /* \"#utility.yul\":8725:8864   */\n      swap1\n      pop\n        /* \"#utility.yul\":8452:8871   */\n      swap2\n      swap1\n      pop\n      jump\t// out\n        /* \"#utility.yul\":8877:9043   */\n    tag_101:\n        /* \"#utility.yul\":9017:9035   */\n      0x646561646c696e65206d69737365642100000000000000000000000000000000\n        /* \"#utility.yul\":9013:9014   */\n      0x00\n        /* \"#utility.yul\":9005:9011   */\n      dup3\n        /* \"#utility.yul\":9001:9015   */\n      add\n        /* \"#utility.yul\":8994:9036   */\n      mstore\n        /* \"#utility.yul\":8877:9043   */\n      pop\n      jump\t// out\n        /* \"#utility.yul\":9049:9415   */\n    tag_102:\n        /* \"#utility.yul\":9191:9194   */\n      0x00\n        /* \"#utility.yul\":9212:9279   */\n      tag_167\n        /* \"#utility.yul\":9276:9278   */\n      0x10\n        /* \"#utility.yul\":9271:9274   */\n      dup4\n        /* \"#utility.yul\":9212:9279   */\n      tag_81\n      jump\t// in\n    tag_167:\n        /* \"#utility.yul\":9205:9279   */\n      swap2\n      pop\n        /* \"#utility.yul\":9288:9381   */\n      tag_168\n        /* \"#utility.yul\":9377:9380   */\n      dup3\n        /* \"#utility.yul\":9288:9381   */\n      tag_101\n      jump\t// in\n    tag_168:\n        /* \"#utility.yul\":9406:9408   */\n      0x20\n        /* \"#utility.yul\":9401:9404   */\n      dup3\n        /* \"#utility.yul\":9397:9409   */\n      add\n        /* \"#utility.yul\":9390:9409   */\n      swap1\n      pop\n        /* \"#utility.yul\":9049:9415   */\n      swap2\n      swap1\n      pop\n      jump\t// out\n        /* \"#utility.yul\":9421:9840   */\n    tag_67:\n        /* \"#utility.yul\":9587:9591   */\n      0x00\n        /* \"#utility.yul\":9625:9627   */\n      0x20\n        /* \"#utility.yul\":9614:9623   */\n      dup3\n        /* \"#utility.yul\":9610:9628   */\n      add\n        /* \"#utility.yul\":9602:9628   */\n      swap1\n      pop\n        /* \"#utility.yul\":9674:9683   */\n      dup2\n        /* \"#utility.yul\":9668:9672   */\n      dup2\n        /* \"#utility.yul\":9664:9684   */\n      sub\n        /* \"#utility.yul\":9660:9661   */\n      0x00\n        /* \"#utility.yul\":9649:9658   */\n      dup4\n        /* \"#utility.yul\":9645:9662   */\n      add\n        /* \"#utility.yul\":9638:9685   */\n      mstore\n        /* \"#utility.yul\":9702:9833   */\n      tag_170\n        /* \"#utility.yul\":9828:9832   */\n      dup2\n        /* \"#utility.yul\":9702:9833   */\n      tag_102\n      jump\t// in\n    tag_170:\n        /* \"#utility.yul\":9694:9833   */\n      swap1\n      pop\n        /* \"#utility.yul\":9421:9840   */\n      swap2\n      swap1\n      pop\n      jump\t// out\n        /* \"#utility.yul\":9846:10026   */\n    tag_103:\n        /* \"#utility.yul\":9986:10018   */\n      0x416d6f756e74206f6620636f6e7469627574696f6e206973207a65726f210000\n        /* \"#utility.yul\":9982:9983   */\n      0x00\n        /* \"#utility.yul\":9974:9980   */\n      dup3\n        /* \"#utility.yul\":9970:9984   */\n      add\n        /* \"#utility.yul\":9963:10019   */\n      mstore\n        /* \"#utility.yul\":9846:10026   */\n      pop\n      jump\t// out\n        /* \"#utility.yul\":10032:10398   */\n    tag_104:\n        /* \"#utility.yul\":10174:10177   */\n      0x00\n        /* \"#utility.yul\":10195:10262   */\n      tag_173\n        /* \"#utility.yul\":10259:10261   */\n      0x1e\n        /* \"#utility.yul\":10254:10257   */\n      dup4\n        /* \"#utility.yul\":10195:10262   */\n      tag_81\n      jump\t// in\n    tag_173:\n        /* \"#utility.yul\":10188:10262   */\n      swap2\n      pop\n        /* \"#utility.yul\":10271:10364   */\n      tag_174\n        /* \"#utility.yul\":10360:10363   */\n      dup3\n        /* \"#utility.yul\":10271:10364   */\n      tag_103\n      jump\t// in\n    tag_174:\n        /* \"#utility.yul\":10389:10391   */\n      0x20\n        /* \"#utility.yul\":10384:10387   */\n      dup3\n        /* \"#utility.yul\":10380:10392   */\n      add\n        /* \"#utility.yul\":10373:10392   */\n      swap1\n      pop\n        /* \"#utility.yul\":10032:10398   */\n      swap2\n      swap1\n      pop\n      jump\t// out\n        /* \"#utility.yul\":10404:10823   */\n    tag_71:\n        /* \"#utility.yul\":10570:10574   */\n      0x00\n        /* \"#utility.yul\":10608:10610   */\n      0x20\n        /* \"#utility.yul\":10597:10606   */\n      dup3\n        /* \"#utility.yul\":10593:10611   */\n      add\n        /* \"#utility.yul\":10585:10611   */\n      swap1\n      pop\n        /* \"#utility.yul\":10657:10666   */\n      dup2\n        /* \"#utility.yul\":10651:10655   */\n      dup2\n        /* \"#utility.yul\":10647:10667   */\n      sub\n        /* \"#utility.yul\":10643:10644   */\n      0x00\n        /* \"#utility.yul\":10632:10641   */\n      dup4\n        /* \"#utility.yul\":10628:10645   */\n      add\n        /* \"#utility.yul\":10621:10668   */\n      mstore\n        /* \"#utility.yul\":10685:10816   */\n      tag_176\n        /* \"#utility.yul\":10811:10815   */\n      dup2\n        /* \"#utility.yul\":10685:10816   */\n      tag_104\n      jump\t// in\n    tag_176:\n        /* \"#utility.yul\":10677:10816   */\n      swap1\n      pop\n        /* \"#utility.yul\":10404:10823   */\n      swap2\n      swap1\n      pop\n      jump\t// out\n        /* \"#utility.yul\":10829:11009   */\n    tag_105:\n        /* \"#utility.yul\":10877:10954   */\n      0x4e487b7100000000000000000000000000000000000000000000000000000000\n        /* \"#utility.yul\":10874:10875   */\n      0x00\n        /* \"#utility.yul\":10867:10955   */\n      mstore\n        /* \"#utility.yul\":10974:10978   */\n      0x11\n        /* \"#utility.yul\":10971:10972   */\n      0x04\n        /* \"#utility.yul\":10964:10979   */\n      mstore\n        /* \"#utility.yul\":10998:11002   */\n      0x24\n        /* \"#utility.yul\":10995:10996   */\n      0x00\n        /* \"#utility.yul\":10988:11003   */\n      revert\n        /* \"#utility.yul\":11015:11206   */\n    tag_74:\n        /* \"#utility.yul\":11055:11058   */\n      0x00\n        /* \"#utility.yul\":11074:11094   */\n      tag_179\n        /* \"#utility.yul\":11092:11093   */\n      dup3\n        /* \"#utility.yul\":11074:11094   */\n      tag_93\n      jump\t// in\n    tag_179:\n        /* \"#utility.yul\":11069:11094   */\n      swap2\n      pop\n        /* \"#utility.yul\":11108:11128   */\n      tag_180\n        /* \"#utility.yul\":11126:11127   */\n      dup4\n        /* \"#utility.yul\":11108:11128   */\n      tag_93\n      jump\t// in\n    tag_180:\n        /* \"#utility.yul\":11103:11128   */\n      swap3\n      pop\n        /* \"#utility.yul\":11151:11152   */\n      dup3\n        /* \"#utility.yul\":11148:11149   */\n      dup3\n        /* \"#utility.yul\":11144:11153   */\n      add\n        /* \"#utility.yul\":11137:11153   */\n      swap1\n      pop\n        /* \"#utility.yul\":11172:11175   */\n      dup1\n        /* \"#utility.yul\":11169:11170   */\n      dup3\n        /* \"#utility.yul\":11166:11176   */\n      gt\n        /* \"#utility.yul\":11163:11199   */\n      iszero\n      tag_181\n      jumpi\n        /* \"#utility.yul\":11179:11197   */\n      tag_182\n      tag_105\n      jump\t// in\n    tag_182:\n        /* \"#utility.yul\":11163:11199   */\n    tag_181:\n        /* \"#utility.yul\":11015:11206   */\n      swap3\n      swap2\n      pop\n      pop\n      jump\t// out\n        /* \"#utility.yul\":11212:11302   */\n    tag_106:\n        /* \"#utility.yul\":11246:11253   */\n      0x00\n        /* \"#utility.yul\":11289:11294   */\n      dup2\n        /* \"#utility.yul\":11282:11295   */\n      iszero\n        /* \"#utility.yul\":11275:11296   */\n      iszero\n        /* \"#utility.yul\":11264:11296   */\n      swap1\n      pop\n        /* \"#utility.yul\":11212:11302   */\n      swap2\n      swap1\n      pop\n      jump\t// out\n        /* \"#utility.yul\":11308:11417   */\n    tag_107:\n        /* \"#utility.yul\":11389:11410   */\n      tag_185\n        /* \"#utility.yul\":11404:11409   */\n      dup2\n        /* \"#utility.yul\":11389:11410   */\n      tag_106\n      jump\t// in\n    tag_185:\n        /* \"#utility.yul\":11384:11387   */\n      dup3\n        /* \"#utility.yul\":11377:11411   */\n      mstore\n        /* \"#utility.yul\":11308:11417   */\n      pop\n      pop\n      jump\t// out\n        /* \"#utility.yul\":11423:11853   */\n    tag_80:\n        /* \"#utility.yul\":11566:11570   */\n      0x00\n        /* \"#utility.yul\":11604:11606   */\n      0x60\n        /* \"#utility.yul\":11593:11602   */\n      dup3\n        /* \"#utility.yul\":11589:11607   */\n      add\n        /* \"#utility.yul\":11581:11607   */\n      swap1\n      pop\n        /* \"#utility.yul\":11617:11688   */\n      tag_187\n        /* \"#utility.yul\":11685:11686   */\n      0x00\n        /* \"#utility.yul\":11674:11683   */\n      dup4\n        /* \"#utility.yul\":11670:11687   */\n      add\n        /* \"#utility.yul\":11661:11667   */\n      dup7\n        /* \"#utility.yul\":11617:11688   */\n      tag_94\n      jump\t// in\n    tag_187:\n        /* \"#utility.yul\":11698:11770   */\n      tag_188\n        /* \"#utility.yul\":11766:11768   */\n      0x20\n        /* \"#utility.yul\":11755:11764   */\n      dup4\n        /* \"#utility.yul\":11751:11769   */\n      add\n        /* \"#utility.yul\":11742:11748   */\n      dup6\n        /* \"#utility.yul\":11698:11770   */\n      tag_94\n      jump\t// in\n    tag_188:\n        /* \"#utility.yul\":11780:11846   */\n      tag_189\n        /* \"#utility.yul\":11842:11844   */\n      0x40\n        /* \"#utility.yul\":11831:11840   */\n      dup4\n        /* \"#utility.yul\":11827:11845   */\n      add\n        /* \"#utility.yul\":11818:11824   */\n      dup5\n        /* \"#utility.yul\":11780:11846   */\n      tag_107\n      jump\t// in\n    tag_189:\n        /* \"#utility.yul\":11423:11853   */\n      swap5\n      swap4\n      pop\n      pop\n      pop\n      pop\n      jump\t// out\n\n    auxdata: 0xa2646970667358221220e4a62b221d83fde82ff04809cc93132b8d09bc0eff24b62dc2df34d7afd90bcd64736f6c634300081e0033\n}\n",
				"bytecode": {
					"linkReferences": {},
					"object": "60806040525f60065f6101000a81548160ff021916908315150217905550348015610028575f5ffd5b50604051610e60380380610e60833981810160405281019061004a9190610190565b335f5f015f6101000a81548173ffffffffffffffffffffffffffffffffffffffff021916908373ffffffffffffffffffffffffffffffffffffffff160217905550815f6001018190555080426100a091906101fb565b5f600201819055505f5f600301819055505f5f6004015f6101000a81548160ff021916908360038111156100d7576100d661022e565b5b02179055505f5f015f9054906101000a900473ffffffffffffffffffffffffffffffffffffffff1673ffffffffffffffffffffffffffffffffffffffff167f681f945f90ca3793b37315ed6a012353c82c1b37ca023ef835c746461359f552835f6002015460405161014a92919061026a565b60405180910390a25050610291565b5f5ffd5b5f819050919050565b61016f8161015d565b8114610179575f5ffd5b50565b5f8151905061018a81610166565b92915050565b5f5f604083850312156101a6576101a5610159565b5b5f6101b38582860161017c565b92505060206101c48582860161017c565b9150509250929050565b7f4e487b71000000000000000000000000000000000000000000000000000000005f52601160045260245ffd5b5f6102058261015d565b91506102108361015d565b9250828201905080821115610228576102276101ce565b5b92915050565b7f4e487b71000000000000000000000000000000000000000000000000000000005f52602160045260245ffd5b6102648161015d565b82525050565b5f60408201905061027d5f83018561025b565b61028a602083018461025b565b9392505050565b610bc28061029e5f395ff3fe608060405260043610610033575f3560e01c80633ccfd60b146100375780634bb278f314610041578063d7bb99ba14610057575b5f5ffd5b61003f610061565b005b34801561004c575f5ffd5b506100556102c7565b005b61005f61037c565b005b5f5f015f9054906101000a900473ffffffffffffffffffffffffffffffffffffffff1673ffffffffffffffffffffffffffffffffffffffff163373ffffffffffffffffffffffffffffffffffffffff16146100f1576040517f08c379a00000000000000000000000000000000000000000000000000000000081526004016100e890610694565b60405180910390fd5b60016003811115610105576101046106b2565b5b5f6004015f9054906101000a900460ff166003811115610128576101276106b2565b5b14610168576040517f08c379a000000000000000000000000000000000000000000000000000000000815260040161015f90610729565b60405180910390fd5b5f5f60030154118015610187575060065f9054906101000a900460ff16155b6101c6576040517f08c379a00000000000000000000000000000000000000000000000000000000081526004016101bd90610791565b60405180910390fd5b5f3373ffffffffffffffffffffffffffffffffffffffff165f600301546040516101ef906107dc565b5f6040518083038185875af1925050503d805f8114610229576040519150601f19603f3d011682016040523d82523d5f602084013e61022e565b606091505b5050905080610272576040517f08c379a00000000000000000000000000000000000000000000000000000000081526004016102699061083a565b60405180910390fd5b3373ffffffffffffffffffffffffffffffffffffffff167f7084f5476618d8e60b11ef0d7d3f06914655adb8793e28ff7f018d4c76d505d55f600301546040516102bc9190610870565b60405180910390a250565b5f60020154421161030d576040517f08c379a0000000000000000000000000000000000000000000000000000000008152600401610304906108d3565b60405180910390fd5b5f600101545f600301541061034d5760015f6004015f6101000a81548160ff02191690836003811115610343576103426106b2565b5b021790555061037a565b60025f6004015f6101000a81548160ff02191690836003811115610374576103736106b2565b5b02179055505b565b5f5f015f9054906101000a900473ffffffffffffffffffffffffffffffffffffffff1673ffffffffffffffffffffffffffffffffffffffff163373ffffffffffffffffffffffffffffffffffffffff160361040c576040517f08c379a000000000000000000000000000000000000000000000000000000000815260040161040390610961565b60405180910390fd5b5f600381111561041f5761041e6106b2565b5b5f6004015f9054906101000a900460ff166003811115610442576104416106b2565b5b14610482576040517f08c379a0000000000000000000000000000000000000000000000000000000008152600401610479906109ef565b60405180910390fd5b5f6002015442106104c8576040517f08c379a00000000000000000000000000000000000000000000000000000000081526004016104bf90610a57565b60405180910390fd5b5f341161050a576040517f08c379a000000000000000000000000000000000000000000000000000000000815260040161050190610abf565b60405180910390fd5b345f6005015f3373ffffffffffffffffffffffffffffffffffffffff1673ffffffffffffffffffffffffffffffffffffffff1681526020019081526020015f205f8282546105589190610b0a565b92505081905550345f6003015f8282546105729190610b0a565b925050819055505f5f600101545f600301541015905080156105bb5760015f6004015f6101000a81548160ff021916908360038111156105b5576105b46106b2565b5b02179055505b3373ffffffffffffffffffffffffffffffffffffffff167fa3cf76d32602a2a687abed22e487ac1357d386fecf9be68fe771f9c97606f3c3345f600301548460405161060993929190610b57565b60405180910390a250565b5f82825260208201905092915050565b7f6f6e6c79206f776e65722068617320726967687420746f2074686973206163745f8201527f696f6e2100000000000000000000000000000000000000000000000000000000602082015250565b5f61067e602483610614565b915061068982610624565b604082019050919050565b5f6020820190508181035f8301526106ab81610672565b9050919050565b7f4e487b71000000000000000000000000000000000000000000000000000000005f52602160045260245ffd5b7f636f6d706169676e206973206e6f7420796574207375636365737366756c00005f82015250565b5f610713601e83610614565b915061071e826106df565b602082019050919050565b5f6020820190508181035f83015261074081610707565b9050919050565b7f57697468647261776e206973206e6f7420706f737369626c65210000000000005f82015250565b5f61077b601a83610614565b915061078682610747565b602082019050919050565b5f6020820190508181035f8301526107a88161076f565b9050919050565b5f81905092915050565b50565b5f6107c75f836107af565b91506107d2826107b9565b5f82019050919050565b5f6107e6826107bc565b9150819050919050565b7f455448207769746864726177616c206661696c656421000000000000000000005f82015250565b5f610824601683610614565b915061082f826107f0565b602082019050919050565b5f6020820190508181035f83015261085181610818565b9050919050565b5f819050919050565b61086a81610858565b82525050565b5f6020820190506108835f830184610861565b92915050565b7f636f6d706169676e206973207374696c6c20696e2070726f67726573732100005f82015250565b5f6108bd601e83610614565b91506108c882610889565b602082019050919050565b5f6020820190508181035f8301526108ea816108b1565b9050919050565b7f63726561746f7220686173206e6f2072696768747320746f20636f6e747269625f8201527f75746520696e20636f6d706169676e0000000000000000000000000000000000602082015250565b5f61094b602f83610614565b9150610956826108f1565b604082019050919050565b5f6020820190508181035f8301526109788161093f565b9050919050565b7f636f6d706169676e206973206e6f7420756e64657220746865207374617465205f8201527f46554e44494e4700000000000000000000000000000000000000000000000000602082015250565b5f6109d9602783610614565b91506109e48261097f565b604082019050919050565b5f6020820190508181035f830152610a06816109cd565b9050919050565b7f646561646c696e65206d697373656421000000000000000000000000000000005f82015250565b5f610a41601083610614565b9150610a4c82610a0d565b602082019050919050565b5f6020820190508181035f830152610a6e81610a35565b9050919050565b7f416d6f756e74206f6620636f6e7469627574696f6e206973207a65726f2100005f82015250565b5f610aa9601e83610614565b9150610ab482610a75565b602082019050919050565b5f6020820190508181035f830152610ad681610a9d565b9050919050565b7f4e487b71000000000000000000000000000000000000000000000000000000005f52601160045260245ffd5b5f610b1482610858565b9150610b1f83610858565b9250828201905080821115610b3757610b36610add565b5b92915050565b5f8115159050919050565b610b5181610b3d565b82525050565b5f606082019050610b6a5f830186610861565b610b776020830185610861565b610b846040830184610b48565b94935050505056fea2646970667358221220e4a62b221d83fde82ff04809cc93132b8d09bc0eff24b62dc2df34d7afd90bcd64736f6c634300081e0033",
					"opcodes": "PUSH1 0x80 PUSH1 0x40 MSTORE PUSH0 PUSH1 0x6 PUSH0 PUSH2 0x100 EXP DUP2 SLOAD DUP2 PUSH1 0xFF MUL NOT AND SWAP1 DUP4 ISZERO ISZERO MUL OR SWAP1 SSTORE POP CALLVALUE DUP1 ISZERO PUSH2 0x28 JUMPI PUSH0 PUSH0 REVERT JUMPDEST POP PUSH1 0x40 MLOAD PUSH2 0xE60 CODESIZE SUB DUP1 PUSH2 0xE60 DUP4 CODECOPY DUP2 DUP2 ADD PUSH1 0x40 MSTORE DUP2 ADD SWAP1 PUSH2 0x4A SWAP2 SWAP1 PUSH2 0x190 JUMP JUMPDEST CALLER PUSH0 PUSH0 ADD PUSH0 PUSH2 0x100 EXP DUP2 SLOAD DUP2 PUSH20 0xFFFFFFFFFFFFFFFFFFFFFFFFFFFFFFFFFFFFFFFF MUL NOT AND SWAP1 DUP4 PUSH20 0xFFFFFFFFFFFFFFFFFFFFFFFFFFFFFFFFFFFFFFFF AND MUL OR SWAP1 SSTORE POP DUP2 PUSH0 PUSH1 0x1 ADD DUP2 SWAP1 SSTORE POP DUP1 TIMESTAMP PUSH2 0xA0 SWAP2 SWAP1 PUSH2 0x1FB JUMP JUMPDEST PUSH0 PUSH1 0x2 ADD DUP2 SWAP1 SSTORE POP PUSH0 PUSH0 PUSH1 0x3 ADD DUP2 SWAP1 SSTORE POP PUSH0 PUSH0 PUSH1 0x4 ADD PUSH0 PUSH2 0x100 EXP DUP2 SLOAD DUP2 PUSH1 0xFF MUL NOT AND SWAP1 DUP4 PUSH1 0x3 DUP2 GT ISZERO PUSH2 0xD7 JUMPI PUSH2 0xD6 PUSH2 0x22E JUMP JUMPDEST JUMPDEST MUL OR SWAP1 SSTORE POP PUSH0 PUSH0 ADD PUSH0 SWAP1 SLOAD SWAP1 PUSH2 0x100 EXP SWAP1 DIV PUSH20 0xFFFFFFFFFFFFFFFFFFFFFFFFFFFFFFFFFFFFFFFF AND PUSH20 0xFFFFFFFFFFFFFFFFFFFFFFFFFFFFFFFFFFFFFFFF AND PUSH32 0x681F945F90CA3793B37315ED6A012353C82C1B37CA023EF835C746461359F552 DUP4 PUSH0 PUSH1 0x2 ADD SLOAD PUSH1 0x40 MLOAD PUSH2 0x14A SWAP3 SWAP2 SWAP1 PUSH2 0x26A JUMP JUMPDEST PUSH1 0x40 MLOAD DUP1 SWAP2 SUB SWAP1 LOG2 POP POP PUSH2 0x291 JUMP JUMPDEST PUSH0 PUSH0 REVERT JUMPDEST PUSH0 DUP2 SWAP1 POP SWAP2 SWAP1 POP JUMP JUMPDEST PUSH2 0x16F DUP2 PUSH2 0x15D JUMP JUMPDEST DUP2 EQ PUSH2 0x179 JUMPI PUSH0 PUSH0 REVERT JUMPDEST POP JUMP JUMPDEST PUSH0 DUP2 MLOAD SWAP1 POP PUSH2 0x18A DUP2 PUSH2 0x166 JUMP JUMPDEST SWAP3 SWAP2 POP POP JUMP JUMPDEST PUSH0 PUSH0 PUSH1 0x40 DUP4 DUP6 SUB SLT ISZERO PUSH2 0x1A6 JUMPI PUSH2 0x1A5 PUSH2 0x159 JUMP JUMPDEST JUMPDEST PUSH0 PUSH2 0x1B3 DUP6 DUP3 DUP7 ADD PUSH2 0x17C JUMP JUMPDEST SWAP3 POP POP PUSH1 0x20 PUSH2 0x1C4 DUP6 DUP3 DUP7 ADD PUSH2 0x17C JUMP JUMPDEST SWAP2 POP POP SWAP3 POP SWAP3 SWAP1 POP JUMP JUMPDEST PUSH32 0x4E487B7100000000000000000000000000000000000000000000000000000000 PUSH0 MSTORE PUSH1 0x11 PUSH1 0x4 MSTORE PUSH1 0x24 PUSH0 REVERT JUMPDEST PUSH0 PUSH2 0x205 DUP3 PUSH2 0x15D JUMP JUMPDEST SWAP2 POP PUSH2 0x210 DUP4 PUSH2 0x15D JUMP JUMPDEST SWAP3 POP DUP3 DUP3 ADD SWAP1 POP DUP1 DUP3 GT ISZERO PUSH2 0x228 JUMPI PUSH2 0x227 PUSH2 0x1CE JUMP JUMPDEST JUMPDEST SWAP3 SWAP2 POP POP JUMP JUMPDEST PUSH32 0x4E487B7100000000000000000000000000000000000000000000000000000000 PUSH0 MSTORE PUSH1 0x21 PUSH1 0x4 MSTORE PUSH1 0x24 PUSH0 REVERT JUMPDEST PUSH2 0x264 DUP2 PUSH2 0x15D JUMP JUMPDEST DUP3 MSTORE POP POP JUMP JUMPDEST PUSH0 PUSH1 0x40 DUP3 ADD SWAP1 POP PUSH2 0x27D PUSH0 DUP4 ADD DUP6 PUSH2 0x25B JUMP JUMPDEST PUSH2 0x28A PUSH1 0x20 DUP4 ADD DUP5 PUSH2 0x25B JUMP JUMPDEST SWAP4 SWAP3 POP POP POP JUMP JUMPDEST PUSH2 0xBC2 DUP1 PUSH2 0x29E PUSH0 CODECOPY PUSH0 RETURN INVALID PUSH1 0x80 PUSH1 0x40 MSTORE PUSH1 0x4 CALLDATASIZE LT PUSH2 0x33 JUMPI PUSH0 CALLDATALOAD PUSH1 0xE0 SHR DUP1 PUSH4 0x3CCFD60B EQ PUSH2 0x37 JUMPI DUP1 PUSH4 0x4BB278F3 EQ PUSH2 0x41 JUMPI DUP1 PUSH4 0xD7BB99BA EQ PUSH2 0x57 JUMPI JUMPDEST PUSH0 PUSH0 REVERT JUMPDEST PUSH2 0x3F PUSH2 0x61 JUMP JUMPDEST STOP JUMPDEST CALLVALUE DUP1 ISZERO PUSH2 0x4C JUMPI PUSH0 PUSH0 REVERT JUMPDEST POP PUSH2 0x55 PUSH2 0x2C7 JUMP JUMPDEST STOP JUMPDEST PUSH2 0x5F PUSH2 0x37C JUMP JUMPDEST STOP JUMPDEST PUSH0 PUSH0 ADD PUSH0 SWAP1 SLOAD SWAP1 PUSH2 0x100 EXP SWAP1 DIV PUSH20 0xFFFFFFFFFFFFFFFFFFFFFFFFFFFFFFFFFFFFFFFF AND PUSH20 0xFFFFFFFFFFFFFFFFFFFFFFFFFFFFFFFFFFFFFFFF AND CALLER PUSH20 0xFFFFFFFFFFFFFFFFFFFFFFFFFFFFFFFFFFFFFFFF AND EQ PUSH2 0xF1 JUMPI PUSH1 0x40 MLOAD PUSH32 0x8C379A000000000000000000000000000000000000000000000000000000000 DUP2 MSTORE PUSH1 0x4 ADD PUSH2 0xE8 SWAP1 PUSH2 0x694 JUMP JUMPDEST PUSH1 0x40 MLOAD DUP1 SWAP2 SUB SWAP1 REVERT JUMPDEST PUSH1 0x1 PUSH1 0x3 DUP2 GT ISZERO PUSH2 0x105 JUMPI PUSH2 0x104 PUSH2 0x6B2 JUMP JUMPDEST JUMPDEST PUSH0 PUSH1 0x4 ADD PUSH0 SWAP1 SLOAD SWAP1 PUSH2 0x100 EXP SWAP1 DIV PUSH1 0xFF AND PUSH1 0x3 DUP2 GT ISZERO PUSH2 0x128 JUMPI PUSH2 0x127 PUSH2 0x6B2 JUMP JUMPDEST JUMPDEST EQ PUSH2 0x168 JUMPI PUSH1 0x40 MLOAD PUSH32 0x8C379A000000000000000000000000000000000000000000000000000000000 DUP2 MSTORE PUSH1 0x4 ADD PUSH2 0x15F SWAP1 PUSH2 0x729 JUMP JUMPDEST PUSH1 0x40 MLOAD DUP1 SWAP2 SUB SWAP1 REVERT JUMPDEST PUSH0 PUSH0 PUSH1 0x3 ADD SLOAD GT DUP1 ISZERO PUSH2 0x187 JUMPI POP PUSH1 0x6 PUSH0 SWAP1 SLOAD SWAP1 PUSH2 0x100 EXP SWAP1 DIV PUSH1 0xFF AND ISZERO JUMPDEST PUSH2 0x1C6 JUMPI PUSH1 0x40 MLOAD PUSH32 0x8C379A000000000000000000000000000000000000000000000000000000000 DUP2 MSTORE PUSH1 0x4 ADD PUSH2 0x1BD SWAP1 PUSH2 0x791 JUMP JUMPDEST PUSH1 0x40 MLOAD DUP1 SWAP2 SUB SWAP1 REVERT JUMPDEST PUSH0 CALLER PUSH20 0xFFFFFFFFFFFFFFFFFFFFFFFFFFFFFFFFFFFFFFFF AND PUSH0 PUSH1 0x3 ADD SLOAD PUSH1 0x40 MLOAD PUSH2 0x1EF SWAP1 PUSH2 0x7DC JUMP JUMPDEST PUSH0 PUSH1 0x40 MLOAD DUP1 DUP4 SUB DUP2 DUP6 DUP8 GAS CALL SWAP3 POP POP POP RETURNDATASIZE DUP1 PUSH0 DUP2 EQ PUSH2 0x229 JUMPI PUSH1 0x40 MLOAD SWAP2 POP PUSH1 0x1F NOT PUSH1 0x3F RETURNDATASIZE ADD AND DUP3 ADD PUSH1 0x40 MSTORE RETURNDATASIZE DUP3 MSTORE RETURNDATASIZE PUSH0 PUSH1 0x20 DUP5 ADD RETURNDATACOPY PUSH2 0x22E JUMP JUMPDEST PUSH1 0x60 SWAP2 POP JUMPDEST POP POP SWAP1 POP DUP1 PUSH2 0x272 JUMPI PUSH1 0x40 MLOAD PUSH32 0x8C379A000000000000000000000000000000000000000000000000000000000 DUP2 MSTORE PUSH1 0x4 ADD PUSH2 0x269 SWAP1 PUSH2 0x83A JUMP JUMPDEST PUSH1 0x40 MLOAD DUP1 SWAP2 SUB SWAP1 REVERT JUMPDEST CALLER PUSH20 0xFFFFFFFFFFFFFFFFFFFFFFFFFFFFFFFFFFFFFFFF AND PUSH32 0x7084F5476618D8E60B11EF0D7D3F06914655ADB8793E28FF7F018D4C76D505D5 PUSH0 PUSH1 0x3 ADD SLOAD PUSH1 0x40 MLOAD PUSH2 0x2BC SWAP2 SWAP1 PUSH2 0x870 JUMP JUMPDEST PUSH1 0x40 MLOAD DUP1 SWAP2 SUB SWAP1 LOG2 POP JUMP JUMPDEST PUSH0 PUSH1 0x2 ADD SLOAD TIMESTAMP GT PUSH2 0x30D JUMPI PUSH1 0x40 MLOAD PUSH32 0x8C379A000000000000000000000000000000000000000000000000000000000 DUP2 MSTORE PUSH1 0x4 ADD PUSH2 0x304 SWAP1 PUSH2 0x8D3 JUMP JUMPDEST PUSH1 0x40 MLOAD DUP1 SWAP2 SUB SWAP1 REVERT JUMPDEST PUSH0 PUSH1 0x1 ADD SLOAD PUSH0 PUSH1 0x3 ADD SLOAD LT PUSH2 0x34D JUMPI PUSH1 0x1 PUSH0 PUSH1 0x4 ADD PUSH0 PUSH2 0x100 EXP DUP2 SLOAD DUP2 PUSH1 0xFF MUL NOT AND SWAP1 DUP4 PUSH1 0x3 DUP2 GT ISZERO PUSH2 0x343 JUMPI PUSH2 0x342 PUSH2 0x6B2 JUMP JUMPDEST JUMPDEST MUL OR SWAP1 SSTORE POP PUSH2 0x37A JUMP JUMPDEST PUSH1 0x2 PUSH0 PUSH1 0x4 ADD PUSH0 PUSH2 0x100 EXP DUP2 SLOAD DUP2 PUSH1 0xFF MUL NOT AND SWAP1 DUP4 PUSH1 0x3 DUP2 GT ISZERO PUSH2 0x374 JUMPI PUSH2 0x373 PUSH2 0x6B2 JUMP JUMPDEST JUMPDEST MUL OR SWAP1 SSTORE POP JUMPDEST JUMP JUMPDEST PUSH0 PUSH0 ADD PUSH0 SWAP1 SLOAD SWAP1 PUSH2 0x100 EXP SWAP1 DIV PUSH20 0xFFFFFFFFFFFFFFFFFFFFFFFFFFFFFFFFFFFFFFFF AND PUSH20 0xFFFFFFFFFFFFFFFFFFFFFFFFFFFFFFFFFFFFFFFF AND CALLER PUSH20 0xFFFFFFFFFFFFFFFFFFFFFFFFFFFFFFFFFFFFFFFF AND SUB PUSH2 0x40C JUMPI PUSH1 0x40 MLOAD PUSH32 0x8C379A000000000000000000000000000000000000000000000000000000000 DUP2 MSTORE PUSH1 0x4 ADD PUSH2 0x403 SWAP1 PUSH2 0x961 JUMP JUMPDEST PUSH1 0x40 MLOAD DUP1 SWAP2 SUB SWAP1 REVERT JUMPDEST PUSH0 PUSH1 0x3 DUP2 GT ISZERO PUSH2 0x41F JUMPI PUSH2 0x41E PUSH2 0x6B2 JUMP JUMPDEST JUMPDEST PUSH0 PUSH1 0x4 ADD PUSH0 SWAP1 SLOAD SWAP1 PUSH2 0x100 EXP SWAP1 DIV PUSH1 0xFF AND PUSH1 0x3 DUP2 GT ISZERO PUSH2 0x442 JUMPI PUSH2 0x441 PUSH2 0x6B2 JUMP JUMPDEST JUMPDEST EQ PUSH2 0x482 JUMPI PUSH1 0x40 MLOAD PUSH32 0x8C379A000000000000000000000000000000000000000000000000000000000 DUP2 MSTORE PUSH1 0x4 ADD PUSH2 0x479 SWAP1 PUSH2 0x9EF JUMP JUMPDEST PUSH1 0x40 MLOAD DUP1 SWAP2 SUB SWAP1 REVERT JUMPDEST PUSH0 PUSH1 0x2 ADD SLOAD TIMESTAMP LT PUSH2 0x4C8 JUMPI PUSH1 0x40 MLOAD PUSH32 0x8C379A000000000000000000000000000000000000000000000000000000000 DUP2 MSTORE PUSH1 0x4 ADD PUSH2 0x4BF SWAP1 PUSH2 0xA57 JUMP JUMPDEST PUSH1 0x40 MLOAD DUP1 SWAP2 SUB SWAP1 REVERT JUMPDEST PUSH0 CALLVALUE GT PUSH2 0x50A JUMPI PUSH1 0x40 MLOAD PUSH32 0x8C379A000000000000000000000000000000000000000000000000000000000 DUP2 MSTORE PUSH1 0x4 ADD PUSH2 0x501 SWAP1 PUSH2 0xABF JUMP JUMPDEST PUSH1 0x40 MLOAD DUP1 SWAP2 SUB SWAP1 REVERT JUMPDEST CALLVALUE PUSH0 PUSH1 0x5 ADD PUSH0 CALLER PUSH20 0xFFFFFFFFFFFFFFFFFFFFFFFFFFFFFFFFFFFFFFFF AND PUSH20 0xFFFFFFFFFFFFFFFFFFFFFFFFFFFFFFFFFFFFFFFF AND DUP2 MSTORE PUSH1 0x20 ADD SWAP1 DUP2 MSTORE PUSH1 0x20 ADD PUSH0 KECCAK256 PUSH0 DUP3 DUP3 SLOAD PUSH2 0x558 SWAP2 SWAP1 PUSH2 0xB0A JUMP JUMPDEST SWAP3 POP POP DUP2 SWAP1 SSTORE POP CALLVALUE PUSH0 PUSH1 0x3 ADD PUSH0 DUP3 DUP3 SLOAD PUSH2 0x572 SWAP2 SWAP1 PUSH2 0xB0A JUMP JUMPDEST SWAP3 POP POP DUP2 SWAP1 SSTORE POP PUSH0 PUSH0 PUSH1 0x1 ADD SLOAD PUSH0 PUSH1 0x3 ADD SLOAD LT ISZERO SWAP1 POP DUP1 ISZERO PUSH2 0x5BB JUMPI PUSH1 0x1 PUSH0 PUSH1 0x4 ADD PUSH0 PUSH2 0x100 EXP DUP2 SLOAD DUP2 PUSH1 0xFF MUL NOT AND SWAP1 DUP4 PUSH1 0x3 DUP2 GT ISZERO PUSH2 0x5B5 JUMPI PUSH2 0x5B4 PUSH2 0x6B2 JUMP JUMPDEST JUMPDEST MUL OR SWAP1 SSTORE POP JUMPDEST CALLER PUSH20 0xFFFFFFFFFFFFFFFFFFFFFFFFFFFFFFFFFFFFFFFF AND PUSH32 0xA3CF76D32602A2A687ABED22E487AC1357D386FECF9BE68FE771F9C97606F3C3 CALLVALUE PUSH0 PUSH1 0x3 ADD SLOAD DUP5 PUSH1 0x40 MLOAD PUSH2 0x609 SWAP4 SWAP3 SWAP2 SWAP1 PUSH2 0xB57 JUMP JUMPDEST PUSH1 0x40 MLOAD DUP1 SWAP2 SUB SWAP1 LOG2 POP JUMP JUMPDEST PUSH0 DUP3 DUP3 MSTORE PUSH1 0x20 DUP3 ADD SWAP1 POP SWAP3 SWAP2 POP POP JUMP JUMPDEST PUSH32 0x6F6E6C79206F776E65722068617320726967687420746F207468697320616374 PUSH0 DUP3 ADD MSTORE PUSH32 0x696F6E2100000000000000000000000000000000000000000000000000000000 PUSH1 0x20 DUP3 ADD MSTORE POP JUMP JUMPDEST PUSH0 PUSH2 0x67E PUSH1 0x24 DUP4 PUSH2 0x614 JUMP JUMPDEST SWAP2 POP PUSH2 0x689 DUP3 PUSH2 0x624 JUMP JUMPDEST PUSH1 0x40 DUP3 ADD SWAP1 POP SWAP2 SWAP1 POP JUMP JUMPDEST PUSH0 PUSH1 0x20 DUP3 ADD SWAP1 POP DUP2 DUP2 SUB PUSH0 DUP4 ADD MSTORE PUSH2 0x6AB DUP2 PUSH2 0x672 JUMP JUMPDEST SWAP1 POP SWAP2 SWAP1 POP JUMP JUMPDEST PUSH32 0x4E487B7100000000000000000000000000000000000000000000000000000000 PUSH0 MSTORE PUSH1 0x21 PUSH1 0x4 MSTORE PUSH1 0x24 PUSH0 REVERT JUMPDEST PUSH32 0x636F6D706169676E206973206E6F7420796574207375636365737366756C0000 PUSH0 DUP3 ADD MSTORE POP JUMP JUMPDEST PUSH0 PUSH2 0x713 PUSH1 0x1E DUP4 PUSH2 0x614 JUMP JUMPDEST SWAP2 POP PUSH2 0x71E DUP3 PUSH2 0x6DF JUMP JUMPDEST PUSH1 0x20 DUP3 ADD SWAP1 POP SWAP2 SWAP1 POP JUMP JUMPDEST PUSH0 PUSH1 0x20 DUP3 ADD SWAP1 POP DUP2 DUP2 SUB PUSH0 DUP4 ADD MSTORE PUSH2 0x740 DUP2 PUSH2 0x707 JUMP JUMPDEST SWAP1 POP SWAP2 SWAP1 POP JUMP JUMPDEST PUSH32 0x57697468647261776E206973206E6F7420706F737369626C6521000000000000 PUSH0 DUP3 ADD MSTORE POP JUMP JUMPDEST PUSH0 PUSH2 0x77B PUSH1 0x1A DUP4 PUSH2 0x614 JUMP JUMPDEST SWAP2 POP PUSH2 0x786 DUP3 PUSH2 0x747 JUMP JUMPDEST PUSH1 0x20 DUP3 ADD SWAP1 POP SWAP2 SWAP1 POP JUMP JUMPDEST PUSH0 PUSH1 0x20 DUP3 ADD SWAP1 POP DUP2 DUP2 SUB PUSH0 DUP4 ADD MSTORE PUSH2 0x7A8 DUP2 PUSH2 0x76F JUMP JUMPDEST SWAP1 POP SWAP2 SWAP1 POP JUMP JUMPDEST PUSH0 DUP2 SWAP1 POP SWAP3 SWAP2 POP POP JUMP JUMPDEST POP JUMP JUMPDEST PUSH0 PUSH2 0x7C7 PUSH0 DUP4 PUSH2 0x7AF JUMP JUMPDEST SWAP2 POP PUSH2 0x7D2 DUP3 PUSH2 0x7B9 JUMP JUMPDEST PUSH0 DUP3 ADD SWAP1 POP SWAP2 SWAP1 POP JUMP JUMPDEST PUSH0 PUSH2 0x7E6 DUP3 PUSH2 0x7BC JUMP JUMPDEST SWAP2 POP DUP2 SWAP1 POP SWAP2 SWAP1 POP JUMP JUMPDEST PUSH32 0x455448207769746864726177616C206661696C65642100000000000000000000 PUSH0 DUP3 ADD MSTORE POP JUMP JUMPDEST PUSH0 PUSH2 0x824 PUSH1 0x16 DUP4 PUSH2 0x614 JUMP JUMPDEST SWAP2 POP PUSH2 0x82F DUP3 PUSH2 0x7F0 JUMP JUMPDEST PUSH1 0x20 DUP3 ADD SWAP1 POP SWAP2 SWAP1 POP JUMP JUMPDEST PUSH0 PUSH1 0x20 DUP3 ADD SWAP1 POP DUP2 DUP2 SUB PUSH0 DUP4 ADD MSTORE PUSH2 0x851 DUP2 PUSH2 0x818 JUMP JUMPDEST SWAP1 POP SWAP2 SWAP1 POP JUMP JUMPDEST PUSH0 DUP2 SWAP1 POP SWAP2 SWAP1 POP JUMP JUMPDEST PUSH2 0x86A DUP2 PUSH2 0x858 JUMP JUMPDEST DUP3 MSTORE POP POP JUMP JUMPDEST PUSH0 PUSH1 0x20 DUP3 ADD SWAP1 POP PUSH2 0x883 PUSH0 DUP4 ADD DUP5 PUSH2 0x861 JUMP JUMPDEST SWAP3 SWAP2 POP POP JUMP JUMPDEST PUSH32 0x636F6D706169676E206973207374696C6C20696E2070726F6772657373210000 PUSH0 DUP3 ADD MSTORE POP JUMP JUMPDEST PUSH0 PUSH2 0x8BD PUSH1 0x1E DUP4 PUSH2 0x614 JUMP JUMPDEST SWAP2 POP PUSH2 0x8C8 DUP3 PUSH2 0x889 JUMP JUMPDEST PUSH1 0x20 DUP3 ADD SWAP1 POP SWAP2 SWAP1 POP JUMP JUMPDEST PUSH0 PUSH1 0x20 DUP3 ADD SWAP1 POP DUP2 DUP2 SUB PUSH0 DUP4 ADD MSTORE PUSH2 0x8EA DUP2 PUSH2 0x8B1 JUMP JUMPDEST SWAP1 POP SWAP2 SWAP1 POP JUMP JUMPDEST PUSH32 0x63726561746F7220686173206E6F2072696768747320746F20636F6E74726962 PUSH0 DUP3 ADD MSTORE PUSH32 0x75746520696E20636F6D706169676E0000000000000000000000000000000000 PUSH1 0x20 DUP3 ADD MSTORE POP JUMP JUMPDEST PUSH0 PUSH2 0x94B PUSH1 0x2F DUP4 PUSH2 0x614 JUMP JUMPDEST SWAP2 POP PUSH2 0x956 DUP3 PUSH2 0x8F1 JUMP JUMPDEST PUSH1 0x40 DUP3 ADD SWAP1 POP SWAP2 SWAP1 POP JUMP JUMPDEST PUSH0 PUSH1 0x20 DUP3 ADD SWAP1 POP DUP2 DUP2 SUB PUSH0 DUP4 ADD MSTORE PUSH2 0x978 DUP2 PUSH2 0x93F JUMP JUMPDEST SWAP1 POP SWAP2 SWAP1 POP JUMP JUMPDEST PUSH32 0x636F6D706169676E206973206E6F7420756E6465722074686520737461746520 PUSH0 DUP3 ADD MSTORE PUSH32 0x46554E44494E4700000000000000000000000000000000000000000000000000 PUSH1 0x20 DUP3 ADD MSTORE POP JUMP JUMPDEST PUSH0 PUSH2 0x9D9 PUSH1 0x27 DUP4 PUSH2 0x614 JUMP JUMPDEST SWAP2 POP PUSH2 0x9E4 DUP3 PUSH2 0x97F JUMP JUMPDEST PUSH1 0x40 DUP3 ADD SWAP1 POP SWAP2 SWAP1 POP JUMP JUMPDEST PUSH0 PUSH1 0x20 DUP3 ADD SWAP1 POP DUP2 DUP2 SUB PUSH0 DUP4 ADD MSTORE PUSH2 0xA06 DUP2 PUSH2 0x9CD JUMP JUMPDEST SWAP1 POP SWAP2 SWAP1 POP JUMP JUMPDEST PUSH32 0x646561646C696E65206D69737365642100000000000000000000000000000000 PUSH0 DUP3 ADD MSTORE POP JUMP JUMPDEST PUSH0 PUSH2 0xA41 PUSH1 0x10 DUP4 PUSH2 0x614 JUMP JUMPDEST SWAP2 POP PUSH2 0xA4C DUP3 PUSH2 0xA0D JUMP JUMPDEST PUSH1 0x20 DUP3 ADD SWAP1 POP SWAP2 SWAP1 POP JUMP JUMPDEST PUSH0 PUSH1 0x20 DUP3 ADD SWAP1 POP DUP2 DUP2 SUB PUSH0 DUP4 ADD MSTORE PUSH2 0xA6E DUP2 PUSH2 0xA35 JUMP JUMPDEST SWAP1 POP SWAP2 SWAP1 POP JUMP JUMPDEST PUSH32 0x416D6F756E74206F6620636F6E7469627574696F6E206973207A65726F210000 PUSH0 DUP3 ADD MSTORE POP JUMP JUMPDEST PUSH0 PUSH2 0xAA9 PUSH1 0x1E DUP4 PUSH2 0x614 JUMP JUMPDEST SWAP2 POP PUSH2 0xAB4 DUP3 PUSH2 0xA75 JUMP JUMPDEST PUSH1 0x20 DUP3 ADD SWAP1 POP SWAP2 SWAP1 POP JUMP JUMPDEST PUSH0 PUSH1 0x20 DUP3 ADD SWAP1 POP DUP2 DUP2 SUB PUSH0 DUP4 ADD MSTORE PUSH2 0xAD6 DUP2 PUSH2 0xA9D JUMP JUMPDEST SWAP1 POP SWAP2 SWAP1 POP JUMP JUMPDEST PUSH32 0x4E487B7100000000000000000000000000000000000000000000000000000000 PUSH0 MSTORE PUSH1 0x11 PUSH1 0x4 MSTORE PUSH1 0x24 PUSH0 REVERT JUMPDEST PUSH0 PUSH2 0xB14 DUP3 PUSH2 0x858 JUMP JUMPDEST SWAP2 POP PUSH2 0xB1F DUP4 PUSH2 0x858 JUMP JUMPDEST SWAP3 POP DUP3 DUP3 ADD SWAP1 POP DUP1 DUP3 GT ISZERO PUSH2 0xB37 JUMPI PUSH2 0xB36 PUSH2 0xADD JUMP JUMPDEST JUMPDEST SWAP3 SWAP2 POP POP JUMP JUMPDEST PUSH0 DUP2 ISZERO ISZERO SWAP1 POP SWAP2 SWAP1 POP JUMP JUMPDEST PUSH2 0xB51 DUP2 PUSH2 0xB3D JUMP JUMPDEST DUP3 MSTORE POP POP JUMP JUMPDEST PUSH0 PUSH1 0x60 DUP3 ADD SWAP1 POP PUSH2 0xB6A PUSH0 DUP4 ADD DUP7 PUSH2 0x861 JUMP JUMPDEST PUSH2 0xB77 PUSH1 0x20 DUP4 ADD DUP6 PUSH2 0x861 JUMP JUMPDEST PUSH2 0xB84 PUSH1 0x40 DUP4 ADD DUP5 PUSH2 0xB48 JUMP JUMPDEST SWAP5 SWAP4 POP POP POP POP JUMP INVALID LOG2 PUSH5 0x6970667358 0x22 SLT KECCAK256 RETF 0xA6 0x2B 0x22 SAR DUP4 REVERT 0xE8 0x2F CREATE BASEFEE MULMOD 0xCC SWAP4 SGT 0x2B DUP14 MULMOD 0xBC 0xE SELFDESTRUCT 0x24 0xB6 0x2D 0xC2 0xDF CALLVALUE 0xD7 0xAF 0xD9 SIGNEXTEND 0xCD PUSH5 0x736F6C6343 STOP ADDMOD 0x1E STOP CALLER "
				},
				"gasEstimates": {
					"creation": {
						"codeDepositCost": "602000",
						"executionCost": "infinite",
						"totalCost": "infinite"
					},
					"external": {
						"contribute()": "infinite",
						"finalize()": "30805",
						"withdraw()": "infinite"
					}
				},
				"methodIdentifiers": {
					"contribute()": "d7bb99ba",
					"finalize()": "4bb278f3",
					"withdraw()": "3ccfd60b"
				}
			},
			"storageLayout": {
				"storage": [
					{
						"astId": 25,
						"contract": "CrowdFunding.sol:CrowdFunding",
						"label": "compaign",
						"offset": 0,
						"slot": "0",
						"type": "t_struct(Compaign)22_storage"
					},
					{
						"astId": 28,
						"contract": "CrowdFunding.sol:CrowdFunding",
						"label": "isWithdrawn",
						"offset": 0,
						"slot": "6",
						"type": "t_bool"
					}
				],
				"types": {
					"t_address": {
						"encoding": "inplace",
						"label": "address",
						"numberOfBytes": "20"
					},
					"t_bool": {
						"encoding": "inplace",
						"label": "bool",
						"numberOfBytes": "1"
					},
					"t_enum(State)6": {
						"encoding": "inplace",
						"label": "enum CrowdFunding.State",
						"numberOfBytes": "1"
					},
					"t_mapping(t_address,t_uint256)": {
						"encoding": "mapping",
						"key": "t_address",
						"label": "mapping(address => uint256)",
						"numberOfBytes": "32",
						"value": "t_uint256"
					},
					"t_struct(Compaign)22_storage": {
						"encoding": "inplace",
						"label": "struct CrowdFunding.Compaign",
						"members": [
							{
								"astId": 8,
								"contract": "CrowdFunding.sol:CrowdFunding",
								"label": "creator",
								"offset": 0,
								"slot": "0",
								"type": "t_address"
							},
							{
								"astId": 10,
								"contract": "CrowdFunding.sol:CrowdFunding",
								"label": "goal",
								"offset": 0,
								"slot": "1",
								"type": "t_uint256"
							},
							{
								"astId": 12,
								"contract": "CrowdFunding.sol:CrowdFunding",
								"label": "deadline",
								"offset": 0,
								"slot": "2",
								"type": "t_uint256"
							},
							{
								"astId": 14,
								"contract": "CrowdFunding.sol:CrowdFunding",
								"label": "totalRaised",
								"offset": 0,
								"slot": "3",
								"type": "t_uint256"
							},
							{
								"astId": 17,
								"contract": "CrowdFunding.sol:CrowdFunding",
								"label": "state",
								"offset": 0,
								"slot": "4",
								"type": "t_enum(State)6"
							},
							{
								"astId": 21,
								"contract": "CrowdFunding.sol:CrowdFunding",
								"label": "contribution",
								"offset": 0,
								"slot": "5",
								"type": "t_mapping(t_address,t_uint256)"
							}
						],
						"numberOfBytes": "192"
					},
					"t_uint256": {
						"encoding": "inplace",
						"label": "uint256",
						"numberOfBytes": "32"
					}
				}
			},
			"userdoc": {
				"kind": "user",
				"methods": {},
				"version": 1
			}
		}
	}
}