{
	"CrowdFunding.sol": {
		"CrowdFunding": {
			"abi": [
				{
					"inputs": [
						{
							"internalType": "uint256",
							"name": "goal",
							"type": "uint256"
						},
						{
							"internalType": "uint256",
							"name": "durationSeconds",
							"type": "uint256"
						}
					],
					"stateMutability": "nonpayable",
					"type": "constructor"
				},
				{
					"anonymous": false,
					"inputs": [
						{
							"indexed": true,
							"internalType": "address",
							"name": "creator",
							"type": "address"
						},
						{
							"indexed": false,
							"internalType": "uint256",
							"name": "goal",
							"type": "uint256"
						},
						{
							"indexed": false,
							"internalType": "uint256",
							"name": "deadline",
							"type": "uint256"
						}
					],
					"name": "CampaignCreated",
					"type": "event"
				},
				{
					"anonymous": false,
					"inputs": [
						{
							"indexed": true,
							"internalType": "address",
							"name": "contributor",
							"type": "address"
						},
						{
							"indexed": false,
							"internalType": "uint256",
							"name": "amount",
							"type": "uint256"
						},
						{
							"indexed": false,
							"internalType": "uint256",
							"name": "newTotal",
							"type": "uint256"
						},
						{
							"indexed": false,
							"internalType": "bool",
							"name": "IsSucess",
							"type": "bool"
						}
					],
					"name": "Contributed",
					"type": "event"
				},
				{
					"inputs": [],
					"name": "contribute",
					"outputs": [],
					"stateMutability": "payable",
					"type": "function"
				},
				{
					"inputs": [],
					"name": "finalize",
					"outputs": [],
					"stateMutability": "nonpayable",
					"type": "function"
				}
			],
			"devdoc": {
				"kind": "dev",
				"methods": {},
				"version": 1
			},
			"evm": {
				"assembly": "    /* \"CrowdFunding.sol\":59:2540  contract CrowdFunding {... */\n  mstore(0x40, 0x80)\n    /* \"CrowdFunding.sol\":504:842  constructor(uint256 goal, uint256 durationSeconds) {... */\n  callvalue\n  dup1\n  iszero\n  tag_1\n  jumpi\n  revert(0x00, 0x00)\ntag_1:\n  pop\n  mload(0x40)\n  sub(codesize, bytecodeSize)\n  dup1\n  bytecodeSize\n  dup4\n  codecopy\n  dup2\n  dup2\n  add\n  0x40\n  mstore\n  dup2\n  add\n  swap1\n  tag_2\n  swap2\n  swap1\n  tag_3\n  jump\t// in\ntag_2:\n    /* \"CrowdFunding.sol\":584:594  msg.sender */\n  caller\n    /* \"CrowdFunding.sol\":565:573  compaign */\n  0x00\n    /* \"CrowdFunding.sol\":565:581  compaign.creator */\n  0x00\n  add\n  0x00\n    /* \"CrowdFunding.sol\":565:594  compaign.creator = msg.sender */\n  0x0100\n  exp\n  dup2\n  sload\n  dup2\n  0xffffffffffffffffffffffffffffffffffffffff\n  mul\n  not\n  and\n  swap1\n  dup4\n  0xffffffffffffffffffffffffffffffffffffffff\n  and\n  mul\n  or\n  swap1\n  sstore\n  pop\n    /* \"CrowdFunding.sol\":620:624  goal */\n  dup2\n    /* \"CrowdFunding.sol\":604:612  compaign */\n  0x00\n    /* \"CrowdFunding.sol\":604:617  compaign.goal */\n  0x01\n  add\n    /* \"CrowdFunding.sol\":604:624  compaign.goal = goal */\n  dup2\n  swap1\n  sstore\n  pop\n    /* \"CrowdFunding.sol\":672:687  durationSeconds */\n  dup1\n    /* \"CrowdFunding.sol\":654:669  block.timestamp */\n  timestamp\n    /* \"CrowdFunding.sol\":654:687  block.timestamp + durationSeconds */\n  tag_6\n  swap2\n  swap1\n  tag_7\n  jump\t// in\ntag_6:\n    /* \"CrowdFunding.sol\":634:642  compaign */\n  0x00\n    /* \"CrowdFunding.sol\":634:651  compaign.deadline */\n  0x02\n  add\n    /* \"CrowdFunding.sol\":634:687  compaign.deadline = block.timestamp + durationSeconds */\n  dup2\n  swap1\n  sstore\n  pop\n    /* \"CrowdFunding.sol\":720:721  0 */\n  0x00\n    /* \"CrowdFunding.sol\":697:705  compaign */\n  0x00\n    /* \"CrowdFunding.sol\":697:717  compaign.totalRaised */\n  0x03\n  add\n    /* \"CrowdFunding.sol\":697:721  compaign.totalRaised = 0 */\n  dup2\n  swap1\n  sstore\n  pop\n    /* \"CrowdFunding.sol\":748:761  State.Funding */\n  0x00\n    /* \"CrowdFunding.sol\":731:739  compaign */\n  0x00\n    /* \"CrowdFunding.sol\":731:745  compaign.state */\n  0x04\n  add\n  0x00\n    /* \"CrowdFunding.sol\":731:761  compaign.state = State.Funding */\n  0x0100\n  exp\n  dup2\n  sload\n  dup2\n  0xff\n  mul\n  not\n  and\n  swap1\n  dup4\n  0x03\n  dup2\n  gt\n  iszero\n  tag_8\n  jumpi\n  tag_9\n  tag_10\n  jump\t// in\ntag_9:\ntag_8:\n  mul\n  or\n  swap1\n  sstore\n  pop\n    /* \"CrowdFunding.sol\":793:801  compaign */\n  0x00\n    /* \"CrowdFunding.sol\":793:809  compaign.creator */\n  0x00\n  add\n  0x00\n  swap1\n  sload\n  swap1\n  0x0100\n  exp\n  swap1\n  div\n  0xffffffffffffffffffffffffffffffffffffffff\n  and\n    /* \"CrowdFunding.sol\":777:835  CampaignCreated(compaign.creator, goal, compaign.deadline) */\n  0xffffffffffffffffffffffffffffffffffffffff\n  and\n  0x681f945f90ca3793b37315ed6a012353c82c1b37ca023ef835c746461359f552\n    /* \"CrowdFunding.sol\":811:815  goal */\n  dup4\n    /* \"CrowdFunding.sol\":817:825  compaign */\n  0x00\n    /* \"CrowdFunding.sol\":817:834  compaign.deadline */\n  0x02\n  add\n  sload\n    /* \"CrowdFunding.sol\":777:835  CampaignCreated(compaign.creator, goal, compaign.deadline) */\n  mload(0x40)\n  tag_11\n  swap3\n  swap2\n  swap1\n  tag_12\n  jump\t// in\ntag_11:\n  mload(0x40)\n  dup1\n  swap2\n  sub\n  swap1\n  log2\n    /* \"CrowdFunding.sol\":504:842  constructor(uint256 goal, uint256 durationSeconds) {... */\n  pop\n  pop\n    /* \"CrowdFunding.sol\":59:2540  contract CrowdFunding {... */\n  jump(tag_13)\n    /* \"#utility.yul\":88:205   */\ntag_15:\n    /* \"#utility.yul\":197:198   */\n  0x00\n    /* \"#utility.yul\":194:195   */\n  0x00\n    /* \"#utility.yul\":187:199   */\n  revert\n    /* \"#utility.yul\":334:411   */\ntag_17:\n    /* \"#utility.yul\":371:378   */\n  0x00\n    /* \"#utility.yul\":400:405   */\n  dup2\n    /* \"#utility.yul\":389:405   */\n  swap1\n  pop\n    /* \"#utility.yul\":334:411   */\n  swap2\n  swap1\n  pop\n  jump\t// out\n    /* \"#utility.yul\":417:539   */\ntag_18:\n    /* \"#utility.yul\":490:514   */\n  tag_28\n    /* \"#utility.yul\":508:513   */\n  dup2\n    /* \"#utility.yul\":490:514   */\n  tag_17\n  jump\t// in\ntag_28:\n    /* \"#utility.yul\":483:488   */\n  dup2\n    /* \"#utility.yul\":480:515   */\n  eq\n    /* \"#utility.yul\":470:533   */\n  tag_29\n  jumpi\n    /* \"#utility.yul\":529:530   */\n  0x00\n    /* \"#utility.yul\":526:527   */\n  0x00\n    /* \"#utility.yul\":519:531   */\n  revert\n    /* \"#utility.yul\":470:533   */\ntag_29:\n    /* \"#utility.yul\":417:539   */\n  pop\n  jump\t// out\n    /* \"#utility.yul\":545:688   */\ntag_19:\n    /* \"#utility.yul\":602:607   */\n  0x00\n    /* \"#utility.yul\":633:639   */\n  dup2\n    /* \"#utility.yul\":627:640   */\n  mload\n    /* \"#utility.yul\":618:640   */\n  swap1\n  pop\n    /* \"#utility.yul\":649:682   */\n  tag_31\n    /* \"#utility.yul\":676:681   */\n  dup2\n    /* \"#utility.yul\":649:682   */\n  tag_18\n  jump\t// in\ntag_31:\n    /* \"#utility.yul\":545:688   */\n  swap3\n  swap2\n  pop\n  pop\n  jump\t// out\n    /* \"#utility.yul\":694:1201   */\ntag_3:\n    /* \"#utility.yul\":773:779   */\n  0x00\n    /* \"#utility.yul\":781:787   */\n  0x00\n    /* \"#utility.yul\":830:832   */\n  0x40\n    /* \"#utility.yul\":818:827   */\n  dup4\n    /* \"#utility.yul\":809:816   */\n  dup6\n    /* \"#utility.yul\":805:828   */\n  sub\n    /* \"#utility.yul\":801:833   */\n  slt\n    /* \"#utility.yul\":798:917   */\n  iszero\n  tag_33\n  jumpi\n    /* \"#utility.yul\":836:915   */\n  tag_34\n  tag_15\n  jump\t// in\ntag_34:\n    /* \"#utility.yul\":798:917   */\ntag_33:\n    /* \"#utility.yul\":956:957   */\n  0x00\n    /* \"#utility.yul\":981:1045   */\n  tag_35\n    /* \"#utility.yul\":1037:1044   */\n  dup6\n    /* \"#utility.yul\":1028:1034   */\n  dup3\n    /* \"#utility.yul\":1017:1026   */\n  dup7\n    /* \"#utility.yul\":1013:1035   */\n  add\n    /* \"#utility.yul\":981:1045   */\n  tag_19\n  jump\t// in\ntag_35:\n    /* \"#utility.yul\":971:1045   */\n  swap3\n  pop\n    /* \"#utility.yul\":927:1055   */\n  pop\n    /* \"#utility.yul\":1094:1096   */\n  0x20\n    /* \"#utility.yul\":1120:1184   */\n  tag_36\n    /* \"#utility.yul\":1176:1183   */\n  dup6\n    /* \"#utility.yul\":1167:1173   */\n  dup3\n    /* \"#utility.yul\":1156:1165   */\n  dup7\n    /* \"#utility.yul\":1152:1174   */\n  add\n    /* \"#utility.yul\":1120:1184   */\n  tag_19\n  jump\t// in\ntag_36:\n    /* \"#utility.yul\":1110:1184   */\n  swap2\n  pop\n    /* \"#utility.yul\":1065:1194   */\n  pop\n    /* \"#utility.yul\":694:1201   */\n  swap3\n  pop\n  swap3\n  swap1\n  pop\n  jump\t// out\n    /* \"#utility.yul\":1207:1387   */\ntag_20:\n    /* \"#utility.yul\":1255:1332   */\n  0x4e487b7100000000000000000000000000000000000000000000000000000000\n    /* \"#utility.yul\":1252:1253   */\n  0x00\n    /* \"#utility.yul\":1245:1333   */\n  mstore\n    /* \"#utility.yul\":1352:1356   */\n  0x11\n    /* \"#utility.yul\":1349:1350   */\n  0x04\n    /* \"#utility.yul\":1342:1357   */\n  mstore\n    /* \"#utility.yul\":1376:1380   */\n  0x24\n    /* \"#utility.yul\":1373:1374   */\n  0x00\n    /* \"#utility.yul\":1366:1381   */\n  revert\n    /* \"#utility.yul\":1393:1584   */\ntag_7:\n    /* \"#utility.yul\":1433:1436   */\n  0x00\n    /* \"#utility.yul\":1452:1472   */\n  tag_39\n    /* \"#utility.yul\":1470:1471   */\n  dup3\n    /* \"#utility.yul\":1452:1472   */\n  tag_17\n  jump\t// in\ntag_39:\n    /* \"#utility.yul\":1447:1472   */\n  swap2\n  pop\n    /* \"#utility.yul\":1486:1506   */\n  tag_40\n    /* \"#utility.yul\":1504:1505   */\n  dup4\n    /* \"#utility.yul\":1486:1506   */\n  tag_17\n  jump\t// in\ntag_40:\n    /* \"#utility.yul\":1481:1506   */\n  swap3\n  pop\n    /* \"#utility.yul\":1529:1530   */\n  dup3\n    /* \"#utility.yul\":1526:1527   */\n  dup3\n    /* \"#utility.yul\":1522:1531   */\n  add\n    /* \"#utility.yul\":1515:1531   */\n  swap1\n  pop\n    /* \"#utility.yul\":1550:1553   */\n  dup1\n    /* \"#utility.yul\":1547:1548   */\n  dup3\n    /* \"#utility.yul\":1544:1554   */\n  gt\n    /* \"#utility.yul\":1541:1577   */\n  iszero\n  tag_41\n  jumpi\n    /* \"#utility.yul\":1557:1575   */\n  tag_42\n  tag_20\n  jump\t// in\ntag_42:\n    /* \"#utility.yul\":1541:1577   */\ntag_41:\n    /* \"#utility.yul\":1393:1584   */\n  swap3\n  swap2\n  pop\n  pop\n  jump\t// out\n    /* \"#utility.yul\":1590:1770   */\ntag_10:\n    /* \"#utility.yul\":1638:1715   */\n  0x4e487b7100000000000000000000000000000000000000000000000000000000\n    /* \"#utility.yul\":1635:1636   */\n  0x00\n    /* \"#utility.yul\":1628:1716   */\n  mstore\n    /* \"#utility.yul\":1735:1739   */\n  0x21\n    /* \"#utility.yul\":1732:1733   */\n  0x04\n    /* \"#utility.yul\":1725:1740   */\n  mstore\n    /* \"#utility.yul\":1759:1763   */\n  0x24\n    /* \"#utility.yul\":1756:1757   */\n  0x00\n    /* \"#utility.yul\":1749:1764   */\n  revert\n    /* \"#utility.yul\":1776:1894   */\ntag_21:\n    /* \"#utility.yul\":1863:1887   */\n  tag_45\n    /* \"#utility.yul\":1881:1886   */\n  dup2\n    /* \"#utility.yul\":1863:1887   */\n  tag_17\n  jump\t// in\ntag_45:\n    /* \"#utility.yul\":1858:1861   */\n  dup3\n    /* \"#utility.yul\":1851:1888   */\n  mstore\n    /* \"#utility.yul\":1776:1894   */\n  pop\n  pop\n  jump\t// out\n    /* \"#utility.yul\":1900:2232   */\ntag_12:\n    /* \"#utility.yul\":2021:2025   */\n  0x00\n    /* \"#utility.yul\":2059:2061   */\n  0x40\n    /* \"#utility.yul\":2048:2057   */\n  dup3\n    /* \"#utility.yul\":2044:2062   */\n  add\n    /* \"#utility.yul\":2036:2062   */\n  swap1\n  pop\n    /* \"#utility.yul\":2072:2143   */\n  tag_47\n    /* \"#utility.yul\":2140:2141   */\n  0x00\n    /* \"#utility.yul\":2129:2138   */\n  dup4\n    /* \"#utility.yul\":2125:2142   */\n  add\n    /* \"#utility.yul\":2116:2122   */\n  dup6\n    /* \"#utility.yul\":2072:2143   */\n  tag_21\n  jump\t// in\ntag_47:\n    /* \"#utility.yul\":2153:2225   */\n  tag_48\n    /* \"#utility.yul\":2221:2223   */\n  0x20\n    /* \"#utility.yul\":2210:2219   */\n  dup4\n    /* \"#utility.yul\":2206:2224   */\n  add\n    /* \"#utility.yul\":2197:2203   */\n  dup5\n    /* \"#utility.yul\":2153:2225   */\n  tag_21\n  jump\t// in\ntag_48:\n    /* \"#utility.yul\":1900:2232   */\n  swap4\n  swap3\n  pop\n  pop\n  pop\n  jump\t// out\n    /* \"CrowdFunding.sol\":59:2540  contract CrowdFunding {... */\ntag_13:\n  dataSize(sub_0)\n  dup1\n  dataOffset(sub_0)\n  0x00\n  codecopy\n  0x00\n  return\nstop\n\nsub_0: assembly {\n        /* \"CrowdFunding.sol\":59:2540  contract CrowdFunding {... */\n      mstore(0x40, 0x80)\n      jumpi(tag_1, lt(calldatasize, 0x04))\n      shr(0xe0, calldataload(0x00))\n      dup1\n      0x4bb278f3\n      eq\n      tag_2\n      jumpi\n      dup1\n      0xd7bb99ba\n      eq\n      tag_3\n      jumpi\n    tag_1:\n      revert(0x00, 0x00)\n        /* \"CrowdFunding.sol\":2355:2538  function finalize() public isDeadlineCompleted {... */\n    tag_2:\n      callvalue\n      dup1\n      iszero\n      tag_4\n      jumpi\n      revert(0x00, 0x00)\n    tag_4:\n      pop\n      tag_5\n      tag_6\n      jump\t// in\n    tag_5:\n      stop\n        /* \"CrowdFunding.sol\":1899:2311  function contribute() public  payable ownerCheck stateCheck deadlineCheck  amountCheck{... */\n    tag_3:\n      tag_7\n      tag_8\n      jump\t// in\n    tag_7:\n      stop\n        /* \"CrowdFunding.sol\":2355:2538  function finalize() public isDeadlineCompleted {... */\n    tag_6:\n        /* \"CrowdFunding.sol\":1797:1805  compaign */\n      0x00\n        /* \"CrowdFunding.sol\":1797:1814  compaign.deadline */\n      0x02\n      add\n      sload\n        /* \"CrowdFunding.sol\":1779:1794  block.timestamp */\n      timestamp\n        /* \"CrowdFunding.sol\":1779:1814  block.timestamp > compaign.deadline */\n      gt\n        /* \"CrowdFunding.sol\":1771:1850  require(block.timestamp > compaign.deadline , \"compaign is still in progress!\") */\n      tag_10\n      jumpi\n      mload(0x40)\n      0x08c379a000000000000000000000000000000000000000000000000000000000\n      dup2\n      mstore\n      0x04\n      add\n      tag_11\n      swap1\n      tag_12\n      jump\t// in\n    tag_11:\n      mload(0x40)\n      dup1\n      swap2\n      sub\n      swap1\n      revert\n    tag_10:\n        /* \"CrowdFunding.sol\":2439:2447  compaign */\n      0x00\n        /* \"CrowdFunding.sol\":2439:2452  compaign.goal */\n      0x01\n      add\n      sload\n        /* \"CrowdFunding.sol\":2415:2423  compaign */\n      0x00\n        /* \"CrowdFunding.sol\":2415:2435  compaign.totalRaised */\n      0x03\n      add\n      sload\n        /* \"CrowdFunding.sol\":2415:2452  compaign.totalRaised >= compaign.goal */\n      lt\n        /* \"CrowdFunding.sol\":2412:2531  if(compaign.totalRaised >= compaign.goal) compaign.state = State.Successful;... */\n      tag_14\n      jumpi\n        /* \"CrowdFunding.sol\":2471:2487  State.Successful */\n      0x01\n        /* \"CrowdFunding.sol\":2454:2462  compaign */\n      0x00\n        /* \"CrowdFunding.sol\":2454:2468  compaign.state */\n      0x04\n      add\n      0x00\n        /* \"CrowdFunding.sol\":2454:2487  compaign.state = State.Successful */\n      0x0100\n      exp\n      dup2\n      sload\n      dup2\n      0xff\n      mul\n      not\n      and\n      swap1\n      dup4\n      0x03\n      dup2\n      gt\n      iszero\n      tag_15\n      jumpi\n      tag_16\n      tag_17\n      jump\t// in\n    tag_16:\n    tag_15:\n      mul\n      or\n      swap1\n      sstore\n      pop\n        /* \"CrowdFunding.sol\":2412:2531  if(compaign.totalRaised >= compaign.goal) compaign.state = State.Successful;... */\n      jump(tag_18)\n    tag_14:\n        /* \"CrowdFunding.sol\":2519:2531  State.Failed */\n      0x02\n        /* \"CrowdFunding.sol\":2502:2510  compaign */\n      0x00\n        /* \"CrowdFunding.sol\":2502:2516  compaign.state */\n      0x04\n      add\n      0x00\n        /* \"CrowdFunding.sol\":2502:2531  compaign.state = State.Failed */\n      0x0100\n      exp\n      dup2\n      sload\n      dup2\n      0xff\n      mul\n      not\n      and\n      swap1\n      dup4\n      0x03\n      dup2\n      gt\n      iszero\n      tag_19\n      jumpi\n      tag_20\n      tag_17\n      jump\t// in\n    tag_20:\n    tag_19:\n      mul\n      or\n      swap1\n      sstore\n      pop\n        /* \"CrowdFunding.sol\":2412:2531  if(compaign.totalRaised >= compaign.goal) compaign.state = State.Successful;... */\n    tag_18:\n        /* \"CrowdFunding.sol\":2355:2538  function finalize() public isDeadlineCompleted {... */\n      jump\t// out\n        /* \"CrowdFunding.sol\":1899:2311  function contribute() public  payable ownerCheck stateCheck deadlineCheck  amountCheck{... */\n    tag_8:\n        /* \"CrowdFunding.sol\":1213:1221  compaign */\n      0x00\n        /* \"CrowdFunding.sol\":1213:1229  compaign.creator */\n      0x00\n      add\n      0x00\n      swap1\n      sload\n      swap1\n      0x0100\n      exp\n      swap1\n      div\n      0xffffffffffffffffffffffffffffffffffffffff\n      and\n        /* \"CrowdFunding.sol\":1199:1229  msg.sender != compaign.creator */\n      0xffffffffffffffffffffffffffffffffffffffff\n      and\n        /* \"CrowdFunding.sol\":1199:1209  msg.sender */\n      caller\n        /* \"CrowdFunding.sol\":1199:1229  msg.sender != compaign.creator */\n      0xffffffffffffffffffffffffffffffffffffffff\n      and\n      sub\n        /* \"CrowdFunding.sol\":1178:1302  require(... */\n      tag_22\n      jumpi\n      mload(0x40)\n      0x08c379a000000000000000000000000000000000000000000000000000000000\n      dup2\n      mstore\n      0x04\n      add\n      tag_23\n      swap1\n      tag_24\n      jump\t// in\n    tag_23:\n      mload(0x40)\n      dup1\n      swap2\n      sub\n      swap1\n      revert\n    tag_22:\n        /* \"CrowdFunding.sol\":1396:1409  State.Funding */\n      0x00\n        /* \"CrowdFunding.sol\":1378:1409  compaign.state == State.Funding */\n      0x03\n      dup2\n      gt\n      iszero\n      tag_26\n      jumpi\n      tag_27\n      tag_17\n      jump\t// in\n    tag_27:\n    tag_26:\n        /* \"CrowdFunding.sol\":1378:1386  compaign */\n      0x00\n        /* \"CrowdFunding.sol\":1378:1392  compaign.state */\n      0x04\n      add\n      0x00\n      swap1\n      sload\n      swap1\n      0x0100\n      exp\n      swap1\n      div\n      0xff\n      and\n        /* \"CrowdFunding.sol\":1378:1409  compaign.state == State.Funding */\n      0x03\n      dup2\n      gt\n      iszero\n      tag_28\n      jumpi\n      tag_29\n      tag_17\n      jump\t// in\n    tag_29:\n    tag_28:\n      eq\n        /* \"CrowdFunding.sol\":1357:1474  require(... */\n      tag_30\n      jumpi\n      mload(0x40)\n      0x08c379a000000000000000000000000000000000000000000000000000000000\n      dup2\n      mstore\n      0x04\n      add\n      tag_31\n      swap1\n      tag_32\n      jump\t// in\n    tag_31:\n      mload(0x40)\n      dup1\n      swap2\n      sub\n      swap1\n      revert\n    tag_30:\n        /* \"CrowdFunding.sol\":1558:1566  compaign */\n      0x00\n        /* \"CrowdFunding.sol\":1558:1575  compaign.deadline */\n      0x02\n      add\n      sload\n        /* \"CrowdFunding.sol\":1540:1555  block.timestamp */\n      timestamp\n        /* \"CrowdFunding.sol\":1540:1575  block.timestamp < compaign.deadline */\n      lt\n        /* \"CrowdFunding.sol\":1532:1596  require(block.timestamp < compaign.deadline, \"deadline missed!\") */\n      tag_34\n      jumpi\n      mload(0x40)\n      0x08c379a000000000000000000000000000000000000000000000000000000000\n      dup2\n      mstore\n      0x04\n      add\n      tag_35\n      swap1\n      tag_36\n      jump\t// in\n    tag_35:\n      mload(0x40)\n      dup1\n      swap2\n      sub\n      swap1\n      revert\n    tag_34:\n        /* \"CrowdFunding.sol\":1671:1672  0 */\n      0x00\n        /* \"CrowdFunding.sol\":1659:1668  msg.value */\n      callvalue\n        /* \"CrowdFunding.sol\":1659:1672  msg.value > 0 */\n      gt\n        /* \"CrowdFunding.sol\":1651:1708  require(msg.value > 0 , \"Amount of contibution is zero!\") */\n      tag_38\n      jumpi\n      mload(0x40)\n      0x08c379a000000000000000000000000000000000000000000000000000000000\n      dup2\n      mstore\n      0x04\n      add\n      tag_39\n      swap1\n      tag_40\n      jump\t// in\n    tag_39:\n      mload(0x40)\n      dup1\n      swap2\n      sub\n      swap1\n      revert\n    tag_38:\n        /* \"CrowdFunding.sol\":2032:2041  msg.value */\n      callvalue\n        /* \"CrowdFunding.sol\":1995:2003  compaign */\n      0x00\n        /* \"CrowdFunding.sol\":1995:2016  compaign.contribution */\n      0x05\n      add\n        /* \"CrowdFunding.sol\":1995:2028  compaign.contribution[msg.sender] */\n      0x00\n        /* \"CrowdFunding.sol\":2017:2027  msg.sender */\n      caller\n        /* \"CrowdFunding.sol\":1995:2028  compaign.contribution[msg.sender] */\n      0xffffffffffffffffffffffffffffffffffffffff\n      and\n      0xffffffffffffffffffffffffffffffffffffffff\n      and\n      dup2\n      mstore\n      0x20\n      add\n      swap1\n      dup2\n      mstore\n      0x20\n      add\n      0x00\n      keccak256\n      0x00\n        /* \"CrowdFunding.sol\":1995:2041  compaign.contribution[msg.sender] += msg.value */\n      dup3\n      dup3\n      sload\n      tag_42\n      swap2\n      swap1\n      tag_43\n      jump\t// in\n    tag_42:\n      swap3\n      pop\n      pop\n      dup2\n      swap1\n      sstore\n      pop\n        /* \"CrowdFunding.sol\":2075:2084  msg.value */\n      callvalue\n        /* \"CrowdFunding.sol\":2051:2059  compaign */\n      0x00\n        /* \"CrowdFunding.sol\":2051:2071  compaign.totalRaised */\n      0x03\n      add\n      0x00\n        /* \"CrowdFunding.sol\":2051:2084  compaign.totalRaised += msg.value */\n      dup3\n      dup3\n      sload\n      tag_44\n      swap2\n      swap1\n      tag_43\n      jump\t// in\n    tag_44:\n      swap3\n      pop\n      pop\n      dup2\n      swap1\n      sstore\n      pop\n        /* \"CrowdFunding.sol\":2094:2108  bool isSuccess */\n      0x00\n        /* \"CrowdFunding.sol\":2135:2143  compaign */\n      0x00\n        /* \"CrowdFunding.sol\":2135:2148  compaign.goal */\n      0x01\n      add\n      sload\n        /* \"CrowdFunding.sol\":2111:2119  compaign */\n      0x00\n        /* \"CrowdFunding.sol\":2111:2131  compaign.totalRaised */\n      0x03\n      add\n      sload\n        /* \"CrowdFunding.sol\":2111:2148  compaign.totalRaised >= compaign.goal */\n      lt\n      iszero\n        /* \"CrowdFunding.sol\":2094:2148  bool isSuccess = compaign.totalRaised >= compaign.goal */\n      swap1\n      pop\n        /* \"CrowdFunding.sol\":2161:2170  isSuccess */\n      dup1\n        /* \"CrowdFunding.sol\":2158:2205  if(isSuccess) compaign.state = State.Successful */\n      iszero\n      tag_45\n      jumpi\n        /* \"CrowdFunding.sol\":2189:2205  State.Successful */\n      0x01\n        /* \"CrowdFunding.sol\":2172:2180  compaign */\n      0x00\n        /* \"CrowdFunding.sol\":2172:2186  compaign.state */\n      0x04\n      add\n      0x00\n        /* \"CrowdFunding.sol\":2172:2205  compaign.state = State.Successful */\n      0x0100\n      exp\n      dup2\n      sload\n      dup2\n      0xff\n      mul\n      not\n      and\n      swap1\n      dup4\n      0x03\n      dup2\n      gt\n      iszero\n      tag_46\n      jumpi\n      tag_47\n      tag_17\n      jump\t// in\n    tag_47:\n    tag_46:\n      mul\n      or\n      swap1\n      sstore\n      pop\n        /* \"CrowdFunding.sol\":2158:2205  if(isSuccess) compaign.state = State.Successful */\n    tag_45:\n        /* \"CrowdFunding.sol\":2232:2242  msg.sender */\n      caller\n        /* \"CrowdFunding.sol\":2220:2286  Contributed(msg.sender, msg.value, compaign.totalRaised,isSuccess) */\n      0xffffffffffffffffffffffffffffffffffffffff\n      and\n      0xa3cf76d32602a2a687abed22e487ac1357d386fecf9be68fe771f9c97606f3c3\n        /* \"CrowdFunding.sol\":2244:2253  msg.value */\n      callvalue\n        /* \"CrowdFunding.sol\":2255:2263  compaign */\n      0x00\n        /* \"CrowdFunding.sol\":2255:2275  compaign.totalRaised */\n      0x03\n      add\n      sload\n        /* \"CrowdFunding.sol\":2276:2285  isSuccess */\n      dup5\n        /* \"CrowdFunding.sol\":2220:2286  Contributed(msg.sender, msg.value, compaign.totalRaised,isSuccess) */\n      mload(0x40)\n      tag_48\n      swap4\n      swap3\n      swap2\n      swap1\n      tag_49\n      jump\t// in\n    tag_48:\n      mload(0x40)\n      dup1\n      swap2\n      sub\n      swap1\n      log2\n        /* \"CrowdFunding.sol\":1985:2311  {... */\n      pop\n        /* \"CrowdFunding.sol\":1899:2311  function contribute() public  payable ownerCheck stateCheck deadlineCheck  amountCheck{... */\n      jump\t// out\n        /* \"#utility.yul\":7:176   */\n    tag_50:\n        /* \"#utility.yul\":91:102   */\n      0x00\n        /* \"#utility.yul\":125:131   */\n      dup3\n        /* \"#utility.yul\":120:123   */\n      dup3\n        /* \"#utility.yul\":113:132   */\n      mstore\n        /* \"#utility.yul\":165:169   */\n      0x20\n        /* \"#utility.yul\":160:163   */\n      dup3\n        /* \"#utility.yul\":156:170   */\n      add\n        /* \"#utility.yul\":141:170   */\n      swap1\n      pop\n        /* \"#utility.yul\":7:176   */\n      swap3\n      swap2\n      pop\n      pop\n      jump\t// out\n        /* \"#utility.yul\":182:362   */\n    tag_51:\n        /* \"#utility.yul\":322:354   */\n      0x636f6d706169676e206973207374696c6c20696e2070726f6772657373210000\n        /* \"#utility.yul\":318:319   */\n      0x00\n        /* \"#utility.yul\":310:316   */\n      dup3\n        /* \"#utility.yul\":306:320   */\n      add\n        /* \"#utility.yul\":299:355   */\n      mstore\n        /* \"#utility.yul\":182:362   */\n      pop\n      jump\t// out\n        /* \"#utility.yul\":368:734   */\n    tag_52:\n        /* \"#utility.yul\":510:513   */\n      0x00\n        /* \"#utility.yul\":531:598   */\n      tag_70\n        /* \"#utility.yul\":595:597   */\n      0x1e\n        /* \"#utility.yul\":590:593   */\n      dup4\n        /* \"#utility.yul\":531:598   */\n      tag_50\n      jump\t// in\n    tag_70:\n        /* \"#utility.yul\":524:598   */\n      swap2\n      pop\n        /* \"#utility.yul\":607:700   */\n      tag_71\n        /* \"#utility.yul\":696:699   */\n      dup3\n        /* \"#utility.yul\":607:700   */\n      tag_51\n      jump\t// in\n    tag_71:\n        /* \"#utility.yul\":725:727   */\n      0x20\n        /* \"#utility.yul\":720:723   */\n      dup3\n        /* \"#utility.yul\":716:728   */\n      add\n        /* \"#utility.yul\":709:728   */\n      swap1\n      pop\n        /* \"#utility.yul\":368:734   */\n      swap2\n      swap1\n      pop\n      jump\t// out\n        /* \"#utility.yul\":740:1159   */\n    tag_12:\n        /* \"#utility.yul\":906:910   */\n      0x00\n        /* \"#utility.yul\":944:946   */\n      0x20\n        /* \"#utility.yul\":933:942   */\n      dup3\n        /* \"#utility.yul\":929:947   */\n      add\n        /* \"#utility.yul\":921:947   */\n      swap1\n      pop\n        /* \"#utility.yul\":993:1002   */\n      dup2\n        /* \"#utility.yul\":987:991   */\n      dup2\n        /* \"#utility.yul\":983:1003   */\n      sub\n        /* \"#utility.yul\":979:980   */\n      0x00\n        /* \"#utility.yul\":968:977   */\n      dup4\n        /* \"#utility.yul\":964:981   */\n      add\n        /* \"#utility.yul\":957:1004   */\n      mstore\n        /* \"#utility.yul\":1021:1152   */\n      tag_73\n        /* \"#utility.yul\":1147:1151   */\n      dup2\n        /* \"#utility.yul\":1021:1152   */\n      tag_52\n      jump\t// in\n    tag_73:\n        /* \"#utility.yul\":1013:1152   */\n      swap1\n      pop\n        /* \"#utility.yul\":740:1159   */\n      swap2\n      swap1\n      pop\n      jump\t// out\n        /* \"#utility.yul\":1165:1345   */\n    tag_17:\n        /* \"#utility.yul\":1213:1290   */\n      0x4e487b7100000000000000000000000000000000000000000000000000000000\n        /* \"#utility.yul\":1210:1211   */\n      0x00\n        /* \"#utility.yul\":1203:1291   */\n      mstore\n        /* \"#utility.yul\":1310:1314   */\n      0x21\n        /* \"#utility.yul\":1307:1308   */\n      0x04\n        /* \"#utility.yul\":1300:1315   */\n      mstore\n        /* \"#utility.yul\":1334:1338   */\n      0x24\n        /* \"#utility.yul\":1331:1332   */\n      0x00\n        /* \"#utility.yul\":1324:1339   */\n      revert\n        /* \"#utility.yul\":1351:1585   */\n    tag_53:\n        /* \"#utility.yul\":1491:1525   */\n      0x63726561746f7220686173206e6f2072696768747320746f20636f6e74726962\n        /* \"#utility.yul\":1487:1488   */\n      0x00\n        /* \"#utility.yul\":1479:1485   */\n      dup3\n        /* \"#utility.yul\":1475:1489   */\n      add\n        /* \"#utility.yul\":1468:1526   */\n      mstore\n        /* \"#utility.yul\":1560:1577   */\n      0x75746520696e20636f6d706169676e0000000000000000000000000000000000\n        /* \"#utility.yul\":1555:1557   */\n      0x20\n        /* \"#utility.yul\":1547:1553   */\n      dup3\n        /* \"#utility.yul\":1543:1558   */\n      add\n        /* \"#utility.yul\":1536:1578   */\n      mstore\n        /* \"#utility.yul\":1351:1585   */\n      pop\n      jump\t// out\n        /* \"#utility.yul\":1591:1957   */\n    tag_54:\n        /* \"#utility.yul\":1733:1736   */\n      0x00\n        /* \"#utility.yul\":1754:1821   */\n      tag_77\n        /* \"#utility.yul\":1818:1820   */\n      0x2f\n        /* \"#utility.yul\":1813:1816   */\n      dup4\n        /* \"#utility.yul\":1754:1821   */\n      tag_50\n      jump\t// in\n    tag_77:\n        /* \"#utility.yul\":1747:1821   */\n      swap2\n      pop\n        /* \"#utility.yul\":1830:1923   */\n      tag_78\n        /* \"#utility.yul\":1919:1922   */\n      dup3\n        /* \"#utility.yul\":1830:1923   */\n      tag_53\n      jump\t// in\n    tag_78:\n        /* \"#utility.yul\":1948:1950   */\n      0x40\n        /* \"#utility.yul\":1943:1946   */\n      dup3\n        /* \"#utility.yul\":1939:1951   */\n      add\n        /* \"#utility.yul\":1932:1951   */\n      swap1\n      pop\n        /* \"#utility.yul\":1591:1957   */\n      swap2\n      swap1\n      pop\n      jump\t// out\n        /* \"#utility.yul\":1963:2382   */\n    tag_24:\n        /* \"#utility.yul\":2129:2133   */\n      0x00\n        /* \"#utility.yul\":2167:2169   */\n      0x20\n        /* \"#utility.yul\":2156:2165   */\n      dup3\n        /* \"#utility.yul\":2152:2170   */\n      add\n        /* \"#utility.yul\":2144:2170   */\n      swap1\n      pop\n        /* \"#utility.yul\":2216:2225   */\n      dup2\n        /* \"#utility.yul\":2210:2214   */\n      dup2\n        /* \"#utility.yul\":2206:2226   */\n      sub\n        /* \"#utility.yul\":2202:2203   */\n      0x00\n        /* \"#utility.yul\":2191:2200   */\n      dup4\n        /* \"#utility.yul\":2187:2204   */\n      add\n        /* \"#utility.yul\":2180:2227   */\n      mstore\n        /* \"#utility.yul\":2244:2375   */\n      tag_80\n        /* \"#utility.yul\":2370:2374   */\n      dup2\n        /* \"#utility.yul\":2244:2375   */\n      tag_54\n      jump\t// in\n    tag_80:\n        /* \"#utility.yul\":2236:2375   */\n      swap1\n      pop\n        /* \"#utility.yul\":1963:2382   */\n      swap2\n      swap1\n      pop\n      jump\t// out\n        /* \"#utility.yul\":2388:2614   */\n    tag_55:\n        /* \"#utility.yul\":2528:2562   */\n      0x636f6d706169676e206973206e6f7420756e6465722074686520737461746520\n        /* \"#utility.yul\":2524:2525   */\n      0x00\n        /* \"#utility.yul\":2516:2522   */\n      dup3\n        /* \"#utility.yul\":2512:2526   */\n      add\n        /* \"#utility.yul\":2505:2563   */\n      mstore\n        /* \"#utility.yul\":2597:2606   */\n      0x46554e44494e4700000000000000000000000000000000000000000000000000\n        /* \"#utility.yul\":2592:2594   */\n      0x20\n        /* \"#utility.yul\":2584:2590   */\n      dup3\n        /* \"#utility.yul\":2580:2595   */\n      add\n        /* \"#utility.yul\":2573:2607   */\n      mstore\n        /* \"#utility.yul\":2388:2614   */\n      pop\n      jump\t// out\n        /* \"#utility.yul\":2620:2986   */\n    tag_56:\n        /* \"#utility.yul\":2762:2765   */\n      0x00\n        /* \"#utility.yul\":2783:2850   */\n      tag_83\n        /* \"#utility.yul\":2847:2849   */\n      0x27\n        /* \"#utility.yul\":2842:2845   */\n      dup4\n        /* \"#utility.yul\":2783:2850   */\n      tag_50\n      jump\t// in\n    tag_83:\n        /* \"#utility.yul\":2776:2850   */\n      swap2\n      pop\n        /* \"#utility.yul\":2859:2952   */\n      tag_84\n        /* \"#utility.yul\":2948:2951   */\n      dup3\n        /* \"#utility.yul\":2859:2952   */\n      tag_55\n      jump\t// in\n    tag_84:\n        /* \"#utility.yul\":2977:2979   */\n      0x40\n        /* \"#utility.yul\":2972:2975   */\n      dup3\n        /* \"#utility.yul\":2968:2980   */\n      add\n        /* \"#utility.yul\":2961:2980   */\n      swap1\n      pop\n        /* \"#utility.yul\":2620:2986   */\n      swap2\n      swap1\n      pop\n      jump\t// out\n        /* \"#utility.yul\":2992:3411   */\n    tag_32:\n        /* \"#utility.yul\":3158:3162   */\n      0x00\n        /* \"#utility.yul\":3196:3198   */\n      0x20\n        /* \"#utility.yul\":3185:3194   */\n      dup3\n        /* \"#utility.yul\":3181:3199   */\n      add\n        /* \"#utility.yul\":3173:3199   */\n      swap1\n      pop\n        /* \"#utility.yul\":3245:3254   */\n      dup2\n        /* \"#utility.yul\":3239:3243   */\n      dup2\n        /* \"#utility.yul\":3235:3255   */\n      sub\n        /* \"#utility.yul\":3231:3232   */\n      0x00\n        /* \"#utility.yul\":3220:3229   */\n      dup4\n        /* \"#utility.yul\":3216:3233   */\n      add\n        /* \"#utility.yul\":3209:3256   */\n      mstore\n        /* \"#utility.yul\":3273:3404   */\n      tag_86\n        /* \"#utility.yul\":3399:3403   */\n      dup2\n        /* \"#utility.yul\":3273:3404   */\n      tag_56\n      jump\t// in\n    tag_86:\n        /* \"#utility.yul\":3265:3404   */\n      swap1\n      pop\n        /* \"#utility.yul\":2992:3411   */\n      swap2\n      swap1\n      pop\n      jump\t// out\n        /* \"#utility.yul\":3417:3583   */\n    tag_57:\n        /* \"#utility.yul\":3557:3575   */\n      0x646561646c696e65206d69737365642100000000000000000000000000000000\n        /* \"#utility.yul\":3553:3554   */\n      0x00\n        /* \"#utility.yul\":3545:3551   */\n      dup3\n        /* \"#utility.yul\":3541:3555   */\n      add\n        /* \"#utility.yul\":3534:3576   */\n      mstore\n        /* \"#utility.yul\":3417:3583   */\n      pop\n      jump\t// out\n        /* \"#utility.yul\":3589:3955   */\n    tag_58:\n        /* \"#utility.yul\":3731:3734   */\n      0x00\n        /* \"#utility.yul\":3752:3819   */\n      tag_89\n        /* \"#utility.yul\":3816:3818   */\n      0x10\n        /* \"#utility.yul\":3811:3814   */\n      dup4\n        /* \"#utility.yul\":3752:3819   */\n      tag_50\n      jump\t// in\n    tag_89:\n        /* \"#utility.yul\":3745:3819   */\n      swap2\n      pop\n        /* \"#utility.yul\":3828:3921   */\n      tag_90\n        /* \"#utility.yul\":3917:3920   */\n      dup3\n        /* \"#utility.yul\":3828:3921   */\n      tag_57\n      jump\t// in\n    tag_90:\n        /* \"#utility.yul\":3946:3948   */\n      0x20\n        /* \"#utility.yul\":3941:3944   */\n      dup3\n        /* \"#utility.yul\":3937:3949   */\n      add\n        /* \"#utility.yul\":3930:3949   */\n      swap1\n      pop\n        /* \"#utility.yul\":3589:3955   */\n      swap2\n      swap1\n      pop\n      jump\t// out\n        /* \"#utility.yul\":3961:4380   */\n    tag_36:\n        /* \"#utility.yul\":4127:4131   */\n      0x00\n        /* \"#utility.yul\":4165:4167   */\n      0x20\n        /* \"#utility.yul\":4154:4163   */\n      dup3\n        /* \"#utility.yul\":4150:4168   */\n      add\n        /* \"#utility.yul\":4142:4168   */\n      swap1\n      pop\n        /* \"#utility.yul\":4214:4223   */\n      dup2\n        /* \"#utility.yul\":4208:4212   */\n      dup2\n        /* \"#utility.yul\":4204:4224   */\n      sub\n        /* \"#utility.yul\":4200:4201   */\n      0x00\n        /* \"#utility.yul\":4189:4198   */\n      dup4\n        /* \"#utility.yul\":4185:4202   */\n      add\n        /* \"#utility.yul\":4178:4225   */\n      mstore\n        /* \"#utility.yul\":4242:4373   */\n      tag_92\n        /* \"#utility.yul\":4368:4372   */\n      dup2\n        /* \"#utility.yul\":4242:4373   */\n      tag_58\n      jump\t// in\n    tag_92:\n        /* \"#utility.yul\":4234:4373   */\n      swap1\n      pop\n        /* \"#utility.yul\":3961:4380   */\n      swap2\n      swap1\n      pop\n      jump\t// out\n        /* \"#utility.yul\":4386:4566   */\n    tag_59:\n        /* \"#utility.yul\":4526:4558   */\n      0x416d6f756e74206f6620636f6e7469627574696f6e206973207a65726f210000\n        /* \"#utility.yul\":4522:4523   */\n      0x00\n        /* \"#utility.yul\":4514:4520   */\n      dup3\n        /* \"#utility.yul\":4510:4524   */\n      add\n        /* \"#utility.yul\":4503:4559   */\n      mstore\n        /* \"#utility.yul\":4386:4566   */\n      pop\n      jump\t// out\n        /* \"#utility.yul\":4572:4938   */\n    tag_60:\n        /* \"#utility.yul\":4714:4717   */\n      0x00\n        /* \"#utility.yul\":4735:4802   */\n      tag_95\n        /* \"#utility.yul\":4799:4801   */\n      0x1e\n        /* \"#utility.yul\":4794:4797   */\n      dup4\n        /* \"#utility.yul\":4735:4802   */\n      tag_50\n      jump\t// in\n    tag_95:\n        /* \"#utility.yul\":4728:4802   */\n      swap2\n      pop\n        /* \"#utility.yul\":4811:4904   */\n      tag_96\n        /* \"#utility.yul\":4900:4903   */\n      dup3\n        /* \"#utility.yul\":4811:4904   */\n      tag_59\n      jump\t// in\n    tag_96:\n        /* \"#utility.yul\":4929:4931   */\n      0x20\n        /* \"#utility.yul\":4924:4927   */\n      dup3\n        /* \"#utility.yul\":4920:4932   */\n      add\n        /* \"#utility.yul\":4913:4932   */\n      swap1\n      pop\n        /* \"#utility.yul\":4572:4938   */\n      swap2\n      swap1\n      pop\n      jump\t// out\n        /* \"#utility.yul\":4944:5363   */\n    tag_40:\n        /* \"#utility.yul\":5110:5114   */\n      0x00\n        /* \"#utility.yul\":5148:5150   */\n      0x20\n        /* \"#utility.yul\":5137:5146   */\n      dup3\n        /* \"#utility.yul\":5133:5151   */\n      add\n        /* \"#utility.yul\":5125:5151   */\n      swap1\n      pop\n        /* \"#utility.yul\":5197:5206   */\n      dup2\n        /* \"#utility.yul\":5191:5195   */\n      dup2\n        /* \"#utility.yul\":5187:5207   */\n      sub\n        /* \"#utility.yul\":5183:5184   */\n      0x00\n        /* \"#utility.yul\":5172:5181   */\n      dup4\n        /* \"#utility.yul\":5168:5185   */\n      add\n        /* \"#utility.yul\":5161:5208   */\n      mstore\n        /* \"#utility.yul\":5225:5356   */\n      tag_98\n        /* \"#utility.yul\":5351:5355   */\n      dup2\n        /* \"#utility.yul\":5225:5356   */\n      tag_60\n      jump\t// in\n    tag_98:\n        /* \"#utility.yul\":5217:5356   */\n      swap1\n      pop\n        /* \"#utility.yul\":4944:5363   */\n      swap2\n      swap1\n      pop\n      jump\t// out\n        /* \"#utility.yul\":5369:5446   */\n    tag_61:\n        /* \"#utility.yul\":5406:5413   */\n      0x00\n        /* \"#utility.yul\":5435:5440   */\n      dup2\n        /* \"#utility.yul\":5424:5440   */\n      swap1\n      pop\n        /* \"#utility.yul\":5369:5446   */\n      swap2\n      swap1\n      pop\n      jump\t// out\n        /* \"#utility.yul\":5452:5632   */\n    tag_62:\n        /* \"#utility.yul\":5500:5577   */\n      0x4e487b7100000000000000000000000000000000000000000000000000000000\n        /* \"#utility.yul\":5497:5498   */\n      0x00\n        /* \"#utility.yul\":5490:5578   */\n      mstore\n        /* \"#utility.yul\":5597:5601   */\n      0x11\n        /* \"#utility.yul\":5594:5595   */\n      0x04\n        /* \"#utility.yul\":5587:5602   */\n      mstore\n        /* \"#utility.yul\":5621:5625   */\n      0x24\n        /* \"#utility.yul\":5618:5619   */\n      0x00\n        /* \"#utility.yul\":5611:5626   */\n      revert\n        /* \"#utility.yul\":5638:5829   */\n    tag_43:\n        /* \"#utility.yul\":5678:5681   */\n      0x00\n        /* \"#utility.yul\":5697:5717   */\n      tag_102\n        /* \"#utility.yul\":5715:5716   */\n      dup3\n        /* \"#utility.yul\":5697:5717   */\n      tag_61\n      jump\t// in\n    tag_102:\n        /* \"#utility.yul\":5692:5717   */\n      swap2\n      pop\n        /* \"#utility.yul\":5731:5751   */\n      tag_103\n        /* \"#utility.yul\":5749:5750   */\n      dup4\n        /* \"#utility.yul\":5731:5751   */\n      tag_61\n      jump\t// in\n    tag_103:\n        /* \"#utility.yul\":5726:5751   */\n      swap3\n      pop\n        /* \"#utility.yul\":5774:5775   */\n      dup3\n        /* \"#utility.yul\":5771:5772   */\n      dup3\n        /* \"#utility.yul\":5767:5776   */\n      add\n        /* \"#utility.yul\":5760:5776   */\n      swap1\n      pop\n        /* \"#utility.yul\":5795:5798   */\n      dup1\n        /* \"#utility.yul\":5792:5793   */\n      dup3\n        /* \"#utility.yul\":5789:5799   */\n      gt\n        /* \"#utility.yul\":5786:5822   */\n      iszero\n      tag_104\n      jumpi\n        /* \"#utility.yul\":5802:5820   */\n      tag_105\n      tag_62\n      jump\t// in\n    tag_105:\n        /* \"#utility.yul\":5786:5822   */\n    tag_104:\n        /* \"#utility.yul\":5638:5829   */\n      swap3\n      swap2\n      pop\n      pop\n      jump\t// out\n        /* \"#utility.yul\":5835:5953   */\n    tag_63:\n        /* \"#utility.yul\":5922:5946   */\n      tag_107\n        /* \"#utility.yul\":5940:5945   */\n      dup2\n        /* \"#utility.yul\":5922:5946   */\n      tag_61\n      jump\t// in\n    tag_107:\n        /* \"#utility.yul\":5917:5920   */\n      dup3\n        /* \"#utility.yul\":5910:5947   */\n      mstore\n        /* \"#utility.yul\":5835:5953   */\n      pop\n      pop\n      jump\t// out\n        /* \"#utility.yul\":5959:6049   */\n    tag_64:\n        /* \"#utility.yul\":5993:6000   */\n      0x00\n        /* \"#utility.yul\":6036:6041   */\n      dup2\n        /* \"#utility.yul\":6029:6042   */\n      iszero\n        /* \"#utility.yul\":6022:6043   */\n      iszero\n        /* \"#utility.yul\":6011:6043   */\n      swap1\n      pop\n        /* \"#utility.yul\":5959:6049   */\n      swap2\n      swap1\n      pop\n      jump\t// out\n        /* \"#utility.yul\":6055:6164   */\n    tag_65:\n        /* \"#utility.yul\":6136:6157   */\n      tag_110\n        /* \"#utility.yul\":6151:6156   */\n      dup2\n        /* \"#utility.yul\":6136:6157   */\n      tag_64\n      jump\t// in\n    tag_110:\n        /* \"#utility.yul\":6131:6134   */\n      dup3\n        /* \"#utility.yul\":6124:6158   */\n      mstore\n        /* \"#utility.yul\":6055:6164   */\n      pop\n      pop\n      jump\t// out\n        /* \"#utility.yul\":6170:6600   */\n    tag_49:\n        /* \"#utility.yul\":6313:6317   */\n      0x00\n        /* \"#utility.yul\":6351:6353   */\n      0x60\n        /* \"#utility.yul\":6340:6349   */\n      dup3\n        /* \"#utility.yul\":6336:6354   */\n      add\n        /* \"#utility.yul\":6328:6354   */\n      swap1\n      pop\n        /* \"#utility.yul\":6364:6435   */\n      tag_112\n        /* \"#utility.yul\":6432:6433   */\n      0x00\n        /* \"#utility.yul\":6421:6430   */\n      dup4\n        /* \"#utility.yul\":6417:6434   */\n      add\n        /* \"#utility.yul\":6408:6414   */\n      dup7\n        /* \"#utility.yul\":6364:6435   */\n      tag_63\n      jump\t// in\n    tag_112:\n        /* \"#utility.yul\":6445:6517   */\n      tag_113\n        /* \"#utility.yul\":6513:6515   */\n      0x20\n        /* \"#utility.yul\":6502:6511   */\n      dup4\n        /* \"#utility.yul\":6498:6516   */\n      add\n        /* \"#utility.yul\":6489:6495   */\n      dup6\n        /* \"#utility.yul\":6445:6517   */\n      tag_63\n      jump\t// in\n    tag_113:\n        /* \"#utility.yul\":6527:6593   */\n      tag_114\n        /* \"#utility.yul\":6589:6591   */\n      0x40\n        /* \"#utility.yul\":6578:6587   */\n      dup4\n        /* \"#utility.yul\":6574:6592   */\n      add\n        /* \"#utility.yul\":6565:6571   */\n      dup5\n        /* \"#utility.yul\":6527:6593   */\n      tag_65\n      jump\t// in\n    tag_114:\n        /* \"#utility.yul\":6170:6600   */\n      swap5\n      swap4\n      pop\n      pop\n      pop\n      pop\n      jump\t// out\n\n    auxdata: 0xa2646970667358221220b8da20e82d89d4c85accb4e0365f2bb0ba3ceae902e7766565383db7d875b32364736f6c634300081e0033\n}\n",
				"bytecode": {
					"linkReferences": {},
					"object": "608060405234801561000f575f5ffd5b506040516109ac3803806109ac83398181016040528101906100319190610177565b335f5f015f6101000a81548173ffffffffffffffffffffffffffffffffffffffff021916908373ffffffffffffffffffffffffffffffffffffffff160217905550815f60010181905550804261008791906101e2565b5f600201819055505f5f600301819055505f5f6004015f6101000a81548160ff021916908360038111156100be576100bd610215565b5b02179055505f5f015f9054906101000a900473ffffffffffffffffffffffffffffffffffffffff1673ffffffffffffffffffffffffffffffffffffffff167f681f945f90ca3793b37315ed6a012353c82c1b37ca023ef835c746461359f552835f60020154604051610131929190610251565b60405180910390a25050610278565b5f5ffd5b5f819050919050565b61015681610144565b8114610160575f5ffd5b50565b5f815190506101718161014d565b92915050565b5f5f6040838503121561018d5761018c610140565b5b5f61019a85828601610163565b92505060206101ab85828601610163565b9150509250929050565b7f4e487b71000000000000000000000000000000000000000000000000000000005f52601160045260245ffd5b5f6101ec82610144565b91506101f783610144565b925082820190508082111561020f5761020e6101b5565b5b92915050565b7f4e487b71000000000000000000000000000000000000000000000000000000005f52602160045260245ffd5b61024b81610144565b82525050565b5f6040820190506102645f830185610242565b6102716020830184610242565b9392505050565b610727806102855f395ff3fe608060405260043610610028575f3560e01c80634bb278f31461002c578063d7bb99ba14610042575b5f5ffd5b348015610037575f5ffd5b5061004061004c565b005b61004a610101565b005b5f600201544211610092576040517f08c379a0000000000000000000000000000000000000000000000000000000008152600401610089906103f3565b60405180910390fd5b5f600101545f60030154106100d25760015f6004015f6101000a81548160ff021916908360038111156100c8576100c7610411565b5b02179055506100ff565b60025f6004015f6101000a81548160ff021916908360038111156100f9576100f8610411565b5b02179055505b565b5f5f015f9054906101000a900473ffffffffffffffffffffffffffffffffffffffff1673ffffffffffffffffffffffffffffffffffffffff163373ffffffffffffffffffffffffffffffffffffffff1603610191576040517f08c379a0000000000000000000000000000000000000000000000000000000008152600401610188906104ae565b60405180910390fd5b5f60038111156101a4576101a3610411565b5b5f6004015f9054906101000a900460ff1660038111156101c7576101c6610411565b5b14610207576040517f08c379a00000000000000000000000000000000000000000000000000000000081526004016101fe9061053c565b60405180910390fd5b5f60020154421061024d576040517f08c379a0000000000000000000000000000000000000000000000000000000008152600401610244906105a4565b60405180910390fd5b5f341161028f576040517f08c379a00000000000000000000000000000000000000000000000000000000081526004016102869061060c565b60405180910390fd5b345f6005015f3373ffffffffffffffffffffffffffffffffffffffff1673ffffffffffffffffffffffffffffffffffffffff1681526020019081526020015f205f8282546102dd9190610660565b92505081905550345f6003015f8282546102f79190610660565b925050819055505f5f600101545f600301541015905080156103405760015f6004015f6101000a81548160ff0219169083600381111561033a57610339610411565b5b02179055505b3373ffffffffffffffffffffffffffffffffffffffff167fa3cf76d32602a2a687abed22e487ac1357d386fecf9be68fe771f9c97606f3c3345f600301548460405161038e939291906106bc565b60405180910390a250565b5f82825260208201905092915050565b7f636f6d706169676e206973207374696c6c20696e2070726f67726573732100005f82015250565b5f6103dd601e83610399565b91506103e8826103a9565b602082019050919050565b5f6020820190508181035f83015261040a816103d1565b9050919050565b7f4e487b71000000000000000000000000000000000000000000000000000000005f52602160045260245ffd5b7f63726561746f7220686173206e6f2072696768747320746f20636f6e747269625f8201527f75746520696e20636f6d706169676e0000000000000000000000000000000000602082015250565b5f610498602f83610399565b91506104a38261043e565b604082019050919050565b5f6020820190508181035f8301526104c58161048c565b9050919050565b7f636f6d706169676e206973206e6f7420756e64657220746865207374617465205f8201527f46554e44494e4700000000000000000000000000000000000000000000000000602082015250565b5f610526602783610399565b9150610531826104cc565b604082019050919050565b5f6020820190508181035f8301526105538161051a565b9050919050565b7f646561646c696e65206d697373656421000000000000000000000000000000005f82015250565b5f61058e601083610399565b91506105998261055a565b602082019050919050565b5f6020820190508181035f8301526105bb81610582565b9050919050565b7f416d6f756e74206f6620636f6e7469627574696f6e206973207a65726f2100005f82015250565b5f6105f6601e83610399565b9150610601826105c2565b602082019050919050565b5f6020820190508181035f830152610623816105ea565b9050919050565b5f819050919050565b7f4e487b71000000000000000000000000000000000000000000000000000000005f52601160045260245ffd5b5f61066a8261062a565b91506106758361062a565b925082820190508082111561068d5761068c610633565b5b92915050565b61069c8161062a565b82525050565b5f8115159050919050565b6106b6816106a2565b82525050565b5f6060820190506106cf5f830186610693565b6106dc6020830185610693565b6106e960408301846106ad565b94935050505056fea2646970667358221220b8da20e82d89d4c85accb4e0365f2bb0ba3ceae902e7766565383db7d875b32364736f6c634300081e0033",
					"opcodes": "PUSH1 0x80 PUSH1 0x40 MSTORE CALLVALUE DUP1 ISZERO PUSH2 0xF JUMPI PUSH0 PUSH0 REVERT JUMPDEST POP PUSH1 0x40 MLOAD PUSH2 0x9AC CODESIZE SUB DUP1 PUSH2 0x9AC DUP4 CODECOPY DUP2 DUP2 ADD PUSH1 0x40 MSTORE DUP2 ADD SWAP1 PUSH2 0x31 SWAP2 SWAP1 PUSH2 0x177 JUMP JUMPDEST CALLER PUSH0 PUSH0 ADD PUSH0 PUSH2 0x100 EXP DUP2 SLOAD DUP2 PUSH20 0xFFFFFFFFFFFFFFFFFFFFFFFFFFFFFFFFFFFFFFFF MUL NOT AND SWAP1 DUP4 PUSH20 0xFFFFFFFFFFFFFFFFFFFFFFFFFFFFFFFFFFFFFFFF AND MUL OR SWAP1 SSTORE POP DUP2 PUSH0 PUSH1 0x1 ADD DUP2 SWAP1 SSTORE POP DUP1 TIMESTAMP PUSH2 0x87 SWAP2 SWAP1 PUSH2 0x1E2 JUMP JUMPDEST PUSH0 PUSH1 0x2 ADD DUP2 SWAP1 SSTORE POP PUSH0 PUSH0 PUSH1 0x3 ADD DUP2 SWAP1 SSTORE POP PUSH0 PUSH0 PUSH1 0x4 ADD PUSH0 PUSH2 0x100 EXP DUP2 SLOAD DUP2 PUSH1 0xFF MUL NOT AND SWAP1 DUP4 PUSH1 0x3 DUP2 GT ISZERO PUSH2 0xBE JUMPI PUSH2 0xBD PUSH2 0x215 JUMP JUMPDEST JUMPDEST MUL OR SWAP1 SSTORE POP PUSH0 PUSH0 ADD PUSH0 SWAP1 SLOAD SWAP1 PUSH2 0x100 EXP SWAP1 DIV PUSH20 0xFFFFFFFFFFFFFFFFFFFFFFFFFFFFFFFFFFFFFFFF AND PUSH20 0xFFFFFFFFFFFFFFFFFFFFFFFFFFFFFFFFFFFFFFFF AND PUSH32 0x681F945F90CA3793B37315ED6A012353C82C1B37CA023EF835C746461359F552 DUP4 PUSH0 PUSH1 0x2 ADD SLOAD PUSH1 0x40 MLOAD PUSH2 0x131 SWAP3 SWAP2 SWAP1 PUSH2 0x251 JUMP JUMPDEST PUSH1 0x40 MLOAD DUP1 SWAP2 SUB SWAP1 LOG2 POP POP PUSH2 0x278 JUMP JUMPDEST PUSH0 PUSH0 REVERT JUMPDEST PUSH0 DUP2 SWAP1 POP SWAP2 SWAP1 POP JUMP JUMPDEST PUSH2 0x156 DUP2 PUSH2 0x144 JUMP JUMPDEST DUP2 EQ PUSH2 0x160 JUMPI PUSH0 PUSH0 REVERT JUMPDEST POP JUMP JUMPDEST PUSH0 DUP2 MLOAD SWAP1 POP PUSH2 0x171 DUP2 PUSH2 0x14D JUMP JUMPDEST SWAP3 SWAP2 POP POP JUMP JUMPDEST PUSH0 PUSH0 PUSH1 0x40 DUP4 DUP6 SUB SLT ISZERO PUSH2 0x18D JUMPI PUSH2 0x18C PUSH2 0x140 JUMP JUMPDEST JUMPDEST PUSH0 PUSH2 0x19A DUP6 DUP3 DUP7 ADD PUSH2 0x163 JUMP JUMPDEST SWAP3 POP POP PUSH1 0x20 PUSH2 0x1AB DUP6 DUP3 DUP7 ADD PUSH2 0x163 JUMP JUMPDEST SWAP2 POP POP SWAP3 POP SWAP3 SWAP1 POP JUMP JUMPDEST PUSH32 0x4E487B7100000000000000000000000000000000000000000000000000000000 PUSH0 MSTORE PUSH1 0x11 PUSH1 0x4 MSTORE PUSH1 0x24 PUSH0 REVERT JUMPDEST PUSH0 PUSH2 0x1EC DUP3 PUSH2 0x144 JUMP JUMPDEST SWAP2 POP PUSH2 0x1F7 DUP4 PUSH2 0x144 JUMP JUMPDEST SWAP3 POP DUP3 DUP3 ADD SWAP1 POP DUP1 DUP3 GT ISZERO PUSH2 0x20F JUMPI PUSH2 0x20E PUSH2 0x1B5 JUMP JUMPDEST JUMPDEST SWAP3 SWAP2 POP POP JUMP JUMPDEST PUSH32 0x4E487B7100000000000000000000000000000000000000000000000000000000 PUSH0 MSTORE PUSH1 0x21 PUSH1 0x4 MSTORE PUSH1 0x24 PUSH0 REVERT JUMPDEST PUSH2 0x24B DUP2 PUSH2 0x144 JUMP JUMPDEST DUP3 MSTORE POP POP JUMP JUMPDEST PUSH0 PUSH1 0x40 DUP3 ADD SWAP1 POP PUSH2 0x264 PUSH0 DUP4 ADD DUP6 PUSH2 0x242 JUMP JUMPDEST PUSH2 0x271 PUSH1 0x20 DUP4 ADD DUP5 PUSH2 0x242 JUMP JUMPDEST SWAP4 SWAP3 POP POP POP JUMP JUMPDEST PUSH2 0x727 DUP1 PUSH2 0x285 PUSH0 CODECOPY PUSH0 RETURN INVALID PUSH1 0x80 PUSH1 0x40 MSTORE PUSH1 0x4 CALLDATASIZE LT PUSH2 0x28 JUMPI PUSH0 CALLDATALOAD PUSH1 0xE0 SHR DUP1 PUSH4 0x4BB278F3 EQ PUSH2 0x2C JUMPI DUP1 PUSH4 0xD7BB99BA EQ PUSH2 0x42 JUMPI JUMPDEST PUSH0 PUSH0 REVERT JUMPDEST CALLVALUE DUP1 ISZERO PUSH2 0x37 JUMPI PUSH0 PUSH0 REVERT JUMPDEST POP PUSH2 0x40 PUSH2 0x4C JUMP JUMPDEST STOP JUMPDEST PUSH2 0x4A PUSH2 0x101 JUMP JUMPDEST STOP JUMPDEST PUSH0 PUSH1 0x2 ADD SLOAD TIMESTAMP GT PUSH2 0x92 JUMPI PUSH1 0x40 MLOAD PUSH32 0x8C379A000000000000000000000000000000000000000000000000000000000 DUP2 MSTORE PUSH1 0x4 ADD PUSH2 0x89 SWAP1 PUSH2 0x3F3 JUMP JUMPDEST PUSH1 0x40 MLOAD DUP1 SWAP2 SUB SWAP1 REVERT JUMPDEST PUSH0 PUSH1 0x1 ADD SLOAD PUSH0 PUSH1 0x3 ADD SLOAD LT PUSH2 0xD2 JUMPI PUSH1 0x1 PUSH0 PUSH1 0x4 ADD PUSH0 PUSH2 0x100 EXP DUP2 SLOAD DUP2 PUSH1 0xFF MUL NOT AND SWAP1 DUP4 PUSH1 0x3 DUP2 GT ISZERO PUSH2 0xC8 JUMPI PUSH2 0xC7 PUSH2 0x411 JUMP JUMPDEST JUMPDEST MUL OR SWAP1 SSTORE POP PUSH2 0xFF JUMP JUMPDEST PUSH1 0x2 PUSH0 PUSH1 0x4 ADD PUSH0 PUSH2 0x100 EXP DUP2 SLOAD DUP2 PUSH1 0xFF MUL NOT AND SWAP1 DUP4 PUSH1 0x3 DUP2 GT ISZERO PUSH2 0xF9 JUMPI PUSH2 0xF8 PUSH2 0x411 JUMP JUMPDEST JUMPDEST MUL OR SWAP1 SSTORE POP JUMPDEST JUMP JUMPDEST PUSH0 PUSH0 ADD PUSH0 SWAP1 SLOAD SWAP1 PUSH2 0x100 EXP SWAP1 DIV PUSH20 0xFFFFFFFFFFFFFFFFFFFFFFFFFFFFFFFFFFFFFFFF AND PUSH20 0xFFFFFFFFFFFFFFFFFFFFFFFFFFFFFFFFFFFFFFFF AND CALLER PUSH20 0xFFFFFFFFFFFFFFFFFFFFFFFFFFFFFFFFFFFFFFFF AND SUB PUSH2 0x191 JUMPI PUSH1 0x40 MLOAD PUSH32 0x8C379A000000000000000000000000000000000000000000000000000000000 DUP2 MSTORE PUSH1 0x4 ADD PUSH2 0x188 SWAP1 PUSH2 0x4AE JUMP JUMPDEST PUSH1 0x40 MLOAD DUP1 SWAP2 SUB SWAP1 REVERT JUMPDEST PUSH0 PUSH1 0x3 DUP2 GT ISZERO PUSH2 0x1A4 JUMPI PUSH2 0x1A3 PUSH2 0x411 JUMP JUMPDEST JUMPDEST PUSH0 PUSH1 0x4 ADD PUSH0 SWAP1 SLOAD SWAP1 PUSH2 0x100 EXP SWAP1 DIV PUSH1 0xFF AND PUSH1 0x3 DUP2 GT ISZERO PUSH2 0x1C7 JUMPI PUSH2 0x1C6 PUSH2 0x411 JUMP JUMPDEST JUMPDEST EQ PUSH2 0x207 JUMPI PUSH1 0x40 MLOAD PUSH32 0x8C379A000000000000000000000000000000000000000000000000000000000 DUP2 MSTORE PUSH1 0x4 ADD PUSH2 0x1FE SWAP1 PUSH2 0x53C JUMP JUMPDEST PUSH1 0x40 MLOAD DUP1 SWAP2 SUB SWAP1 REVERT JUMPDEST PUSH0 PUSH1 0x2 ADD SLOAD TIMESTAMP LT PUSH2 0x24D JUMPI PUSH1 0x40 MLOAD PUSH32 0x8C379A000000000000000000000000000000000000000000000000000000000 DUP2 MSTORE PUSH1 0x4 ADD PUSH2 0x244 SWAP1 PUSH2 0x5A4 JUMP JUMPDEST PUSH1 0x40 MLOAD DUP1 SWAP2 SUB SWAP1 REVERT JUMPDEST PUSH0 CALLVALUE GT PUSH2 0x28F JUMPI PUSH1 0x40 MLOAD PUSH32 0x8C379A000000000000000000000000000000000000000000000000000000000 DUP2 MSTORE PUSH1 0x4 ADD PUSH2 0x286 SWAP1 PUSH2 0x60C JUMP JUMPDEST PUSH1 0x40 MLOAD DUP1 SWAP2 SUB SWAP1 REVERT JUMPDEST CALLVALUE PUSH0 PUSH1 0x5 ADD PUSH0 CALLER PUSH20 0xFFFFFFFFFFFFFFFFFFFFFFFFFFFFFFFFFFFFFFFF AND PUSH20 0xFFFFFFFFFFFFFFFFFFFFFFFFFFFFFFFFFFFFFFFF AND DUP2 MSTORE PUSH1 0x20 ADD SWAP1 DUP2 MSTORE PUSH1 0x20 ADD PUSH0 KECCAK256 PUSH0 DUP3 DUP3 SLOAD PUSH2 0x2DD SWAP2 SWAP1 PUSH2 0x660 JUMP JUMPDEST SWAP3 POP POP DUP2 SWAP1 SSTORE POP CALLVALUE PUSH0 PUSH1 0x3 ADD PUSH0 DUP3 DUP3 SLOAD PUSH2 0x2F7 SWAP2 SWAP1 PUSH2 0x660 JUMP JUMPDEST SWAP3 POP POP DUP2 SWAP1 SSTORE POP PUSH0 PUSH0 PUSH1 0x1 ADD SLOAD PUSH0 PUSH1 0x3 ADD SLOAD LT ISZERO SWAP1 POP DUP1 ISZERO PUSH2 0x340 JUMPI PUSH1 0x1 PUSH0 PUSH1 0x4 ADD PUSH0 PUSH2 0x100 EXP DUP2 SLOAD DUP2 PUSH1 0xFF MUL NOT AND SWAP1 DUP4 PUSH1 0x3 DUP2 GT ISZERO PUSH2 0x33A JUMPI PUSH2 0x339 PUSH2 0x411 JUMP JUMPDEST JUMPDEST MUL OR SWAP1 SSTORE POP JUMPDEST CALLER PUSH20 0xFFFFFFFFFFFFFFFFFFFFFFFFFFFFFFFFFFFFFFFF AND PUSH32 0xA3CF76D32602A2A687ABED22E487AC1357D386FECF9BE68FE771F9C97606F3C3 CALLVALUE PUSH0 PUSH1 0x3 ADD SLOAD DUP5 PUSH1 0x40 MLOAD PUSH2 0x38E SWAP4 SWAP3 SWAP2 SWAP1 PUSH2 0x6BC JUMP JUMPDEST PUSH1 0x40 MLOAD DUP1 SWAP2 SUB SWAP1 LOG2 POP JUMP JUMPDEST PUSH0 DUP3 DUP3 MSTORE PUSH1 0x20 DUP3 ADD SWAP1 POP SWAP3 SWAP2 POP POP JUMP JUMPDEST PUSH32 0x636F6D706169676E206973207374696C6C20696E2070726F6772657373210000 PUSH0 DUP3 ADD MSTORE POP JUMP JUMPDEST PUSH0 PUSH2 0x3DD PUSH1 0x1E DUP4 PUSH2 0x399 JUMP JUMPDEST SWAP2 POP PUSH2 0x3E8 DUP3 PUSH2 0x3A9 JUMP JUMPDEST PUSH1 0x20 DUP3 ADD SWAP1 POP SWAP2 SWAP1 POP JUMP JUMPDEST PUSH0 PUSH1 0x20 DUP3 ADD SWAP1 POP DUP2 DUP2 SUB PUSH0 DUP4 ADD MSTORE PUSH2 0x40A DUP2 PUSH2 0x3D1 JUMP JUMPDEST SWAP1 POP SWAP2 SWAP1 POP JUMP JUMPDEST PUSH32 0x4E487B7100000000000000000000000000000000000000000000000000000000 PUSH0 MSTORE PUSH1 0x21 PUSH1 0x4 MSTORE PUSH1 0x24 PUSH0 REVERT JUMPDEST PUSH32 0x63726561746F7220686173206E6F2072696768747320746F20636F6E74726962 PUSH0 DUP3 ADD MSTORE PUSH32 0x75746520696E20636F6D706169676E0000000000000000000000000000000000 PUSH1 0x20 DUP3 ADD MSTORE POP JUMP JUMPDEST PUSH0 PUSH2 0x498 PUSH1 0x2F DUP4 PUSH2 0x399 JUMP JUMPDEST SWAP2 POP PUSH2 0x4A3 DUP3 PUSH2 0x43E JUMP JUMPDEST PUSH1 0x40 DUP3 ADD SWAP1 POP SWAP2 SWAP1 POP JUMP JUMPDEST PUSH0 PUSH1 0x20 DUP3 ADD SWAP1 POP DUP2 DUP2 SUB PUSH0 DUP4 ADD MSTORE PUSH2 0x4C5 DUP2 PUSH2 0x48C JUMP JUMPDEST SWAP1 POP SWAP2 SWAP1 POP JUMP JUMPDEST PUSH32 0x636F6D706169676E206973206E6F7420756E6465722074686520737461746520 PUSH0 DUP3 ADD MSTORE PUSH32 0x46554E44494E4700000000000000000000000000000000000000000000000000 PUSH1 0x20 DUP3 ADD MSTORE POP JUMP JUMPDEST PUSH0 PUSH2 0x526 PUSH1 0x27 DUP4 PUSH2 0x399 JUMP JUMPDEST SWAP2 POP PUSH2 0x531 DUP3 PUSH2 0x4CC JUMP JUMPDEST PUSH1 0x40 DUP3 ADD SWAP1 POP SWAP2 SWAP1 POP JUMP JUMPDEST PUSH0 PUSH1 0x20 DUP3 ADD SWAP1 POP DUP2 DUP2 SUB PUSH0 DUP4 ADD MSTORE PUSH2 0x553 DUP2 PUSH2 0x51A JUMP JUMPDEST SWAP1 POP SWAP2 SWAP1 POP JUMP JUMPDEST PUSH32 0x646561646C696E65206D69737365642100000000000000000000000000000000 PUSH0 DUP3 ADD MSTORE POP JUMP JUMPDEST PUSH0 PUSH2 0x58E PUSH1 0x10 DUP4 PUSH2 0x399 JUMP JUMPDEST SWAP2 POP PUSH2 0x599 DUP3 PUSH2 0x55A JUMP JUMPDEST PUSH1 0x20 DUP3 ADD SWAP1 POP SWAP2 SWAP1 POP JUMP JUMPDEST PUSH0 PUSH1 0x20 DUP3 ADD SWAP1 POP DUP2 DUP2 SUB PUSH0 DUP4 ADD MSTORE PUSH2 0x5BB DUP2 PUSH2 0x582 JUMP JUMPDEST SWAP1 POP SWAP2 SWAP1 POP JUMP JUMPDEST PUSH32 0x416D6F756E74206F6620636F6E7469627574696F6E206973207A65726F210000 PUSH0 DUP3 ADD MSTORE POP JUMP JUMPDEST PUSH0 PUSH2 0x5F6 PUSH1 0x1E DUP4 PUSH2 0x399 JUMP JUMPDEST SWAP2 POP PUSH2 0x601 DUP3 PUSH2 0x5C2 JUMP JUMPDEST PUSH1 0x20 DUP3 ADD SWAP1 POP SWAP2 SWAP1 POP JUMP JUMPDEST PUSH0 PUSH1 0x20 DUP3 ADD SWAP1 POP DUP2 DUP2 SUB PUSH0 DUP4 ADD MSTORE PUSH2 0x623 DUP2 PUSH2 0x5EA JUMP JUMPDEST SWAP1 POP SWAP2 SWAP1 POP JUMP JUMPDEST PUSH0 DUP2 SWAP1 POP SWAP2 SWAP1 POP JUMP JUMPDEST PUSH32 0x4E487B7100000000000000000000000000000000000000000000000000000000 PUSH0 MSTORE PUSH1 0x11 PUSH1 0x4 MSTORE PUSH1 0x24 PUSH0 REVERT JUMPDEST PUSH0 PUSH2 0x66A DUP3 PUSH2 0x62A JUMP JUMPDEST SWAP2 POP PUSH2 0x675 DUP4 PUSH2 0x62A JUMP JUMPDEST SWAP3 POP DUP3 DUP3 ADD SWAP1 POP DUP1 DUP3 GT ISZERO PUSH2 0x68D JUMPI PUSH2 0x68C PUSH2 0x633 JUMP JUMPDEST JUMPDEST SWAP3 SWAP2 POP POP JUMP JUMPDEST PUSH2 0x69C DUP2 PUSH2 0x62A JUMP JUMPDEST DUP3 MSTORE POP POP JUMP JUMPDEST PUSH0 DUP2 ISZERO ISZERO SWAP1 POP SWAP2 SWAP1 POP JUMP JUMPDEST PUSH2 0x6B6 DUP2 PUSH2 0x6A2 JUMP JUMPDEST DUP3 MSTORE POP POP JUMP JUMPDEST PUSH0 PUSH1 0x60 DUP3 ADD SWAP1 POP PUSH2 0x6CF PUSH0 DUP4 ADD DUP7 PUSH2 0x693 JUMP JUMPDEST PUSH2 0x6DC PUSH1 0x20 DUP4 ADD DUP6 PUSH2 0x693 JUMP JUMPDEST PUSH2 0x6E9 PUSH1 0x40 DUP4 ADD DUP5 PUSH2 0x6AD JUMP JUMPDEST SWAP5 SWAP4 POP POP POP POP JUMP INVALID LOG2 PUSH5 0x6970667358 0x22 SLT KECCAK256 0xB8 0xDA KECCAK256 0xE8 0x2D DUP10 0xD4 0xC8 GAS 0xCC 0xB4 RJUMP 0x365F 0x2B 0xB0 0xBA EXTCODECOPY 0xEA 0xE9 MUL SWAPN 0x76 PUSH6 0x65383DB7D875 0xB3 0x23 PUSH5 0x736F6C6343 STOP ADDMOD 0x1E STOP CALLER "
				},
				"gasEstimates": {
					"creation": {
						"codeDepositCost": "366200",
						"executionCost": "infinite",
						"totalCost": "infinite"
					},
					"external": {
						"contribute()": "infinite",
						"finalize()": "30783"
					}
				},
				"methodIdentifiers": {
					"contribute()": "d7bb99ba",
					"finalize()": "4bb278f3"
				}
			},
			"storageLayout": {
				"storage": [
					{
						"astId": 25,
						"contract": "CrowdFunding.sol:CrowdFunding",
						"label": "compaign",
						"offset": 0,
						"slot": "0",
						"type": "t_struct(Compaign)22_storage"
					}
				],
				"types": {
					"t_address": {
						"encoding": "inplace",
						"label": "address",
						"numberOfBytes": "20"
					},
					"t_enum(State)6": {
						"encoding": "inplace",
						"label": "enum CrowdFunding.State",
						"numberOfBytes": "1"
					},
					"t_mapping(t_address,t_uint256)": {
						"encoding": "mapping",
						"key": "t_address",
						"label": "mapping(address => uint256)",
						"numberOfBytes": "32",
						"value": "t_uint256"
					},
					"t_struct(Compaign)22_storage": {
						"encoding": "inplace",
						"label": "struct CrowdFunding.Compaign",
						"members": [
							{
								"astId": 8,
								"contract": "CrowdFunding.sol:CrowdFunding",
								"label": "creator",
								"offset": 0,
								"slot": "0",
								"type": "t_address"
							},
							{
								"astId": 10,
								"contract": "CrowdFunding.sol:CrowdFunding",
								"label": "goal",
								"offset": 0,
								"slot": "1",
								"type": "t_uint256"
							},
							{
								"astId": 12,
								"contract": "CrowdFunding.sol:CrowdFunding",
								"label": "deadline",
								"offset": 0,
								"slot": "2",
								"type": "t_uint256"
							},
							{
								"astId": 14,
								"contract": "CrowdFunding.sol:CrowdFunding",
								"label": "totalRaised",
								"offset": 0,
								"slot": "3",
								"type": "t_uint256"
							},
							{
								"astId": 17,
								"contract": "CrowdFunding.sol:CrowdFunding",
								"label": "state",
								"offset": 0,
								"slot": "4",
								"type": "t_enum(State)6"
							},
							{
								"astId": 21,
								"contract": "CrowdFunding.sol:CrowdFunding",
								"label": "contribution",
								"offset": 0,
								"slot": "5",
								"type": "t_mapping(t_address,t_uint256)"
							}
						],
						"numberOfBytes": "192"
					},
					"t_uint256": {
						"encoding": "inplace",
						"label": "uint256",
						"numberOfBytes": "32"
					}
				}
			},
			"userdoc": {
				"kind": "user",
				"methods": {},
				"version": 1
			}
		}
	}
}